:020000040800F2
:10000000B8100020ED010008A3220008391F0008E5
:10001000A122000883080008452F00080000000006
:100020000000000000000000000000009523000810
:100030000D09000800000000A52200089723000811
:10004000070200080702000807020008070200086C
:10005000070200080702000807020008070200085C
:1000600007020008070200080702000885080008C8
:1000700007020008070200088708000807020008B6
:1000800007020008890800080702000807020008A4
:10009000070200080702000807020008070200081C
:1000A00007020008772400087524000807020008EA
:1000B00007020008792400087B24000807020008D2
:1000C00007020008070200080702000807020008EC
:1000D00007020008070200080702000807020008DC
:1000E00007020008070200080702000807020008CC
:1000F000070200087D240008070200088B0800089A
:1001000007020008070200080702000807020008AB
:10011000070200080702000807020008070200089B
:10012000070200080702000807020008070200088B
:10013000070200080702000807020008070200087B
:10014000070200080702000807020008070200086B
:100150008D080008070200080702000807020008CF
:10016000070200080702000807020008070200084B
:10017000070200080702000800000000000000005D
:10018000070200080702000807020008070200082B
:10019000070200080702000800000000070200082C
:1001A000070200080702000800000000000000002D
:1001B000070200080000000000000000070200081D
:1001C00007020008070200080702000807020008EB
:1001D0000702000807020008DFF80CD000F002FB5D
:1001E00000480047CD380008B81000200648804776
:1001F00006480047FEE7FEE7FEE7FEE7FEE7FEE70C
:10020000FEE7FEE7FEE7FEE721240008D90100082B
:100210002DE9F05F0546002092469B46884606463B
:10022000814640241BE0284641464746224600F0CE
:1002300023FA53465A46C01A914110D31146184624
:10024000224600F00AFA2D1A67EB01084F462246B3
:100250000120002100F001FA17EB00094E41201E99
:10026000A4F10104DFDC484631462A464346BDE896
:10027000F09F40EA01039B0703D009E008C9121F61
:1002800008C0042AFAD203E011F8013B00F8013B50
:10029000521EF9D27047D2B201E000F8012B491E7C
:1002A000FBD270470022F6E710B513460A46044613
:1002B0001946FFF7F0FF204610BD2DE9FE4F80469E
:1002C00081EA0300C00F0C46009021F0004123F0AA
:1002D0000045B8EB0200A94105D2404621469046B0
:1002E0001C460B46024623F00040104347D0270D22
:1002F000C7F30A00C3F30A510290401A0190402844
:100300006BDAC3F3130040F4801B0098924620B1CF
:100310000023D2EB030A63EB0B0B01985946C0F1A3
:100320004002504600F099F906460D46504659469F
:10033000019A00F0B1F910EB08006141002487EA4E
:10034000115284EAE7731A4340D0009A62B3019ACB
:10035000012A4FEA075215DC001B61EB02014FF046
:10036000004202EA0752CDE90042001C41F580112B
:1003700032462B4600F0E8F903B0BDE8F08F404666
:100380002146F9E7001B61EB0201001C41F58013D7
:1003900000185B412018A2F5001747EB030140EA63
:1003A000D570B6196D4111E06D084FEA360645EA81
:1003B000C0754FEA0752001B61EB0201001C41F5BA
:1003C000801149084FEA30000019514132462B464E
:1003D00003B0BDE8F04F00F0A8B90098012240003A
:1003E0000023D0EB020263EBE073009821464FEA52
:1003F000E074B8EB000061EB0401E9E783F000432F
:100400005BE781F0004158E72DE9FE4F81EA0304E4
:1004100004F0004421F0004100944FF0000B23F061
:10042000004350EA01045ED052EA03045BD0C3F3F8
:100430000A54C1F30A552C44A4F2F3340194A0FBEE
:100440000254C1F3130141F48011C3F3130343F4C5
:10045000801301FB024400FB034E840A970A44EA1E
:10046000815447EA8357A4FB076802958D0A05FB70
:1004700007854FEA932C04FB0C542705029D4FEA95
:10048000065847EA1637B5EB08056EEB070C870EE2
:10049000920E47EA811742EA8312A7FB0201B6EBEC
:1004A0000B0164EB00042B0D43EA0C335E1844EBA4
:1004B0001C50DA465146E7FB0201C5F313044FEA2C
:1004C0000B3343EA14534FEA0432019C43EA060318
:1004D000A4F10C040294009CCDE900B400F034F9BE
:1004E00003B0BDE8F08F00200146F9E72DE9F04D9B
:1004F00081EA030404F0004B21F0004514464FF05C
:10050000000A23F0004150EA050220D054EA01021B
:100510001DD0C5F30A570246C5F31303C1F31300F8
:10052000C1F30A5640F4801543F48013A7EB060884
:10053000101BD64608F2FD3873EB050002D308F114
:10054000010801E092185B41B8F1000F03DA0020C6
:100550000146BDE8F08D00204FF480110646844628
:100560000EE0171B73EB050705D3121B63EB0503A6
:1005700006434CEA010C49084FEA300092185B41EF
:1005800050EA0107EDD152EA030012D082EA0400DA
:1005900083EA0501084305D0101BAB4106D20122B6
:1005A000002306E000224FF0004302E06FF001025A
:1005B00053101AEB06004CEB085110EB0A0041EB0C
:1005C0000B01BDE8F04D00F0B0B8C1F30A5210B510
:1005D000C1F3130140F2FF3341F480119A4201DA72
:1005E000002010BD40F233439A42A2F2334203DCB2
:1005F000524200F041F810BD904010BD00F00042A2
:1006000030F000400AD0C10D01F56071C0F3160052
:1006100042EA0151C20840071143704700200146D9
:10062000704701F0004330B421F0004150EA01026C
:1006300006D00A0DA2F56072C1F31301002A02DC94
:1006400030BC00207047440F44EAC104C100E018E8
:1006500030BC00EBC25000F031B8202A04DB203A55
:1006600000FA02F1002070479140C2F1200320FA05
:1006700003F3194390407047202A04DB203A21FA03
:1006800002F00021704721FA02F3D040C2F12002AB
:100690009140084319467047202A06DBCB17203AC1
:1006A00041FA02F043EAE07306E041FA02F3D04077
:1006B000C2F1200291400843194670470029A8BFA3
:1006C0007047401C490008BF20F00100704710B47B
:1006D000B0FA80FC00FA0CF050EA010404BF10BC30
:1006E000704749B1CCF1200421FA04F411FA0CF15D
:1006F00018BF012121430843A3EB0C01CB1D4FEA96
:1007000000614FEA102042BF002010BC704700EB90
:10071000C35010440029A4BF10BC7047401C4900BE
:1007200008BF20F0010010BC704710B5141E73F113
:10073000000408DA401C41F1000192185B411A43A1
:1007400001D120F0010010BD2DE9F04D92469B46ED
:1007500011B1B1FA81F202E0B0FA80F22032904693
:10076000FFF77BFF04460F4640EA0A0041EA0B010F
:1007700053465A46084313D0114653EA010019D094
:10078000C8F140025046FFF777FF05460E46504637
:1007900059464246FFF761FF084305D0012004E0B7
:1007A00020463946BDE8F08D0020054346EAE07654
:1007B0002C4337430A986305E40AA0EB08000022A3
:1007C000FD0A44EA47540A3002D500200146E9E711
:1007D000010510196941DDE9084500196941BDE8C5
:1007E000F04DA2E7064C074D06E0E06840F001033B
:1007F00094E8070098471034AC42F6D3FFF7F0FCBA
:10080000903D0008B03D00080EB5C10F80EAE070D1
:100810000844CA07002140F233438DE80E000A461F
:100820000B46FFF791FF03B000BD0EB540F2334118
:1008300002910021CDE900110A460B46FFF784FF23
:1008400003B000BD70B5C1F30A5201F000450024A9
:10085000C1F3130140F2FF3341F480119A4201DAEF
:10086000002070BD40F233439A42A2F2334203DCCF
:100870005242FFF701FF00E090402C43F1D040428C
:1008800070BDFEE7704770477047704770470000C3
:1008900001681823CAB2103AB2FBF3F2054B6FF3AA
:1008A0000901032A9B5CC36500D9091D81650846BF
:1008B00070470000503C000810B5014600208B69CD
:1008C0008A6A4FF0C07453B1B3F5005F15D072B1AE
:1008D000012A0CD0022A0AD0032A09D104E01AB155
:1008E000012A06D0022A03D1C96AC90100D5012014
:1008F00010BDC96AA142FAD010BD002AF7D0012A62
:10090000F2D0022AF3D0032AF3D010BD704770470B
:100910002DE9F041044600F04FF906465CB1002590
:1009200084F83450022084F835002068016821F0F2
:10093000010101600DE00120BDE8F08100F03CF90B
:10094000801B052805D920206065032084F8350028
:10095000F2E720680068C007F0D1226811682048DB
:100960000140D4E901031843D4E903363343184363
:1009700063691843A3691843E3691843236A18435A
:100980000843616A042903D1D4E90B1319430843CE
:10099000106020684069666A20F0070130460E4307
:1009A000012704280CD1A06A0643E06A40B1204622
:1009B000FFF782FF20B14020606584F83570BAE708
:1009C000206846612046FFF763FF94F85C203F21D2
:1009D00091408160656584F835700020ACE70000C7
:1009E0003F8010E070B5044600F0E6F80546601C54
:1009F00002D004480078044400F0DEF8401BA04216
:100A0000FAD370BD3C0000202DE9F84FDFF874B137
:100A100000224FF001084FF0030A4FF00F090BF1CD
:100A2000040E00BF0B6808FA02F42340A3426ED103
:100A30004D68022D01D0122D0ED1D50800EB850C8A
:100A4000DCF820505607F70E09FA07F6B5430E6991
:100A5000BE402E43CCF82060066855000F790AFA94
:100A600005FC07F0030726EA0C06AF403743076092
:100A70004E68012E05D0022E03D0112E01D0122E69
:100A80000ED18668CF6826EA0C06AF4037438760F0
:100A90004668A6430C79C4F3001494403443446080
:100AA000C4688E6824EA0C04AE402643C6604C68D5
:100AB000E40060D5344C256845F480452560246801
:100AC00022F0030504F480440094304C2E19D6F82B
:100AD000084895072F0F09FA07F5AC432C4DA8429B
:100AE00001D100251FE02B4DA84201D101251AE0BC
:100AF000294DA84201D1022515E0284DA84201D177
:100B0000032510E0264DA84202D104250BE032E077
:100B1000244DA84201D1052505E0234DA84201D16D
:100B2000062500E00725BD402543C6F80858DBF838
:100B300000405D464E689C43F60300D51C432C6084
:100B4000DEF8004075464E689C43B60300D51C4352
:100B50002C600C4D08352C684E689C43F60200D57D
:100B60001C432C60074D0C352C684E689C43B60224
:100B700000D51C432C60521C102AFFF453AFBDE873
:100B8000F88F0000003C0140443802400030014032
:100B9000000002400004024000080240000C024035
:100BA0000010024000140240001802400AB18161A6
:100BB00070470904FBE700000148806870470000A7
:100BC0003C0000200248816802781144816070472F
:100BD0003C000020094810B5016841F40071016033
:100BE000016841F480610160032000F06FF800208B
:100BF00000F006F800F024F8002010BD003C024090
:100C000070B50D4D04464FF47A712878B1FBF0F0C1
:100C10000A490968B1FBF0F000F0A2FC48B9102CB9
:100C200007D200222146501E00F030F800206C60F0
:100C300070BD012070BD00003C0000204800002075
:100C40000A4808B5016841F480410160006800F479
:100C5000804000900548001F016841F0805101600C
:100C6000006800F08050009008BD00004438024049
:100C7000002809DB00F01F0201219140400980009B
:100C800000F1E020C0F8001170470000F0B40E4BF6
:100C90001B680C46C3F30223C3F10705042D00D9DA
:100CA0000425191D072901D2002300E0DB1E0126BF
:100CB00006FA05F1491E214099409E40761E1640D5
:100CC0003143F0BC02F057B90CED00E0064900F0EA
:100CD000070208684FF6FF03184040EA0220034A63
:100CE00010430860704700000CED00E00000FA05BA
:100CF0002DE9F0470E46050065D0DFF81481D8F8DD
:100D00000000F7B200F00F00B04207D288F8007080
:100D1000D8F8000000F00F00B04254D128683D4CD4
:100D2000810712D5400703D5206840F4E0502060C9
:100D30002878000703D5206840F4604020602068D0
:100D4000A96820F0F000084320602878C0072DD063
:100D5000304968680839012812D0022813D00328C6
:100D600011D00968890700292DDA216821F00301D3
:100D700001432160FFF720FF814641F2883A0EE0EF
:100D800009688903EFE709688901ECE7FFF714FFB9
:100D9000A0EB0901514502D90320BDE8F087206886
:100DA000696800F00C00B0EB810FEFD1D8F80010AB
:100DB000404601F00F01B14207D90770006800F00A
:100DC0000F00B04201D00120E7E72878400705D5A1
:100DD0002068E96820F4E050084320602878000784
:100DE00006D52068296920F4604040EAC1002060EF
:100DF00000F036F82168084AC1F30311515CC8407D
:100E0000064908600020FFF7FBFE0020C5E7000050
:100E1000003C024008380240583C000848000020CE
:100E20000448054900680968044AC1F38221515CFD
:100E3000C84070474800002008380240683C00085D
:100E40000448054900680968044AC1F34231515C0D
:100E5000C84070474800002008380240683C00083D
:100E6000154810B5006810F00C02144813D014494E
:100E7000042A0FD0082A0ED10F4C241F22682368A1
:100E800002F03F025B0207D52068C0F38810A0FB88
:100E9000010106E0084610BD2168C1F38811A1FBDD
:100EA00000010023FFF7B4F92168C1F30141491C97
:100EB0004900B0FBF1F010BD083802400024F400F6
:100EC00000366E012DE9F84F05460078DFF800B3D3
:100ED000C04CC0074AD0DBF800105846C1F381016E
:100EE000012908D00068C0F3810002280AD1201D22
:100EF0000068400206D52068800337D5686800285E
:100F000072D033E06868B0F5803F10D0B0F5A02F04
:100F1000206810D020F480302060206820F48020E9
:100F200020606868A8B1FFF747FE06460DE020681C
:100F300040F48030F4E740F480202060F7E700BF01
:100F4000FFF73AFE801B64286FD820688003F7D52E
:100F50000CE0FFF731FE064605E000BFFFF72CFE70
:100F6000801B6428F0D820688003F7D42878DFF845
:100F7000688280074FF0000940D5DBF80010584622
:100F800011F00C0F09D00068C0F3810002280BD1CA
:100F90008F48001F0068400206D42068800715D5DE
:100FA000E868012820D111E0E868B8B10120C8F84C
:100FB0000000FFF701FE064605E000BFFFF7FCFD5D
:100FC000801B0228C0D820688007F7D520682969CF
:100FD00020F0F80040EAC10020600FE0C8F800905F
:100FE000FFF7EAFD064606E0EFE000BFFFF7E4FD8D
:100FF000801B022819D820688007F7D428780007BA
:1010000022D5734E754869696C3679B1012101604A
:10101000FFF7D2FD074604E0FFF7CEFDC01B022814
:1010200003D830688007F7D50EE089E0C0F800905B
:10103000FFF7C2FD074604E0FFF7BEFDC01B022814
:101040007ED830688007F7D42878400768D5DFF865
:1010500080A100270AF1380ADAF80000C0000BD49A
:10106000DAF8001041F08051CAF80010DAF80000F8
:10107000012700F080500090594E3068C00510D410
:10108000306840F480703060FFF796FD009005E016
:10109000FFF792FD0099401A022851D83068C00528
:1010A000F6D54B4EA868683601280FD00528306861
:1010B00010D020F001003060306820F00400306073
:1010C000A868B8B1FFF778FD00900FE0306840F0F5
:1010D0000100F4E740F004003060F7E7FFF76CFD33
:1010E0000099411A41F28830814266D83068800701
:1010F000F4D50EE0FFF760FD009007E0FFF75CFD20
:101100000099411A41F28830814256D830688007F0
:10111000F4D42FB1DAF8001021F08051CAF8001091
:10112000A869D0B3DBF80010C1F3810102294CD0CB
:101130000228484607D0C8F86000FFF73DFD00E0F0
:101140003BE005463CE04746C8F86000FFF734FD49
:10115000064604E0FFF730FD801B02282DD82068EA
:101160008001F7D4F5E907010843E9681D4A4908F9
:1011700002EB0141AA6841EA82110843297C40EA56
:101180000160297D40EA01711148001F01600120C2
:101190003866FFF711FD054605E014E0FFF70CFD8A
:1011A000401B022809D820688001F7D50BE000BF5A
:1011B000FFF702FD401B022802D90320BDE8F88F8B
:1011C00020688001F4D40020F8E70120F6E7000051
:1011D000083802400038024000004742800E474273
:1011E000007000400000FFFF70B5040005D000252E
:1011F000A56294F8510010B106E0012070BD84F89A
:101200005050204600F030F8022084F85100206849
:10121000016821F040010160D4E901010843D4E9EB
:1012200003121143084361690843218B01F40071E3
:101230000843E1690843216A0843A16A0843216819
:101240000860A069042101EA1040616A084321682E
:1012500048602068C16921F40061C16165650120B1
:1012600084F85100002070BD2DE9F04786B0054696
:1012700014216846FFF716F85A48594B2A6800248B
:1012800058491038584F4FF002084FF003094FF0FB
:10129000050C9A4219D10A6842F480420A60096832
:1012A00001F480410591016841F00201016000688C
:1012B00002AA00F0020005904FF40440CDE90008B6
:1012C00082E81012694638466AE0484B06264FF419
:1012D000005A9A4234D10A6842F400420A6009680E
:1012E00001F400410591016841F0020101600068CC
:1012F000CDE9024800F0020005903820CDE9000851
:10130000694638460496FFF77FFB3A4E3848C6E9EF
:1013100000040015B460C6E903404000C6E9050AB0
:10132000C010F0614002C6E908043046FFF7F0FA49
:1013300008B1FFF7ECFAEE64B56306B0BDE8F087DC
:1013400028492D4B091D9A422DD10A6842F40052BA
:101350000A60096801F400510591016841F001013A
:101360000160016801F001010591016841F002018D
:1013700001600068CDF8008000F00200CDE904C0F3
:10138000CDF80C90CDE9018469461C48FFF73CFB81
:10139000CDF800A0CDE90184CDE903966946384631
:1013A000FFF732FBC9E7164B9A42C6D10A6842F4EE
:1013B00080120A60096801F480110591016841F00A
:1013C000020101600068CDE9024900F002000590C9
:1013D00040F20110CDE90008694604963846DFE77F
:1013E000003800404038024000040240003C004009
:1013F00010600240B80700200034014000000240A5
:10140000005001402DE9F84F044690F850000027A5
:101410001D461646894601280DD04FF0010B84F871
:1014200050B0FFF7C9FB804694F85100BA46012836
:1014300004D002278EE00220BDE8F88FB9F1000F3A
:101440007DD0002E7BD0032084F85100C4F854A036
:10145000C4F83090A686E686C4F838A0A4F83CA06C
:10146000A4F83EA0C4F844A0C4F840A0A068B0F519
:10147000004F04D12068016841F480410160206878
:101480000168490603D4016841F040010160E06849
:10149000B0F5006F606803D030B3012E24D040E077
:1014A00008B1012E1CD1206B21680088C86006E0BD
:1014B00020688168890709D5216B0988C160206B84
:1014C000801C2063E08E401EE08609E0FFF774FB7D
:1014D000A0EB0800A84202D3681C01D031E07DB324
:1014E000E08E0028E4D11FE0206B216800780873AB
:1014F00006E020688168890709D5216B09780173A6
:10150000206B401C2063E08E401EE08609E0FFF760
:1015100053FBA0EB0800A84202D3681C01D010E0E6
:1015200075B1E08E0028E4D142462946204600F0FD
:10153000BBFE08B120206065A06820B107E008E08C
:10154000FFE7032706E02068C16880680090606DAF
:1015500000B1012784F851B084F850A038466BE7F9
:1015600010B5401EB0F1807F01D3012010BD4FF0B7
:10157000E02460610F21601701F0FDFC0020A061F4
:1015800007202061002010BD70B590F83C20012A92
:1015900019D0012400F83C4F0222427050F83C3C24
:1015A0005A689D6822F070060A684968324325F03F
:1015B000800529435A6050F83C2C9160447000210A
:1015C0000170084670BD022070BD10B5040003D044
:1015D00094F83D0010B107E0012010BD002084F810
:1015E0003C00204600F00CF8022084F83D00211D4C
:1015F000206801F089F9012084F83D00002010BD29
:1016000038B505460068294A0021904236D128485D
:10161000026842F0010202600068274C00F00100FD
:101620000090244820604FF0406060604020C4E992
:1016300002010001C4E904010001C4E906014FF4FC
:10164000403020620420C4E90901E16220462163A0
:10165000FFF75EF908B1FFF75AF92C620022022168
:101660001920A563FFF712FB1920FFF701FB0022E9
:1016700003211A20FFF70AFB1A2012E00F498842C3
:1016800013D10B48001F016841F4807101600068AC
:10169000002200F48070009011462D20FFF7F6FA2A
:1016A0002D20BDE83840FFF7E3BA38BD0000014007
:1016B000443802408864024018080020002000409E
:1016C0000168CA6842F00102CA600068816801F0DE
:1016D0000701062903D0016841F0010101600020E3
:1016E0007047022180F83D1001680A6A41F2111327
:1016F0001A4207D10A6A9B101A4203D10A6822F0E3
:1017000001020A60012180F83D100020704770B589
:10171000044690F83C000D4601280DD0012684F8BF
:101720003C60022084F83D0042B1042A18D0082A07
:101730002AD00C2A4DD139E0022070BD206801F07A
:1017400051F92068816941F008018161206881694F
:1017500021F004018161206881692A69114311E047
:10176000206801F06FF92068816941F400618161AE
:101770002068816921F480618161206881692A691A
:1017800041EA0221816124E0206801F091F920689A
:10179000C16941F00801C1612068C16921F00401FB
:1017A000C1612068C1692A69114311E0206801F014
:1017B000B3F92068C16941F40061C1612068C16961
:1017C00021F48061C1612068C1692A6941EA02216E
:1017D000C16184F83D60002084F83C0070BD10B504
:1017E000040003D094F83D0010B107E0012010BDC3
:1017F000002084F83C00204600F00CF8022084F819
:101800003D00211D206801F07FF8012084F83D0093
:10181000002010BD2DE9F84F0646444A01684448AF
:10182000002591420ED1016841F00201016000687B
:10183000002200F00200009011461D20FFF726FA5A
:101840001D206CE03B4A91426DD1016841F00401DA
:1018500001600068394C00F0040000903648D7035E
:101860004FF0400884E881014FF4006B1014C4E984
:1018700005B08011E0614FF44030206204206062C6
:101880004FF4806AC4E9035A0120C4E90A052046DE
:101890002563FFF73DF808B1FFF739F83462A66316
:1018A000274C2548B946C4F810A0C4E90285183071
:1018B000C4E900094FF48040C4E905B08011E0613B
:1018C0004FF440302062042060620120C4E90A0520
:1018D0005746D84620462563FFF71AF808B1FFF7A8
:1018E00016F8F462A6631448164C483801C44FF445
:1018F0000050E4E80295A4E8A00164E80605114858
:1019000025626562FFF704F808B1FFF700F8B462DA
:10191000002201211E20A663FFF7B8F91E20BDE8B2
:10192000F84FFFF7A5B9BDE8F88F000000040040AC
:101930004038024000080040A060024078080020C3
:10194000D80800203809002070B5044690F83C0003
:10195000012812D0012584F83C50022084F83D0073
:10196000204601F001F901004FF0000007D084F893
:101970003D5084F83C00012070BD022070BD2168FC
:10198000CA6822F04002CA602168CA6822F4804214
:10199000CA6084F83D5084F83C00002070BD70B5EA
:1019A000040004D094F83900002510B106E00120AD
:1019B00070BD84F83850204600F022F8242084F8C6
:1019C00039002068C16821F40051C160204601F04F
:1019D00031F92068016921F4904101612068416971
:1019E00021F02A0141612068C16841F40051C160C1
:1019F000E563202084F8390084F83A00002070BDA7
:101A000010B586B0044614216846FEF74BFC144915
:101A10002068884221D11348016841F0100101601B
:101A2000006800F0100005900E481438016841F07D
:101A3000010101600068694600F0010005904FF463
:101A4000C0600090022001900120029003200390CA
:101A5000072004900448FEF7D7FF06B010BD000031
:101A60000010014044380240000002402DE9F843D4
:101A7000044690F83A00994616460D4620284FD164
:101A800095B18EB194F83800012849D0012084F82E
:101A900038000027E763222084F83A00FFF78CF82B
:101AA000A6858046E68531E00120BDE8F883E08D1B
:101AB000401EE085A0684346B0F5805F4FF000020D
:101AC0004FF020012046CDF8009004D001F008FA34
:101AD00098B10320E9E701F003FA0028F9D1206961
:101AE00000282068406803D0C1B225F8011B0DE032
:101AF000C0F3080125F8021B08E0206900282068CF
:101B0000406801D000F07F0005F8010BE08D00284F
:101B1000CDD1202084F83A0084F838700020C4E742
:101B20000220C2E72DE9F843044690F839001F4629
:101B300016460D46202850D1A5B19EB194F8380024
:101B400001284AD0012084F838004FF00008C4F87A
:101B50003C80212084F83900FFF72EF8A6848146C6
:101B6000E68426E00120BDE8F883E08C401EE08496
:101B7000A0684B46B0F5805F4FF000024FF0800147
:101B80002046009703D001F0ABF9E8B90DE001F071
:101B9000A7F9C8B928882168C0F3080048602069FF
:101BA00008B16D1C05E0AD1C03E0216815F8010BC0
:101BB0004860E08C0028D8D14B46002240212046C6
:101BC000009701F08DF908B10320CCE7202084F8BC
:101BD000390084F838800020C5E70220C3E72DE9EA
:101BE000F843804616460F464FF4AA40ADF8000071
:101BF000002231463846FEF7D9FF0120FEF7F2FEFB
:101C00004FF47A752B46022269464046FFF7FAFBED
:101C10000020ADF80000012231463846FEF7C6FF2D
:101C20000024002231463846FEF7C0FF2B46022230
:101C300069464046FFF7E6FB012231463846FEF78B
:101C4000B5FF641CE4B2092CEBD3BDE8F8830000B7
:101C50002DE9F047B4B0824640201190012089461A
:101C600012903C9F00200221CDE9130115901E46E1
:101C7000904611A92448FEF7C7FE182223A116A8F2
:101C8000FEF7F7FA182227A11CA8FEF7F2FA18228D
:101C90002AA122A8FEF7EDFA18222EA128A8FEF705
:101CA000E8FA182231A12EA8FEF7E3FA002401ADCC
:101CB000234642464946504600F064F82855641CC5
:101CC000E4B2402CF4D31620009016AB42464946AD
:101CD000504600F0BDF8002423464246494650468F
:101CE00000F050F82855641CE4B2402CF4D39DF861
:101CF000420038707E80424649465046FFF76FFFEB
:101D000034B00020BDE8F08700040240DE20280245
:101D1000CC000000010217020D00FFFFFFFFFFFFD4
:101D2000FFFF0000DE030702CC00000016001700D2
:101D3000107CFFFFFFFFFFFFFFFF0000DE04120229
:101D4000CC00000016001700107CFFFFFFFFFFFF14
:101D5000FFFF0000DE082802CC000000160017007C
:101D6000107CFFFFFFFFFFFFFFFF0000DE202802C7
:101D7000CC00000016001700107CFFFFFFFFFFFFE4
:101D8000FFFF00002DE9F0411746884643F0C000F0
:101D90000502002239464046FEF708FF0120FEF703
:101DA00021FE294E3560341F2068000603D402202E
:101DB000401C0A28FCDB20680006FCD401223946BE
:101DC0004046FEF7F3FE0120FEF70CFE00223946E6
:101DD0004046FEF7EBFE0120FEF704FE356020686A
:101DE000000603D40220401C0A28FCDB2068000601
:101DF000FCD4012239464046FEF7D8FE0120FEF70A
:101E0000F1FD002239464046FEF7D0FE0120FEF7E4
:101E1000E9FD35602068000603D40220401C0A2832
:101E2000FCDB20680006FCD4084804680120FEF7AB
:101E3000D9FD012239464046FEF7B8FE0120FEF7E3
:101E4000D1FDE0B2BDE8F0810C3C00400C38004010
:101E50002DE9F8431D461746884681460024089E12
:101E600009E0285D009023463A464146484600F086
:101E700007F8641CE4B2B442F3D30020BDE8F88351
:101E80002DE9F041884603F0BF00069940F080003C
:101E9000174641EA0025002239464046FEF786FEF5
:101EA000234E3560341F2068000603D40220401CF6
:101EB0000A28FCDB20680006FCD401223946404693
:101EC000FEF774FE0120FEF78DFD002239464046E4
:101ED000FEF76CFE35602068000603D40220401C2B
:101EE0000A28FCDB20680006FCD401223946404663
:101EF000FEF75CFE0120FEF775FD002239464046E4
:101F0000FEF754FE35602068000603D40220401C12
:101F10000A28FCDB20680006FCD40648046801227D
:101F200039464046FEF742FEE0B2BDE8F0810000CF
:101F30000C3C00400C380040FEE700001D4808B58E
:101F4000016841F400110160016801F40011009181
:101F5000016841F4800101600068002200F4800003
:101F6000009004210B20FEF791FE0B20FEF780FE6F
:101F7000002211460E20FEF789FE0E20FEF778FEA5
:101F8000002206211120FEF781FE1120FEF770FECF
:101F9000002211462F20FEF779FE2F20FEF768FE63
:101FA000002206214420FEF771FEBDE808404420CF
:101FB000FEF75EBE303802402DE9F04387B01421B1
:101FC0006846FEF76FF935480024016841F00401C6
:101FD0000160016801F004010591016841F0800190
:101FE0000160016801F080010591016841F0010183
:101FF0000160016801F001010591016841F00201F1
:1020000001600068264E00F002004FF46045059024
:10201000002229463046FEF7C9FDDFF888900022ED
:1020200048F204114846FEF7C1FDDFF87C8045F216
:102030004007002239464046FEF7B8FD00950125CD
:10204000CDE90154694630460394FEF7DDFC0420D7
:10205000CDE900050326CDE9025669464846FEF75C
:10206000D3FC1020CDE90006694602944846FEF7ED
:10207000CBFC0097CDE90154694640460394FEF736
:10208000C3FC4FF401400090CDE901546946484635
:102090000394FEF7B9FC07B0BDE8F0833038024086
:1020A0000008024000000240000402400B480A49B8
:1020B0004FF4806201600021C0E901125200C0E9C2
:1020C0000321012242610162520241628261816206
:1020D0000A21C162FFF788B8003800405000002094
:1020E0000C480B494FF4006201604FF4827141606B
:1020F0000021C0E9021292100161C0E90512082214
:10210000C0E90721416281620A21C162FFF76CB810
:10211000003C0040A80000200B480A494FF48062B0
:1021200001600021C0E901125200C0E903219210B0
:10213000C0E905120162416281620A21C162FFF7B2
:1021400053B8000000340140000100200B480A4948
:102150004FF4806201600021C0E901125200C0E921
:102160000321012242610162520241628261816265
:102170000A21C162FFF738B8005001405801002021
:1021800010B588B014216846FEF78CF8002110487D
:1021900005910E4A0691C0E900211422C0E90212FD
:1021A000016141618161FFF710FA05202024CDE92A
:1021B000000469460648FFF7C7FB8020CDE90540CB
:1021C00005A90348FFF7E0F908B010BD0000014081
:1021D000B001002010B58AB0002407941C21684685
:1021E0000894FEF75FF81348114901604FF4FA6153
:1021F000C0E9011441F2BF21C0E903148461FFF773
:10220000EEFA402007908020089007A90948FFF7C0
:10221000BBF9702000904FF47A70CDE901040022E0
:10222000694604480494FFF772FA0AB010BD000032
:1022300000040040F001002030B589B0002407946C
:102240001C2168460894FEF72DF814481249C0E98D
:1022500000149521C0E9024104618461FFF7BFFACF
:1022600050258020CDE9075007A90C48FFF78CF9CD
:102270007020CDE9000502200290042269460494F2
:102280000648FFF744FA08200246019069460348D1
:10229000FFF73DFA09B030BD0008004030020020D1
:1022A000FEE770477047000038B504461248134BEC
:1022B0000068B0FBF3F04FF47A7358430090606805
:1022C000B0F5827F0DD10B4600920022802120467E
:1022D00000F016F870B1606D40F0200060650320DA
:1022E00038BD009830B1401E009020688068C0431F
:1022F0000006F6D5002038BD4800002000366E01EB
:102300002DE9F0411D4617460E460446DDF81880BB
:1023100008E0681C06D0FEF74FFCA0EB0800A842BE
:102320000BD255B12068806836EA000030D000201A
:10233000B842EED10020BDE8F0812068416821F06C
:10234000E00141606068B0F5827F0BD1A068B0F514
:10235000004F02D0B0F5806F04D12068016821F0F1
:1023600040010160A06AB0F5005F09D120680168F2
:1023700021F4005101602068016841F400510160BE
:10238000012084F85100002084F850000320D2E797
:102390000120CDE77047FEF715BC000030B593B0C3
:1023A00034216846FDF77EFF14210DA8FDF77AFF62
:1023B00019480025016841F080510160006800F073
:1023C000805012901548016841F440410160006856
:1023D000022400F44040129001200090000401907B
:1023E0008001CDE9064018200890A020CDE909041D
:1023F0000420CDE90B046846FEF764FD0DA90F200B
:1024000081E83100E002CDE9100503210DA8FEF7B7
:102410006FFC13B030BD0000403802400070004037
:102420001048016841F4700101600F48016841F0F3
:10243000010101600C4A00210832116002680B4B57
:102440001A400260031D0A4A1A60026822F48022C0
:10245000026005480C300160024958068039086066
:102460007047000088ED00E000380240FFFFF6FEF4
:102470001030002470477047704770472DE9F04FC7
:10248000DFF804B42DED0C8B81B0DBF8101021F0D7
:102490000301CBF81010FD48DFF8FCE3FD4F0368A3
:1024A000FE48FB4A3C1F0168DEF8000003B31368D6
:1024B00043F480031360B0FBF1F301FB1303F84D09
:1024C00035F813303B6023681B0603D402235B1CE2
:1024D0000A2BFCDB23681B06FCD4136843F0400383
:1024E000136000BF00BF022300BF5B1C052BFBDB9A
:1024F0002368DB07FCD0DFF8ACA3DAF80030ADF8D6
:1025000000303B68ADF80030E74B1B68ADF8003099
:10251000DFF898C3DCF80C30ADF80030136843F4F2
:1025200080031360E24D4FF001092B6803F01F0890
:1025300009EB08263E602668360603D40226761C80
:102540000A2EFCDB26683606FCD4166846F04006E8
:10255000166000BF00BF022600BF761C052EFBDB05
:10256000166846F4800616602268D207FCD0D14A6D
:10257000D14DD24E12689B0625D4DAF80030ADF862
:102580000030B0FBF1F301FB130305EB8303D3ED44
:10259000000ABDF800301BB200EE103AB0FBF1F3B8
:1025A000B8EEC01A00EE102A01FB1303B8EEC00A01
:1025B00005EB8303C1EE001A30EEA10A83ED000A99
:1025C000DCF80C3029E03B684FF6FF7C0CEA430353
:1025D000ADF80030B0FBF1F301FB130305EB83030F
:1025E000D3ED000ABDF800301BB200EE103AB0FB8C
:1025F000F1F3B8EEC01A00EE102A01FB1303B8EE97
:10260000C00A05EB8303C1EE001A30EEA10A83ED88
:10261000000AA54B1B680CEA4303ADF80030B0FB81
:10262000F1F301FB130306EB8303D3ED000ABDF8BE
:102630000030DFF868A21BB200EE103AB0FBF1F3F5
:10264000B8EEC01A00EE102A01FB1303B8EEC00A60
:1026500006EB8303401C4A43C1EE001AF046824257
:1026600030EEA10A83ED000ACEF800007ED8DBF838
:10267000001021F00101CBF800109148FFF731F86C
:102680000020DAF8001044E068B105EB8002D8EDD4
:10269000010A92ED000AB4EEE00AF1EE10FA0DDD47
:1026A00088ED010A13E095ED000A88ED030A88ED34
:1026B000010A96ED000A88ED040A13E0D8ED030A3A
:1026C000B4EEE00AF1EE10FA01D288ED030A06EB4F
:1026D0008002D8ED020A92ED000AB4EEE00AF1EEB3
:1026E00010FA02DD88ED020A08E0D8ED040AB4EE23
:1026F000E00AF1EE10FA01D288ED040A9FED710AAA
:1027000005EB800282ED000A06EB8002401C82EDA0
:10271000000A8842B8DB9FED6C8B98ED010AD8ED7A
:10272000030A30EE600A10EE100AFDF767FF9FED16
:1027300068AB53EC1A2BFDF767FE9FED67BB53ECBC
:102740001B2BFDF761FE53EC182BFDF7CFFE9FED21
:1027500064CB53EC1C2BFDF757FE9FED63DB53EC72
:102760001D2BFDF751FEFDF75CFF00E0C6E0DFF832
:1027700040A109EE100A5E48DAF8005000EB850629
:1027800086ED009A98ED020AD8ED040A30EE600A50
:1027900010EE100AFDF732FF53EC1A2BFDF734FE52
:1027A00053EC1B2BFDF730FE53EC182BFDF79EFE70
:1027B00053EC1C2BFDF728FE53EC1D2BFDF724FEDC
:1027C000FDF72FFFFDEEC90A00EE100A10EE900A89
:1027D00086ED400A00B2642801DA012200E00022FE
:1027E000B5EEC09A5646F1EE10FA01DD012000E088
:1027F000002002423F484FF0000102D040F82590EF
:1028000001E040F82510FDEEC00A10EE902A12B249
:10281000642A01DA012200E00022B5EEC00AF1EEDE
:1028200010FA01DD012300E000231A4200EB8500CD
:1028300002D0C0F8009101E0C0F800116D1C05F055
:102840003F00C8F80010124D3060183D00224021B2
:102850002846FEF7ABF9306840F40740386020683E
:10286000000603D40220401C0A28FCDB2068000676
:10287000FCD4012240212846FEF798F9DBF800102D
:1028800041F0010138E0000000200040100000206D
:10289000180402400C3C00402800002020000020CA
:1028A000F00600200C3800400C340140005001407C
:1028B0000C0000200800002098090020280B0020B0
:1028C0007002002000000000000000E02452303EB2
:1028D000F6285C8FC2F5C83F8DEDB5A0F7C6B03EB7
:1028E000FCA9F1D24D62503F000000000000E03F23
:1028F000F0020020F0040020CBF8001001B0BDEC85
:102900000C8BBDE8F08F0000F0B50268254C264D19
:10291000264E274F274B4FF0804CA04209D06045F0
:1029200007D0A84205D0B04203D0B84201D09842A7
:1029300004D122F0700E4A6842EA0E02A0421BD077
:10294000604519D0A84217D0B04215D0B84213D074
:10295000984211D0184DA8420ED0184DA8420BD065
:10296000174DA84208D0174DA84205D0164DA842D1
:1029700002D0164DA84203D122F44075CA682A43FA
:102980004D6922F080022A4302608A68C2620A68A6
:102990008262A04201D0984201D1096901630121FC
:1029A0004161F0BD0000014000040040000800400B
:1029B000000C004000040140004001400044014080
:1029C0000048014000180040001C0040002000406A
:1029D00010B5846842EA032224F47F440A43224368
:1029E000826010BDF0B5026A22F001020262036A41
:1029F00042688469124E24F073050C682C4323F05E
:102A000002058B682B430D4DA84201D0B04205D181
:102A100023F00807CB683B4323F00403A84201D00E
:102A2000B04205D14D6922F4407215438A692A43A8
:102A300042608461496841630362F0BD0000014067
:102A400000040140F0B5026A22F010020262026A3C
:102A5000436884690D6824F4E64444EA05248D68DB
:102A600022F0200242EA05120F4D104EA84201D07A
:102A7000B04206D1CF6822F0800242EA071222F06B
:102A80004002A84201D0B04207D14D6923F440630F
:102A900043EA85038D6943EA85034360846149689D
:102AA00081630262F0BD00000000014000040140AB
:102AB000F0B5026A22F480720262026A4368C46955
:102AC00022F4007224F073050C68124E2C438D68BA
:102AD00042EA05220E4DA84201D0B04206D1CF688D
:102AE00022F4006242EA072222F48062A84201D066
:102AF000B04207D14D6923F4405343EA05138D6971
:102B000043EA05134360C4614968C1630262F0BDD2
:102B1000000001400004014030B5026A22F48052F6
:102B20000262046A4268C3690D6823F4E64343EA1B
:102B300005238D6824F4005444EA0534084DA84266
:102B400002D0084DA84204D14D6922F4804242EAE5
:102B500085124260C36149680164046230BD0000AF
:102B6000000001400004014010B503689A6822F09B
:102B700070044A68224322F007040A6822439A60DC
:102B80004A6812F00F0F30D11211082A2DD2DFE857
:102B900002F02C2C2C2C0B2127040B69D1E90221EB
:102BA0000068FFF715FF20E00A68052A10D00268C8
:102BB000136A146A24F001041462026894690969B2
:102BC00024F0F00444EA01119161006803620CE012
:102BD000012010BD0A698968006800F008F804E067
:102BE0000A698968006800F013F8002010BD10B56C
:102BF000036A046A24F001040462846924F0F00486
:102C000044EA021423F00A020A438461026210BDFE
:102C100010B5036A23F0100303628369046A23F486
:102C2000704343EA023224F0A00343EA01118261B7
:102C3000016210BD2DE9F041044600680169E268B7
:102C400021F44051114301612169A068E269084300
:102C50006169114322680843D16849F20C639943C2
:102C60000143D16020684169A26921F44071114398
:102C70004161E2696425B2F5004F9748974922689F
:102C80004FF032083FD08A4201D082427CD1FEF719
:102C9000D7F800EBC00101EB001061688900B0FBC0
:102CA000F1F6FEF7CDF800EBC00101EB0010616812
:102CB0008900B0FBF1F0B0FBF5F06FF0180148436C
:102CC00006EB800108EB0110B0FBF5F000F0F00618
:102CD000FEF7B6F800EBC00101EB00106168890057
:102CE000B0FBF1F0B0FBF5F006EB0016FEF7A8F82C
:102CF00000EBC00101EB001061688900B0FBF1F747
:102D0000FEF79EF8D2E08A4201D082423DD1FEF722
:102D100097F800EBC00101EB001061684900B0FBBF
:102D2000F1F0B0FBF5F00601FEF78AF800EBC00108
:102D300001EB001061684900B0FBF1F7FEF780F885
:102D400000EBC00101EB001061684900B0FBF1F03D
:102D5000B0FBF5F06FF01801484307EB800108EB7A
:102D6000C100B0FBF5F000F0F80006EB4006FEF7FE
:102D700067F800EBC00101EB001061684900B0FB8F
:102D8000F1F7FEF75DF83CE055E0FEF749F800EB9F
:102D9000C00101EB001061684900B0FBF1F0B0FB2D
:102DA000F5F00601FEF73CF800EBC00101EB001066
:102DB00061684900B0FBF1F7FEF732F800EBC001A3
:102DC00001EB001061684900B0FBF1F0B0FBF5F0D9
:102DD0006FF01801484307EB800108EBC100B0FB1E
:102DE000F5F000F0F80006EB4006FEF719F800EBEE
:102DF000C00101EB001061684900B0FBF1F7FEF77C
:102E00000FF800EBC00101EB001061684900B0FB56
:102E1000F1F0B0FBF5F06FF01801484307EB8001CB
:102E200008EBC100B0FBF5F000F00700216830446A
:102E30008860BDE8F081FDF7F3FF00EBC00101EB16
:102E4000001061688900B0FBF1F6FDF7E9FF00EBC7
:102E5000C00101EB001061688900B0FBF1F0B0FB2C
:102E6000F5F06FF01801484306EB800108EB011004
:102E7000B0FBF5F000F0F006FDF7D2FF00EBC0016B
:102E800001EB001061688900B0FBF1F0B0FBF5F0D8
:102E900006EB0016FDF7C4FF00EBC00101EB0010CC
:102EA00061688900B0FBF1F7FDF7BAFF00EBC001E4
:102EB00001EB001061688900B0FBF1F0B0FBF5F0A8
:102EC0006FF01801484307EB800108EB0110B0FBDD
:102ED000F5F000F00F00A9E70014014000100140D8
:102EE0002DE9F041984617460E460446069D1DE022
:102EF000681C1BD02DB1FDF75FFEA0EB0800A842B7
:102F000014D92068C16821F4D071C160206841697A
:102F100021F001014161202084F8390084F83A0051
:102F2000002084F838000320BDE8F08120680068A4
:102F300036EA000004D00020B842D9D00020F3E7E0
:102F40000120F9E7FEE703B401984100009850EA38
:102F5000C12018BF04204A0D18BF40F0010040F204
:102F6000FF72B2EB515F08BF40F00200012808BFBA
:102F7000052002B070470907090E002804DB00F1A4
:102F8000E02080F80014704700F00F0000F1E0200E
:102F900080F8141D7047000010B52F499FED2C1BC1
:102FA0002DED020B84B0059820F000408842DCBF74
:102FB00000209DED040B32DD2849884209D1049898
:102FC00040B94FF0010000F06FFC00F03DFC06B08E
:102FD00010BD05DB9DED040B00F02AFC06B010BD12
:102FE00068469DED040B00F03BF810F0030011D093
:102FF000012818D09DED021B9DED000B02281AD070
:1030000000F04AFA51EC100B81F0004106B041EC9F
:10301000100B10BD9DED021B9DED000B012000F07B
:103020006FFB06B010BD9DED021B9DED000B00F087
:1030300033FA06B010BD012000F062FB51EC100B1A
:1030400081F0004106B041EC100B10BD0000000003
:103050000000000000000000FB21E93F0000F07FBD
:103060002DE9F14F04462DED020B2DED088B8AB0B2
:103070009FEDE70B80ED020B139EE74826F000451D
:1030800085420ADC9DED120B002084ED000B0AB096
:10309000BDEC088B03B0BDE8F08FE0489FEDE0ABDE
:1030A0009FEDE1BBA84247DDE14F9FEDE39B9FED24
:1030B000E48B9DED120B53EC1A2B51EC100B002EF0
:1030C0001CDDFDF79BF941EC100BBD4208D053EC21
:1030D0001B2B51EC100BFDF791F9C4E900010BE03B
:1030E00053EC192B51EC100BFDF788F953EC182B0E
:1030F000FDF784F9C4E900010120C8E7FDF7DDF818
:1031000041EC100BBD4208D053EC1B2B51EC100BC3
:10311000FDF7D3F8C4E900010BE053EC192B51EC97
:10312000100BFDF7CAF853EC182BFDF7C6F8C4E9ED
:1031300000014FF0FF30AAE7C348A84279DB9DEDBC
:10314000120B51EC100B00F0B5FB41EC180B9FED8E
:10315000C00B53EC102BFDF757F99FEDBF1B53EC41
:10316000112BFDF7AAF8FDF76DFB0746FDF74CFBA9
:1031700041EC190B53EC1A2BFDF746F953EC182BC5
:10318000FDF73FF941EC180B53EC1B2B51EC190BDD
:10319000FDF73AF9DFF8C8A241EC100B4FEA1558D9
:1031A0000125FA4453EC102B51EC180BFDF726F9CE
:1031B000032DC4E900013DD0C1F30A5005EB4511D0
:1031C000A8EB00001139814234DA0AEB051BB0EE9E
:1031D00048AA9BED000BF0EE68AA53EC102B51ECC3
:1031E000190BFDF711F941EC1B0B51EC1A0B53ECC9
:1031F0001B2BFDF703F941EC180B51EC1A0B53ECA8
:10320000182BFDF7FBF853EC1B2BFDF7F7F89BEDA4
:10321000020B41EC1A0B53EC102B51EC190BFDF780
:10322000F3F853EC1A2BFDF7E9F841EC100B6D1C89
:10323000B8E70EE0002EA8BF3846BFF628AF94EDE1
:10324000000B51EC100B81F00041C4E90001784201
:103250001DE7C6F3130040F4801EC6F30A50A0F227
:10326000F530471100F01F05C5F12000DDF848B02A
:1032700008900020069007900520EC467949002D23
:1032800007EB0002794408BF51F8221009D051F829
:10329000223001EB8201AB404A68089922FA01F121
:1032A0001943A1FB0E26A1FB0B131A449A4234BF0B
:1032B0000123002303EB06080CEB8003D3E901A6EE
:1032C0000E448E4234BF0121002192448A4411B140
:1032D000924502D903E0924501D2012100E000218C
:1032E000C3E901A641444CF82010011EA0F10100E1
:1032F000C4DC029800F10050850F0298DDE90367F5
:103300008000DDF81480FDF77FFA41EC1A0B30469F
:10331000FDF78BFA9FED541B53EC112BFDF774F85E
:1033200041EC1B0B3846FDF780FA9FED511B53EC27
:10333000112BFDF769F841EC180B4046FDF775FAC3
:103340009FED4D1B53EC112BFDF75EF841EC190B73
:1033500051EC180B53EC192BFCF7AFFF53EC1B2B64
:10336000FCF7ABFF53EC1A2BFCF7A7FFCDE90801E4
:10337000002008909DED080B53EC1A2B51EC100B1C
:10338000FDF73CF853EC1B2BFDF738F853EC182BEA
:10339000FDF734F853EC192BFDF733F89FED381B8C
:1033A00053EC112BFDF730F89FED370B41EC180B68
:1033B00053EC102B9DED080B51EC100BFDF724F88E
:1033C00053EC182BFCF779FF9FED310B41EC180BF8
:1033D00053EC102B9DED080B51EC100BFDF714F87E
:1033E00053EC182BFCF769FF41EC100B139810F00D
:1033F000004F06D06D4251EC100B81F0004141ECC2
:10340000100B284684ED000B41E600000000000090
:103410000000000000000000FB21E93F7CD90240D1
:1034200000004054FB21F93F3163621A61B4D03D82
:10343000FB21F93F000000000000601A61B4D03D9C
:103440007370032E8A19A33BFB2139410000000051
:1034500083C8C96D305FE43F000000000000E03F1A
:10346000FA0A0000480A0000000000000000103EB8
:10347000000000000000103C000000000000103AB6
:10348000182D4454FB21F93D3326A611460B113C5F
:1034900000000054FB21F93D10B52DED040B2DED7E
:1034A000088B82B0B0EE419AF0EE619A0B9820F052
:1034B00000449FED4BABB4F1795F11DA9DED0A0B3F
:1034C00051EC100BFDF7BEF9002801BFB0EE4A0A1F
:1034D000F0EE6A0A02B0BDEC088B04BF04B010BD68
:1034E0009DED0A0B53EC102B51EC100BFCF78CFFED
:1034F00041EC180B3C480621B0EE480AF0EE680A91
:10350000784400F081F853EC182B51EC100BFCF7C9
:103510007BFF9DED0A0B41EC1B0B53EC192B51EC7F
:10352000100BFCF771FF41EC190B53EC1B2B51EC0A
:10353000180BFCF769FF53EC192BFCF75FFF9FEDAD
:103540002C0B41EC190B53EC102B51EC180BFCF726
:103550005BFF41EC100B2848844210DA53EC192B26
:1035600051EC100BFCF74AFF53EC1A2BFCF749FF08
:1035700041EC100B02B0BDEC088B04B010BD1F482D
:10358000A042BCBF9FED1E1B8DED001B06DBA4F50A
:1035900000100190002000909DED001B51EC100BDD
:1035A00053EC112BFCF72AFF9DED000B41EC180B9F
:1035B00053EC102B51EC1A0BFCF720FF41EC1A0BCB
:1035C00053EC192B51EC180BFCF718FF53EC1A2B8A
:1035D000FCF717FF41EC100BCCE7000000000000E7
:1035E000000000000000F03F6C0700000000000039
:1035F000000000000000E03F3333D33F0000E93F0C
:10360000000000000000D23F70B504462DED028B93
:103610004D1E00EBC500B0EE408AF0EE608A90EDE2
:10362000000B35F0060017D053EC182B51EC100BA3
:10363000FCF7EAFE41EC100B6D1E04EBC50090EDAB
:10364000001B51EC100B53EC112BFCF736FE41EC38
:10365000100B35F00600E7D1022D36D0042D1CD01A
:10366000062D1CBFBDEC028B70BD53EC182B51EC2A
:10367000100BFCF7C9FE94ED0A1B53EC112BFCF761
:103680001CFE53EC182BFCF7BFFE94ED081B53EC0B
:10369000112BFCF712FE41EC100B53EC182B51ECE4
:1036A000100BFCF7B1FE94ED061B53EC112BFCF74D
:1036B00004FE53EC182BFCF7A7FE94ED040B53EC1F
:1036C000102BFCF7FAFD41EC100B53EC182B51ECCE
:1036D000100BFCF799FE94ED021B53EC112BFCF739
:1036E000ECFD53EC182BFCF78FFE94ED001B53EC14
:1036F000112BFCF7E2FDBDEC028B41EC100B70BD11
:1037000031B504462DED040B2DED0A8BB0EE41BA18
:10371000F0EE61BA0B989DED0A0B20F00040B0F17D
:10372000795F0DDA51EC100BFFF70DFC042808BF90
:1037300000F09AF89DED0A0BBDEC0A8B05B030BD88
:1037400053EC102B51EC100BFCF75EFE41EC180B08
:103750009DED0A0B53EC182B51EC100BFCF754FEAB
:1037600041EC190B2C48B0EE480AF0EE680A05212E
:103770007844FFF749FF9FED2ACBB0EE40AAF0EE68
:1037800060AA9CB353EC1C2B51EC190BFCF73CFECC
:1037900041EC1C0B53EC1A2B51EC190BFCF734FECB
:1037A0009FED210B41EC190B53EC102B51EC1B0B33
:1037B000FCF72AFE53EC192BFCF720FE53EC182BD8
:1037C000FCF722FE53EC1B2BFCF718FE53EC1C2BD2
:1037D000FCF714FE9DED0A1B53EC112BFCF711FEB8
:1037E000BDEC0A8B05B041EC100B30BDFFE753EC8C
:1037F0001A2B51EC180BFCF707FE53EC1C2BFCF7B3
:103800005CFD53EC192BFCF7FFFD9DED0A1B53ECFF
:10381000112BFCF752FDE3E7F40500000000000067
:10382000495555555555C5BF000000000000E03F03
:1038300010B553EC102B51EC100BFCF73EFD41EC96
:10384000100B10BD000000009FED050B10B553ECF0
:10385000102B51EC100BFCF749FE41EC100B10BD86
:1038600000000000000000009FED050B10B553ECB8
:10387000102B51EC100BFCF7C7FD41EC100B10BDE9
:10388000000000000000001002E008C8121F08C17C
:10389000002AFAD170477047002001E001C1121FD1
:1038A000002AFBD170470000014908607047000002
:1038B0004C00002082B0CDE9000121F000400190D1
:1038C0009DED000B02B051EC100B70472DED068BF7
:1038D000A2B0FDF77FF9FEF761FDFEF76DFBFEF785
:1038E0002DFBFEF7FDFBFEF7A7FCFEF749FCFEF7FC
:1038F00071FCBC48BA49002501604FF49641C0E90B
:1039000001150C21C560C0E904518561C561FEF750
:1039100046F8FEF7CBFBFEF7FFFBFEF717FCB149BD
:10392000DFF8C4B240390846C1F800B04560856090
:1039300040F2CF70C8600846802105618161FDF7C3
:1039400044FEAA480068A94940F040000860A84821
:103950000068A74940F040000860A6480068A549F3
:1039600040F040000860A4480068A34940F04000CF
:103970000860DFF88892B82289144F464846FDF760
:1039800015F900224FF480413846FDF70FF904265F
:103990009BA133460C229348FEF7C4F89B4C334658
:1039A0000C229048616AFEF761F899A133460C2217
:1039B0008C48FEF7B7F899A133460C228948FEF7E8
:1039C000B1F893A133460C228648FEF7ABF8B82233
:1039D00031033846FDF7EAF8DFF84CA2012256031E
:1039E000314657465046FDF7E1F80122910338462B
:1039F000FDF7DCF84FF40048012241463846FDF758
:103A0000D5F84FF47A70FCF7EDFF002231463846C6
:103A1000FDF7CCF8002271003846FDF7C7F8002208
:103A200041463846FDF7C2F8A56100207F4EE561AA
:103A30004FEA000546F82050401C8028FADB502051
:103A40004FF47A7800279FED7A9B9FED7B8B9FED5B
:103A50007CAB206200EE107AF8EEC00A00EE100A8D
:103A6000B8EEC01A80EE810A10EE100AFCF7C6FD0F
:103A700053EC192BFCF7C8FC41EC100BFFF78CFA48
:103A800053EC182B51EC100BFCF7BEFC53EC182B2D
:103A9000FCF713FC53EC1A2BFCF7B6FCFCF795FD76
:103AA00040F40641684820F81710206A7F1C8742BE
:103AB000D0DB564844F620631430009040224F4635
:103AC00049466248FEF7C4F8402239465F48FEF78F
:103AD00086F8492000900523402239465B48FEF7CE
:103AE000CFF9002240213846FDF760F86420C4E990
:103AF00002053F494FF407400C310860091F086870
:103B0000000603D40220401C0A28FCDB08680006DB
:103B1000FCD4012240213846FDF748F8012740F245
:103B2000E7312761CBF82C102E484038FDF7C8FD4F
:103B3000012251035046FDF739F82560284600223E
:103B40000146656056F82230184406EB8203521C89
:103B5000D3F80031402A1944F4DBC4E900011F28DE
:103B600002DD0122A76101E00022A5614FF480413E
:103B70005046FDF71BF860681F2802DD0122E7614F
:103B800001E00022E5614FF400415046FDF70EF8D8
:103B9000E0680128D1D1134B02206A4613F140039B
:103BA00003EB800191ED000ABCEEC00A10EE101A82
:103BB0001154401C8228F3DBAA208DF80000552008
:103BC0008DF80100AD208DF88200DA208DF8830099
:103BD0001146842243460348FDF7A4FFADE70000E9
:103BE00000100140B00200200020004000380040DA
:103BF000003C0040003401400050014000040240FD
:103C00003C4241554433383430303E0000000020FF
:103C10003C434F4D424155443E0000003C4241551B
:103C20004431393230303E0000080240F0040020B8
:103C30004AD8124DFB211940000000000000E03F6F
:103C40000000000000E06F40F0060020A800002007
:103C5000000610160006101600000000000000000C
:103C60000102030406070809000000000102030422
:103C70004C5555555555A53F7751C1166CC156BF8A
:103C80009015CB19A001FA3EAD529C804F7E92BE9A
:103C9000C4B1B4BD9EEE213ED43888BEE9FAA8BDB9
:103CA00000004054FB21F93F3163621A61B4D03DFA
:103CB0000000601A61B4D03D7370032E8A19A33BD3
:103CC0000000002E8A19A33BC14920259A837B3925
:103CD00000000000000000006E83F9A22915444E88
:103CE000D15727FCC0DD34F5999562DB4190433C08
:103CF000AB6351FE61C5BBDE3A6E24B7E0D24D42E4
:103D0000EA2E49061C92D1091CEB1DFE3EA729B1E3
:103D1000F53582E88444BB2E26709CE9417E5FB471
:103D200039D69139F43953838B5F849C3B28F9BD94
:103D3000FF97F81F0F9805DE8B112FEF1F6D0A5AA2
:103D4000CF7E366DB709CB27663F464F2DEA5F9E83
:103D5000C7BA27757BF1E5EBF739073DEA92528A3E
:103D6000B15FFB6B085D8D1FA6F810111111813F2B
:103D7000D561C119A0012ABF7DFEB157E31DC73E21
:103D8000EB9C2B8AE6E55ABE7CD5CF5A3AD9E53D65
:103D9000B03D0008000000205000000088380008F6
:103DA000003E00085000002068100000983800080D
:103DB0000000000000000000000000000000000003
:103DC00000000000000000000000000000000000F3
:103DD00000000000000000000000000000000000E3
:103DE00000000000000000000000000001000000D2
:103DF00010000000000000000024F400000000009B
:04000005080001D915
:00000001FF
