:020000040800F2
:10000000C80D0020ED01000827230008FD1E000890
:10001000252300081D0300085F2D000800000000D4
:10002000000000000000000000000000672300083E
:10003000E5030008000000002923000869230008E8
:10004000070200080702000807020008070200086C
:10005000070200080702000807020008070200085C
:100060000702000807020008070200082103000831
:1000700007020008070200082D0300080702000815
:1000800007020008390300080702000807020008F9
:10009000070200080702000807020008070200081C
:1000A000070200087D2400086124000807020008F8
:1000B0000702000899240008A52400080702000888
:1000C00007020008070200080702000807020008EC
:1000D00007020008070200080702000807020008DC
:1000E00007020008070200080702000807020008CC
:1000F000070200080702000807020008450300087D
:1001000007020008070200080702000807020008AB
:10011000070200080702000807020008070200089B
:100120000702000807020008510300080702000840
:10013000070200080702000807020008070200087B
:10014000070200080702000807020008070200086B
:100150005D03000807020008070200080702000804
:10016000070200080702000807020008070200084B
:10017000070200080702000800000000000000005D
:10018000070200080702000807020008070200082B
:10019000070200080702000800000000070200082C
:1001A000070200080702000800000000000000002D
:1001B000070200080000000000000000070200081D
:1001C00007020008070200080702000807020008EB
:1001D0000702000807020008DFF80CD000F08CF8D6
:1001E00000480047A12D0008C80D002006488047A0
:1001F00006480047FEE7FEE7FEE7FEE7FEE7FEE70C
:10020000FEE7FEE7FEE7FEE70D240008D90100083F
:100210002DE9F05F0546002092469B46884606463B
:10022000814640241BE0284641464746224600F0CE
:1002300053F853465A46C01A914110D311461846F6
:10024000224600F03AF82D1A67EB01084F46224685
:100250000120002100F031F817EB00094E41201E6B
:10026000A4F10104DFDC484631462A464346BDE896
:10027000F09F40EA01039B0703D009E008C9121F61
:1002800008C0042AFAD203E011F8013B00F8013B50
:10029000521EF9D27047D2B201E000F8012B491E7C
:1002A000FBD270470022F6E710B513460A46044613
:1002B0001946FFF7F0FF204610BD202A04DB203A44
:1002C00000FA02F1002070479140C2F1200320FAA9
:1002D00003F3194390407047202A04DB203A21FAA7
:1002E00002F00021704721FA02F3D040C2F120024F
:1002F0009140084319467047064C074D06E0E068F8
:1003000040F0010394E8070098471034AC42F6D35C
:10031000FFF766FFA42E0008C42E0008FEE70000C9
:10032000014800F0C7B80000E4070020014800F0D1
:10033000C1B8000064090020014800F0BBB800000B
:10034000A4080020014800F0B5B80000040900200E
:10035000014800F0AFB8000084070020014800F019
:10036000A9B800004408002001681823CAB2103A56
:10037000B2FBF3F2054B6FF30901032A9B5CC365E3
:1003800000D9091D8165084670470000842E0008C9
:1003900010B5014600208B698A6A4FF0C07453B1D2
:1003A000B3F5005F15D072B1012A0CD0022A0AD031
:1003B000032A09D104E01AB1012A06D0022A03D186
:1003C000C96AC90100D5012010BDC96AA142FAD08D
:1003D00010BD002AF7D0012AF2D0022AF3D0032A56
:1003E000F3D010BD7047704770B54379012B1AD018
:1003F000012646710223037105682C6840F6FE73DE
:1004000093409C43D1E900310B43934023432B603D
:1004100001680B68C0249440A3430B60067100215F
:100420004171084670BD022070BD70B5040003D054
:100430002079002510B105E0012070BD65712046CE
:1004400000F008F8022020712561012020710020B1
:1004500070BD000010B586B0044614216846FFF751
:1004600021FF1149206888421CD1104800210268F0
:1004700042F000520260006800F0005005900B4806
:100480001038026842F001020260006800F00100CA
:100490000590102000900320CDE901016946044831
:1004A00000F054F906B010BD00740040403802401E
:1004B000000002402DE9F84304464FF00009CDF852
:1004C000009063484FF41651A56D0068B0FBF1F73A
:1004D0002E6894F85C10082000FA01F131420FD028
:1004E00021680A6852070BD50A6822F004020A60E4
:1004F00094F85C108840A860606D40F00100606571
:1005000094F85C104FF0010808FA01F0304208D06E
:1005100021684969090604D5A860606D40F00200B1
:10052000606594F85C1004208840304208D021684F
:100530000968890704D5A860606D40F00400606513
:1005400094F85C1010208840304218D02168096867
:10055000090714D5A86020680168490304D500681C
:10056000000308D5A16C07E00168C90503D4016840
:1005700021F008010160216C09B12046884794F8F8
:100580005C1020208840304231D021680968C906BB
:100590002DD5A86094F8350005282068016806D09C
:1005A000490347D5006800031DD4616C1CE021F0AD
:1005B000160101602068416921F080014161206CD1
:1005C00008B9A06C20B12068016821F00801016021
:1005D00094F85C103F208840A86084F8349084F838
:1005E0003580216D1FE0E16B09B120468847606DC1
:1005F00000282BD0606DC00714D0052084F835008A
:100600002068016821F0010101600098401C009001
:10061000B84203D820680068C007F6D184F8349047
:1006200084F83580E16C002910D001B02046BDE887
:10063000F04308470168C905D5D4016821F01001CD
:10064000016084F8349084F83580CCE7BDE8F88305
:100650000C0000202DE9F041044600F04FF9064659
:100660005CB1002584F83450022084F835002068FD
:10067000016821F0010101600DE00120BDE8F08179
:1006800000F03CF9801B052805D920206065032077
:1006900084F83500F2E720680068C007F0D12268CE
:1006A000116820480140D4E901031843D4E9033616
:1006B0003343184363691843A3691843E369184334
:1006C000236A18430843616A042903D1D4E90B1350
:1006D00019430843106020684069666A20F00701EA
:1006E00030460E43012704280CD1A06A0643E06A75
:1006F00040B12046FFF74CFE20B14020606584F8F1
:100700003570BAE7206846612046FFF72DFE94F861
:100710005C203F2191408160656584F83570002040
:10072000ACE700003F8010E070B5044600F0E6F84A
:100730000546601C02D004480078044400F0DEF84E
:10074000401BA042FAD370BD000000202DE9F84FF5
:10075000DFF874B100224FF001084FF0030A4FF0A8
:100760000F090BF1040E00BF0B6808FA02F42340D6
:10077000A3426ED14D68022D01D0122D0ED1D508A5
:1007800000EB850CDCF820505607F70E09FA07F647
:10079000B5430E69BE402E43CCF820600668550074
:1007A0000F790AFA05FC07F0030726EA0C06AF40AA
:1007B000374307604E68012E05D0022E03D0112E5C
:1007C00001D0122E0ED18668CF6826EA0C06AF4003
:1007D000374387604668A6430C79C4F300149440FD
:1007E00034434460C4688E6824EA0C04AE40264357
:1007F000C6604C68E40060D5344C256845F48045FB
:100800002560246822F0030504F480440094304CF1
:100810002E19D6F8084895072F0F09FA07F5AC43AB
:100820002C4DA84201D100251FE02B4DA84201D13B
:1008300001251AE0294DA84201D1022515E0284DD5
:10084000A84201D1032510E0264DA84202D104257B
:100850000BE032E0244DA84201D1052505E0234DEF
:10086000A84201D1062500E00725BD402543C6F872
:100870000858DBF800405D464E689C43F60300D5FF
:100880001C432C60DEF8004075464E689C43B6035E
:1008900000D51C432C600C4D08352C684E689C43D9
:1008A000F60200D51C432C60074D0C352C684E68B1
:1008B0009C43B60200D51C432C60521C102AFFF446
:1008C00053AFBDE8F88F0000003C014044380240BF
:1008D00000300140000002400004024000080240D5
:1008E000000C0240001002400014024000180240B8
:1008F0000AB1816170470904FBE700000148806884
:10090000704700000000002002488168027811440E
:100910008160704700000020094810B5016841F46B
:1009200000710160016841F480610160032000F002
:100930006FF8002000F006F800F024F8002010BD49
:10094000003C024070B50D4D04464FF47A71287892
:10095000B1FBF0F00A490968B1FBF0F000F022FFAA
:1009600048B9102C07D200222146501E00F030F862
:1009700000206C6070BD012070BD000000000020F0
:100980000C0000200A4808B5016841F4804101606C
:10099000006800F4804000900548001F016841F0A5
:1009A00080510160006800F08050009008BD000098
:1009B00044380240002809DB00F01F020121914069
:1009C0004009800000F1E020C0F8001170470000ED
:1009D000F0B40E4B1B680C46C3F30223C3F10705AA
:1009E000042D00D90425191D072901D2002300E098
:1009F000DB1E012606FA05F1491E214099409E4062
:100A0000761E16403143F0BC02F0AAB90CED00E0AE
:100A1000064900F0070208684FF6FF03184040EA55
:100A20000220034A10430860704700000CED00E00C
:100A30000000FA0501220168C0F8FC23002280F8BA
:100A4000F423886940F000608861486D024A1043D1
:100A50004865002070470000030000102DE9F041B8
:100A60008AB0040005D094F8BD032668002520B1A3
:100A700008E001200AB0BDE8F08184F8BC532046AC
:100A800000F064F8032084F8BD03F06BC00500D4C7
:100A90002561206802F024F904F11001282288461B
:100AA0006846FFF7E6FB94E80F0001F0F5FF022629
:100AB000C8BB0021206802F03BF9002001270EE0AE
:100AC000C0EBC00104EB810181F83D7001F83C0FDF
:100AD000C880CD708D60CD60401CC0B24D61616832
:100AE0008142EDD8002011E0C0EBC00104EB810190
:100AF00081F8FD5181F8FC0181F8FF51C1F80452E1
:100B0000C1F80852401CC0B2C1F81052616881425D
:100B1000EAD8282241466846FFF7ABFB94E80F006D
:100B200002F01CF810B184F8BD63A2E784F83850D5
:100B300084F8BD73606A012802D12046FFF77AFF6E
:100B4000206801F0FFFF002094E7000010B586B098
:100B5000044614216846FFF7A5FB2068B0F1A04FBA
:100B600027D115480021026842F0010202600068A6
:100B700000F0010005904FF4C05000900220CDE934
:100B80000101032003900A20049069460B48FFF7F7
:100B9000DDFD0948001D016841F080010160064843
:100BA0001430016841F480410160006800F4804025
:100BB000059006B010BD0000303802400000024031
:100BC0002DE9F84F044600780027C34DC00708D030
:100BD0002868E16920F0C06008432860E06900B936
:100BE00001272078800708D52868216A20F0C050A6
:100BF00008432860206A00B90127208881046FF02B
:100C0000FF0015D52968A26C21F440111143296019
:100C1000A16C19B1B1F5001F02D009E0012707E06E
:100C20002968626921F4F85100EB0222114329601E
:100C30002188490415D52968E26C21F4400111434B
:100C40002960E16C19B1B1F5000F02D009E001276C
:100C500007E02968626921F4F85100EB02200143A2
:100C6000296020784FF00009000755D59A484C3884
:100C7000016841F0805101600068DFF8608200F097
:100C800080500090D8F8001041F48071C8F800102E
:100C9000FFF734FE064604E0FFF730FE801B022813
:100CA0006FD8D8F80000C005F6D58B4E1C3E3068D2
:100CB00010F440701FD0A18C01F4407181421AD011
:100CC0003068012220F4407185480260C0F800902D
:100CD00031603068C0070ED0FFF710FE804641F249
:100CE000883A05E0FFF70AFEA0EB0801514548D815
:100CF00030688007F6D5616A7748C1F301228438ED
:100D0000032A36D0016821F4F81101603068A18C03
:100D1000C1F30B01084330602078DFF8C8A1400719
:100D200003D594F85410CAF8E01120786E4EC0062E
:100D300005D53068E16A20F440000843306020782F
:100D40004FF00068800609D53068216B20F0006004
:100D500008433060206B404500D1012720784006D1
:100D600005D53068A16A20F080500843306067B92B
:100D700008E002685D4B22F4F81219400A43026051
:100D8000C4E773E02068802877D1DFF864B1CBF83E
:100D90006890FFF7B3FD504F81468C3F06E000BFDF
:100DA000FFF7ACFDA0EB090002285FD8386800010E
:100DB000F6D4216DCAF8D81020684E49C20701D078
:100DC000E2697AB1820701D5226A5AB1820602D558
:100DD000226B424506D040060FD5A06A68B9206B49
:100DE00040450AD1D4E9010240EA8210227B237CEB
:100DF000120642EA0372104308602068820401D59B
:100E0000A26C1AB1400415D5E06C98B90868D4E911
:100E1000012342EA8312C0F30360237C000640EA08
:100E2000037002430A602868A26920F01F00521E66
:100E300010432860207800060AD5D4E9010240EA70
:100E40008210227B237C120642EA03721043086060
:100E50000120CBF86800FFF751FD80460AE000BF93
:100E6000FFF74CFDA0EB0800022803D90320BDE8E2
:100E7000F88F02E038680001F2D52088C00505D55A
:100E80002868616B20F000400843286020888005B6
:100E900005D52868A16B20F400400843286020880D
:100EA000400505D52868E16B20F000400843286024
:100EB0002088000505D52868216C20F4804008436F
:100EC00028602088C00405D53068616C20F040405F
:100ED000084330600020CAE78C38024000700040B0
:100EE000400E47420010474294380240FFFCFF0F7B
:100EF00000004742843802402DE9F0470E460500C5
:100F000065D0DFF81481D8F80000F7B200F00F00C8
:100F1000B04207D288F80070D8F8000000F00F0047
:100F2000B04254D128683D4C810712D5400703D503
:100F3000206840F4E05020602878000703D520683E
:100F400040F4604020602068A96820F0F000084369
:100F500020602878C0072DD03049686808390128FA
:100F600012D0022813D0032811D00968890700295C
:100F70002DDA216821F0030101432160FFF7BEFC57
:100F8000814641F2883A0EE009688903EFE7096873
:100F90008901ECE7FFF7B2FCA0EB0901514502D94A
:100FA0000320BDE8F0872068696800F00C00B0EB12
:100FB000810FEFD1D8F80010404601F00F01B14287
:100FC00007D90770006800F00F00B04201D001207F
:100FD000E7E72878400705D52068E96820F4E05065
:100FE000084320602878000706D52068296920F486
:100FF000604040EAC100206000F036F82168084AED
:10100000C1F30311515CC840064908600020FFF796
:1010100099FC0020C5E70000003C0240083802406F
:101020008C2E00080C00002004480549006809685F
:10103000044AC1F38221515CC84070470C00002073
:10104000083802409C2E00080448054900680968D9
:10105000044AC1F34231515CC84070470C00002083
:10106000083802409C2E0008154810B5006810F0A2
:101070000C02144813D01449042A0FD0082A0ED1A8
:101080000F4C241F2268236802F03F025B0207D541
:101090002068C0F38810A0FB010106E0084610BDDF
:1010A0002168C1F38811A1FB00010023FFF7B0F80C
:1010B0002168C1F30141491C4900B0FBF1F010BDAA
:1010C000083802400024F40000366E012DE9F84F84
:1010D00005460078DFF800B3C04CC0074AD0DBF803
:1010E00000105846C1F38101012908D00068C0F3FF
:1010F000810002280AD1201D0068400206D5206820
:10110000800337D56868002872D033E06868B0F58E
:10111000803F10D0B0F5A02F206810D020F4803090
:101120002060206820F4802020606868A8B1FFF764
:10113000E5FB06460DE0206840F48030F4E740F41B
:1011400080202060F7E700BFFFF7D8FB801B6428F2
:101150006FD820688003F7D50CE0FFF7CFFB064679
:1011600005E000BFFFF7CAFB801B6428F0D82068A9
:101170008003F7D42878DFF8688280074FF00009F1
:1011800040D5DBF80010584611F00C0F09D000686C
:10119000C0F3810002280BD18F48001F0068400275
:1011A00006D42068800715D5E868012820D111E011
:1011B000E868B8B10120C8F80000FFF79FFB0646B9
:1011C00005E000BFFFF79AFB801B0228C0D820680B
:1011D0008007F7D52068296920F0F80040EAC100AF
:1011E00020600FE0C8F80090FFF788FB064606E095
:1011F000EFE000BFFFF782FB801B022819D82068B0
:101200008007F7D42878000722D5734E754869699E
:101210006C3679B101210160FFF770FB074604E0ED
:10122000FFF76CFBC01B022803D830688007F7D596
:101230000EE089E0C0F80090FFF760FB074604E08D
:10124000FFF75CFBC01B02287ED830688007F7D40C
:101250002878400768D5DFF880A100270AF1380A0E
:10126000DAF80000C0000BD4DAF8001041F0805129
:10127000CAF80010DAF80000012700F08050009052
:10128000594E3068C00510D4306840F4807030602A
:10129000FFF734FB009005E0FFF730FB0099401AA0
:1012A000022851D83068C005F6D54B4EA86868367C
:1012B00001280FD00528306810D020F001003060E0
:1012C000306820F004003060A868B8B1FFF716FB62
:1012D00000900FE0306840F00100F4E740F00400B7
:1012E0003060F7E7FFF70AFB0099411A41F28830B6
:1012F000814266D830688007F4D50EE0FFF7FEFA29
:10130000009007E0FFF7FAFA0099411A41F288309D
:10131000814256D830688007F4D42FB1DAF8001033
:1013200021F08051CAF80010A869D0B3DBF8001092
:10133000C1F3810102294CD00228484607D0C8F8E1
:101340006000FFF7DBFA00E03BE005463CE0474683
:10135000C8F86000FFF7D2FA064604E0FFF7CEFABD
:10136000801B02282DD820688001F7D4F5E90701F9
:101370000843E9681D4A490802EB0141AA6841EAAD
:1013800082110843297C40EA0160297D40EA01710D
:101390001148001F016001203866FFF7AFFA0546CB
:1013A00005E014E0FFF7AAFA401B022809D82068DC
:1013B0008001F7D50BE000BFFFF7A0FA401B022821
:1013C00002D90320BDE8F88F20688001F4D4002002
:1013D000F8E70120F6E70000083802400038024034
:1013E00000004742800E4742007000400000FFFFAF
:1013F00070B5040002D0607F10B106E0012070BD1E
:1014000000202077204600F049F80220607721680C
:10141000CA204862216853204862204600F086FFB7
:10142000FF25042618BB206881681B4A1140816093
:101430002168886862681043D4E904231A43104382
:1014400088602168E068086120680169228941EAB2
:10145000024101612068C16821F08001C1602068FB
:101460008068800607D4204600F024F818B1206870
:1014700045626677C2E72068016C21F4802101642F
:101480002068016CA2691143016420684562012053
:101490006077002070BD0000BFFF8FFF0068034928
:1014A000884202D1024901200860704700280040AC
:1014B0003C0E474270B504460068C16821F0A001A7
:1014C000C160FFF71BFA05464FF47A7607E000BFCC
:1014D000FFF714FA401BB04201D9032070BD206809
:1014E000C0688006F4D5002070BD70B5040005D03A
:1014F0000025A56294F8510010B106E0012070BDEE
:1015000084F85050204600F031F8022084F8510051
:101510002068016821F040010160D4E9010108431D
:10152000D4E903121143084361690843218B01F494
:1015300000710843E1690843216A0843A16A08432E
:1015400021680860A069042101EA1040616A08432B
:10155000216848602068C16921F40061C161656546
:10156000012084F85100002070BD00002DE9F04FEB
:1015700087B0064614216846FEF794FE7E487D4BF0
:10158000326800247C4914380225DFF8F0B14FF0AE
:1015900003084FF005099A4241D10A6842F480528B
:1015A0000A60096801F480510591016841F0010168
:1015B0000160006802AA00F001000590A020CDE9BA
:1015C000000582E8100369465846FFF7BFF802AAF3
:1015D000012082E801034027CDE90075694658469D
:1015E000FFF7B4F8674D664828603805C5E901077C
:1015F0000014C5E903400001C5E905404FF440303F
:10160000C5E9074004206862C5E90A8428462C63BE
:10161000FFF720F808B1FEF7E6FEB5645EE05A4B2E
:10162000DFF854C1DFF864A1ACF1040C9A421CD17C
:10163000DCF8002042F48042CCF80020DCF80010F6
:1016400001F480410591016841F0020101600068E8
:1016500002AA00F0020005904FF40440CDE9000515
:1016600082E810036946504664E0494B06279A42D7
:1016700038D1DCF8002042F40042CCF80020DCF83D
:10168000001001F400410591016841F00201016080
:10169000006802AA00F0020005903820CDE900059C
:1016A00082E8B00069465046FFF750F83A4D394895
:1016B000C5E900040015AC60C5E90340400068615D
:1016C0008000A8614011E8614002C5E9080428468D
:1016D000FEF7C0FF08B1FEF786FEF564AE6307B003
:1016E000BDE8F08F2D4B9A4227D10A6842F4005290
:1016F0000A60096801F400510591016841F0010197
:101700000160016801F001010591016841F00201E9
:1017100001600068009500F00200CDE90490CDF86A
:101720000C80CDE9015469465846FFF70FF84FF495
:10173000005017E0FFF70AF8D1E7194B9A42CED1D3
:101740000A6842F480120A60096801F48011059168
:10175000016841F002010160006800F0020005909C
:1017600040F20110CDE90005CDE902486946049731
:101770005046DFE70030014044380240000002409C
:10178000406402408407002000380040000402400A
:10179000003C004010600240E4070020003401409B
:1017A0000050014010B5401EB0F1807F01D30120F0
:1017B00010BD4FF0E02460610F21601701F0D0FAF6
:1017C0000020A06107202061002010BD70477047F5
:1017D00070B590F83C20012A19D0012400F83C4F44
:1017E0000222427050F83C3C5A689D6822F0700614
:1017F0000A684968324325F0800529435A6050F849
:101800003C2C9160447000210170084670BD02209C
:1018100070BD10B5040003D094F83D0010B107E08E
:10182000012010BD002084F83C00204600F00CF898
:10183000022084F83D00211D206800F039FE0120BF
:1018400084F83D00002010BD2DE9F84F04464027E4
:10185000D0F800C06C4E38026C4B002502114FF4DA
:1018600040314FF0040AB44528D11E6846F0010605
:101870001E601B68674E03F001030093644B3360E6
:10188000C6E90352C6E90550C6E90751C6E909A5EC
:10189000F5628B023563C6E901373046FEF7DAFEA2
:1018A00008B1FEF7A0FD2662002202211920B463D0
:1018B000FFF78EF81920FFF77DF898E0534EDFF818
:1018C0005881361FC4450ED1306840F002003060A8
:1018D0003068002200F00200009011461D20FFF742
:1018E00077F81D2089E0DFF83481C44562D1336880
:1018F00043F00403336033684A4E03F0040300935B
:10190000474B9146DA148346D010C6E906B04FF42F
:101910004030C6E9080AC6E902750120C6E90A0591
:101920003563C6E904924FF08068C6E90038304656
:10193000FEF790FE08B1FEF756FD2662B4633A4EFC
:101940003748C6E902751830C6E90008C714801583
:10195000C6E906B04FF44030C6E9080A0120C6E9DE
:101960000A053563C6E904973046FEF773FE08B1F1
:10197000FEF739FDE662B46329482C4E48383060E2
:10198000C6E901857761C6E903594FF40050C6E9FD
:101990000605356230467562FEF75CFE08B1FEF75B
:1019A00022FDA662002201211E20B463FFF710F879
:1019B0001E2022E01E4884450ED1186840F40030F5
:1019C00018601868002200F40030009002211920ED
:1019D000FEF7FEFF192010E01648844511D1186863
:1019E00040F480201860186800F4802000900022E5
:1019F00003211A20FEF7ECFF1A20BDE8F84FFEF78E
:101A0000D9BFBDE8F88F0000000001404438024013
:101A100088640240440800200004004000080040A0
:101A2000A0600240A40800200409002064090020EE
:101A3000004401400048014070B5044690F83C0065
:101A4000012817D0012584F83C50022084F83D007D
:101A50002068826822F0770222F47F428260086860
:101A6000502830D00DDC20284DD005DC98B310284C
:101A70003BD148E0022070BD302844D0402834D10A
:101A800039E0602828D0702806D0B0F5805F2CD0CF
:101A9000B0F5005F29D10AE0CB68D1E901212068C7
:101AA00000F06AFD2068816841F0770109E0CB68A9
:101AB000D1E90121206800F05FFD2068816841F4D0
:101AC0008041816011E0CA684968206800F06BFEBF
:101AD0005021206807E016E0CA684968206800F0D5
:101AE00073FE6021206800F051FD84F83D50002015
:101AF00084F83C0070BDCA684968206800F053FE55
:101B000040212068EFE7226801461046EBE7704766
:101B100070B50446006801694FF00005C9438907A4
:101B200015D4C168C943890711D4E91E0161012098
:101B30002077206880698007204602D0FFF7E7FF02
:101B400004E000F0C1F8204600F043F92577206852
:101B50000169C943490717D4C168C943490713D468
:101B60006FF004010161022020772068806910F481
:101B7000407F204602D0FFF7CAFF04E000F0A4F83F
:101B8000204600F026F9257720680169C943090736
:101B900016D4C168C943090712D46FF00801016166
:101BA000042020772068C0698007204602D0FFF714
:101BB000AEFF04E000F088F8204600F00AF925772F
:101BC00020680169C943C90617D4C168C943C90659
:101BD00013D46FF010010161082020772068C069DC
:101BE00010F4407F204602D0FFF791FF04E000F0A0
:101BF0006BF8204600F0EDF8257720680169C943AD
:101C0000C90708D1C168C943C90704D1891E016148
:101C1000204600F0DFF820680169C943090609D4AD
:101C2000C168C943090605D46FF0800101612046EF
:101C3000FFF7CCFD20680169C943490609D4C16892
:101C4000C943490605D46FF040010161204600F008
:101C5000EDF820680169C94389060BD4C168C943FE
:101C6000890607D46FF0200101612046BDE870406D
:101C7000FFF7ADBD70BD000010B586B0044614215D
:101C80006846FEF70FFB0D492068884214D10C48C6
:101C90000021026842F002020260006800F00200C7
:101CA0000590402000900220CDE9010103900490AE
:101CB00069460448FEF74AFD06B010BD0008004022
:101CC0003038024000040240704770B5044690F876
:101CD0003C000D4601280DD0012684F83C6002200E
:101CE00084F83D0042B1042A18D0082A2AD00C2AD0
:101CF0004DD139E0022070BD206800F04FFC206813
:101D0000816941F0080181612068816921F0040145
:101D10008161206881692A69114311E0206800F01F
:101D20006DFC2068816941F40061816120688169EE
:101D300021F480618161206881692A6941EA022178
:101D4000816124E0206800F08FFC2068C16941F0C7
:101D50000801C1612068C16921F00401C1612068E6
:101D6000C1692A69114311E0206800F0B1FC2068C4
:101D7000C16941F40061C1612068C16921F48061D9
:101D8000C1612068C1692A6941EA0221C16184F800
:101D90003D60002084F83C0070BD10B5040003D005
:101DA00094F83D0010B107E0012010BD002084F838
:101DB0003C00204600F00CF8022084F83D00211D74
:101DC000206800F075FB012084F83D00002010BD64
:101DD00070477047704770B5044690F83C00012882
:101DE00012D0012584F83C50022084F83D002046A2
:101DF00000F096FC01004FF0000007D084F83D5041
:101E000084F83C00012070BD022070BD2168CA68C2
:101E100022F04002CA602168CA6822F48042CA6087
:101E200084F83D5084F83C00002070BD704770B5C8
:101E3000040004D094F83900002510B106E0012018
:101E400070BD84F83850204600F022F8242084F831
:101E500039002068C16821F40051C160204600F0BB
:101E6000C5FC2068016921F4904101612068416945
:101E700021F02A0141612068C16841F40051C1602C
:101E8000E563202084F8390084F83A00002070BD12
:101E900010B586B0044614216846FEF703FA1449CB
:101EA0002068884221D11348016841F01001016087
:101EB000006800F0100005900E481438016841F0E9
:101EC000010101600068694600F0010005904FF4CF
:101ED000C060009002200190012002900320039036
:101EE000072004900448FEF731FC06B010BD000046
:101EF000001001404438024000000240FEE70000AC
:101F0000214808B5016841F480010160016801F4CD
:101F100080010091016841F4001101600068002215
:101F200000F40010009004210B20FEF751FD0B205F
:101F3000FEF740FD002211460E20FEF749FD0E205F
:101F4000FEF738FD002206211120FEF741FD112089
:101F5000FEF730FD002211462F20FEF739FD2F201D
:101F6000FEF728FD002202213A20FEF731FD3A203B
:101F7000FEF720FD002206214420FEF729FDBDE8E2
:101F800008404420FEF716BD303802402DE9F043EA
:101F900087B014216846FEF785F9314800240168AE
:101FA00041F004010160016801F00401059101683C
:101FB00041F080010160016801F080010591016834
:101FC00041F001010160016801F001010591016822
:101FD00041F0020101600068224F00F002004FF45E
:101FE00060450590002229463846FEF781FCDFF85F
:101FF000789000224FF482714846FEF779FCDFF8B2
:102000006C804FF4A046002231464046FEF770FC3B
:1020100000950125CDE90154694638460394FEF741
:1020200095FB0420CDE900050320CDE90250694667
:102030004846FEF78BFB0096CDE9015469464046C1
:102040000394FEF783FB28020090CDE90154694612
:1020500048460394FEF77AFB07B0BDE8F083000022
:1020600030380240000802400000024000040240F4
:102070000B480A494FF4007201604FF482714160CD
:1020800000218160C1600161C0E90512C161016286
:10209000416281620A21C162FFF727BA0030014024
:1020A000440000200A4809494FF480620160002181
:1020B000C0E90112C16052100161C0E9051201625C
:1020C000416281620A21C162FFF70FBA0038004005
:1020D0009C0000200C480B494FF4006201604FF453
:1020E000827141600021C0E9021292100161C0E9D1
:1020F0000512C1610162416281620A21C162FFF77A
:10210000F4B90000003C0040F40000200A480949EE
:102110004FF4806201600021C0E90112C1605210D9
:102120000161C0E905120162416281620A21C16256
:10213000FFF7DBB9003401404C0100200A4809498F
:102140004FF4806201600021C0E90112C1605210A9
:102150000161C0E905120162416281620A21C16226
:10216000FFF7C3B900500140A401002010B58CB0A6
:102170000024059406940794142168460894FEF7F9
:1021800091F81448099412490A94C0E900141421E2
:10219000C0E90241046144618461FFF73AFB4FF4F6
:1021A0008050059005A90B48FFF746FC0520202428
:1021B000CDE9000469460748FFF70DFE8020CDE910
:1021C000094009A90348FFF703FB0CB010BD00004C
:1021D00000000140FC01002010B58EB000240794DF
:1021E000089409940A940B941C2168460C94FEF7F9
:1021F00059F81848164901604FF4FA61C0E9011412
:1022000041F2BF21C0E903148461FFF702FB4FF4E0
:102210008050079007A90F48FFF70EFC0D48FFF705
:10222000BCFD40200B9080200C900BA90948FFF7C3
:10223000CFFA702000904FF47A70CDE901040022AB
:10224000694604480494FFF740FD0EB010BD00003D
:10225000000400403C02002030B58DB000240794FB
:10226000089409940A940B941C2168460C94FEF778
:1022700019F820481E49C0E900149521C0E902411F
:1022800004618461FFF7C5FA4FF48050079007A9F5
:102290001848FFF7D1FB1748FFF77FFD5025802036
:1022A000CDE90B500BA91348FFF792FA602000907C
:1022B0001220CDE90104002269460E480494FFF77C
:1022C00004FD7020CDE90005022002900422694639
:1022D0000848FFF7FAFC08200246019069460548C5
:1022E000FFF7F3FC0348FFF7C7FC0DB030BD00005B
:1022F000000800407C02002009484FF0A041022263
:102300000160062141600021C0E90321C0E90621E6
:10231000016241628162C1620163FEF79FBB0000FE
:102320007C030020FEE770477047000070B504464C
:102330000068C168490614D44FF0FF31C160FEF750
:10234000DDFA05464FF47A7607E000BFFEF7D6FACD
:10235000401BB04201D9032070BD2068C068400610
:10236000F4D5002070BD7047FEF7CEBA30B5A9B0E5
:10237000342116A8FDF796FF142123A8FDF792FF3C
:1023800058216846FDF78EFF1E480025016841F080
:1023900080510160006800F0805028901A48016860
:1023A00041F4404101600068022400F4404028905C
:1023B000092016904FF4803017900120CDE91B04BE
:1023C00080051D9018201E90C020CDE91F04042018
:1023D000CDE9210416A8FEF779FE23A90F2081E894
:1023E0003100E002CDE92605032123A8FEF784FD94
:1023F00028200090200209900C956846FEF7E0FB2B
:1024000029B030BD403802400070004010480168DB
:1024100041F4700101600F48016841F00101016061
:102420000C4A00210832116002680B4B1A4002600E
:10243000031D0A4A1A60026822F4802202600548DD
:102440000C3001600249580680390860704700006E
:1024500088ED00E000380240FFFFF6FE1030002457
:1024600010B50448FFF754FBBDE810400248FFF7E1
:102470004FBB0000FC010020FC02002010B5044806
:10248000FFF746FBBDE810400248FFF741BB0000E4
:10249000FC010020BC0200200148FFF739BB00000E
:1024A0003C0200200148FFF733BB00007C02002003
:1024B000F0B50268254C264D264E274F274B4FF08E
:1024C000804CA04209D0604507D0A84205D0B04258
:1024D00003D0B84201D0984204D122F0700E4A686D
:1024E00042EA0E02A0421BD0604519D0A84217D084
:1024F000B04215D0B84213D0984211D0184DA8421E
:102500000ED0184DA8420BD0174DA84208D0174D39
:10251000A84205D0164DA84202D0164DA84203D1BC
:1025200022F44075CA682A434D6922F080022A438A
:1025300002608A68C2620A688262A04201D0984240
:1025400001D10969016301214161F0BD0000014031
:102550000004004000080040000C0040000401405E
:102560000040014000440140004801400018004084
:10257000001C00400020004010B5846842EA03229D
:1025800024F47F440A432243826010BD826822F013
:1025900070020A4342F0070181607047F0B5026A99
:1025A00022F001020262036A42688469124E24F03A
:1025B00073050C682C4323F002058B682B430D4DEB
:1025C000A84201D0B04205D123F00807CB683B43B5
:1025D00023F00403A84201D0B04205D14D6922F492
:1025E000407215438A692A434260846149684163A5
:1025F0000362F0BD0000014000040140F0B5026A32
:1026000022F010020262026A436884690D6824F4B1
:10261000E64444EA05248D6822F0200242EA0512CD
:102620000F4D104EA84201D0B04206D1CF6822F023
:10263000800242EA071222F04002A84201D0B042D2
:1026400007D14D6923F4406343EA85038D6943EA6A
:10265000850343608461496881630262F0BD0000C4
:102660000000014000040140F0B5026A22F48072CB
:102670000262026A4368C46922F4007224F073059E
:102680000C68124E2C438D6842EA05220E4DA8427A
:1026900001D0B04206D1CF6822F4006242EA07229C
:1026A00022F48062A84201D0B04207D14D6923F4E0
:1026B000405343EA05138D6943EA05134360C4613F
:1026C0004968C1630262F0BD00000140000401409E
:1026D00030B5026A22F480520262046A4268C36919
:1026E0000D6823F4E64343EA05238D6824F400547F
:1026F00044EA0534084DA84202D0084DA84204D14E
:102700004D6922F4804242EA85124260C361496801
:102710000164046230BD000000000140000401407B
:1027200010B503689A6822F070044A68224322F0C8
:1027300007040A6822439A604A6812F00F0F30D1EA
:102740001211082A2DD2DFE802F02C2C2C2C0B21A0
:1027500027040B69D1E902210068FFF70DFF20E093
:102760000A68052A10D00268136A146A24F001046A
:10277000146202689469096924F0F00444EA0111C2
:102780009161006803620CE0012010BD0A6989684C
:10279000006800F008F804E00A698968006800F041
:1027A00013F8002010BD10B5036A046A24F0010478
:1027B0000462846924F0F00444EA021423F00A025B
:1027C0000A438461026210BD10B5036A23F010034E
:1027D00003628369046A23F4704343EA023224F0FB
:1027E000A00343EA01118261016210BD2DE9F041AD
:1027F000044600680169E26821F440511143016117
:102800002169A068E26908436169114322680843AD
:10281000D16849F20C6399430143D1602068416952
:10282000A26921F4407111434161E2696425B2F566
:10283000004F9748974922684FF032083FD08A42AC
:1028400001D082427CD1FEF7FFFB00EBC00101EB1F
:10285000001061688900B0FBF1F6FEF7F5FB00EBB4
:10286000C00101EB001061688900B0FBF1F0B0FB22
:10287000F5F06FF01801484306EB800108EB0110FA
:10288000B0FBF5F000F0F006FEF7DEFB00EBC00158
:1028900001EB001061688900B0FBF1F0B0FBF5F0CE
:1028A00006EB0016FEF7D0FB00EBC00101EB0010B9
:1028B00061688900B0FBF1F7FEF7C6FBD2E08A42FF
:1028C00001D082423DD1FEF7BFFB00EBC00101EB1E
:1028D000001061684900B0FBF1F0B0FBF5F00601B3
:1028E000FEF7B2FB00EBC00101EB0010616849008C
:1028F000B0FBF1F7FEF7A8FB00EBC00101EB001005
:1029000061684900B0FBF1F0B0FBF5F06FF0180121
:10291000484307EB800108EBC100B0FBF5F000F085
:10292000F80006EB4006FEF78FFB00EBC00101EB61
:10293000001061684900B0FBF1F7FEF785FB3CE051
:1029400055E0FEF771FB00EBC00101EB0010616880
:102950004900B0FBF1F0B0FBF5F00601FEF764FBB7
:1029600000EBC00101EB001061684900B0FBF1F71A
:10297000FEF75AFB00EBC00101EB00106168490053
:10298000B0FBF1F0B0FBF5F06FF01801484307EB36
:10299000800108EBC100B0FBF5F000F0F80006EB99
:1029A0004006FEF741FB00EBC00101EB001061683F
:1029B0004900B0FBF1F7FEF737FB00EBC00101EB7C
:1029C000001061684900B0FBF1F0B0FBF5F06FF06A
:1029D0001801484307EB800108EBC100B0FBF5F09C
:1029E00000F00700216830448860BDE8F081FEF700
:1029F0001BFB00EBC00101EB001061688900B0FB1C
:102A0000F1F6FEF711FB00EBC00101EB001061686D
:102A10008900B0FBF1F0B0FBF5F06FF0180148430E
:102A200006EB800108EB0110B0FBF5F000F0F006BA
:102A3000FEF7FAFA00EBC00101EB001061688900B3
:102A4000B0FBF1F0B0FBF5F006EB0016FEF7ECFA88
:102A500000EBC00101EB001061688900B0FBF1F7E9
:102A6000FEF7E2FA00EBC00101EB0010616889009B
:102A7000B0FBF1F0B0FBF5F06FF01801484307EB45
:102A8000800108EB0110B0FBF5F000F00F00A9E7A2
:102A9000001401400010014070B5044606990A9EDA
:102AA000049D0D98012916D0E06840F04000E060D8
:102AB000204600F02BF8A16B1EB321F48031A163F6
:102AC000012D07D1A16841F00601A160A16841F084
:102AD0002001A16070BDA16B21F48031A163E16888
:102AE000094A1140E160E16821F44011E1600128E8
:102AF00003D1E06840F48010E060204600F006F862
:102B0000DEE741F48031DAE7BFFFBDFF01220C4967
:102B100002E0521C8A420BD80369002BF9DA0269E1
:102B200042F001020261012204E0521C8A4201D9F2
:102B3000032070470369DB07F7D1002070470000CE
:102B4000400D030010B5D0F8041841F00201C0F8A0
:102B500004180320FDF7E8FD002010BD2DE9F04F1B
:102B60000025DDE90BCB0E460446DDF84090099FB9
:102B70002846294604EB8002C2F80411401C0F28A5
:102B8000F8D3A06BB9F1000F13D040F40012A26388
:102B900008468846C4F8000ED4F800182046C4F849
:102BA0000018BCF1010F10D0D0F8001841F003015B
:102BB00010E020F40012A263206840F0400222607E
:102BC000206840F080022260E2E7D0F800180BB1E4
:102BD00041F00101C0F80018102100F097F800B191
:102BE0000125204600F082F800B101254046C4F8D6
:102BF0001088C4F81488C4F81C8800214FF00063C2
:102C00004FF090484FF67F3A15E000BF04EB4112B9
:102C1000D2F800C9BCF1000F06DA11B1C2F8008980
:102C200004E0C4F8003901E0C2F80009C2F8100954
:102C3000C2F808A9491C8E42E8D8002115E000BF5F
:102C400004EB4112D2F800CBBCF1000F06DA11B14F
:102C5000C2F8008B04E0C4F8003B01E0C2F8000BAE
:102C6000C2F8100BC2F808AB491C8E42E8D8D4F861
:102C7000101821F480722146C4F81028012F08D1C1
:102C8000134AC1F83028D1F83018124A1143C4F859
:102C90003018A0616FF0804060611FB9A06940F0FA
:102CA0001000A061A0690C490843A061BBF1000FAE
:102CB00003D0A06940F00800A061B9F1010F03D171
:102CC000A06906490843A0612846BDE8F08F0000CE
:102CD000000180000300010000383C800400004037
:102CE000816821F0010181600020704700211022DD
:102CF0000261054A491C914201D9032070470369CA
:102D0000DB06F7D400207047400D0300002220238B
:102D100043EA811101610549521C8A4201D903200D
:102D2000704703699B06F7D400207047400D0300ED
:102D300010B5C26822F0C042C260012902D029B198
:102D4000012010BDC16841F0005102E0C16841F0AE
:102D50008041C1603220FDF7E7FC002010BDFEE796
:102D60000907090E002804DB00F1E02080F80014B8
:102D7000704700F00F0000F1E02080F8141D70474C
:102D800002E008C8121F08C1002AFAD17047704734
:102D9000002001E001C1121F002AFBD17047000092
:102DA0001CB5FDF7B9FDFFF7E1FAFFF7EFF8FFF704
:102DB000A7F800242D4900942B4801940860084688
:102DC000FDF733FB00940022694628480194FDF783
:102DD0000BFB264826491430C0E900147F2181608E
:102DE000F921C0E9031444618461FEF701FBFFF798
:102DF0003FF9FFF76FF9FFF72FFA1F481D4941F21E
:102E0000BF25C0E90014C0E9024504618461FEF7F2
:102E100000FD19481949403002C00F2132C040F866
:102E20001049846114484030FEF7F3FCFFF79EF927
:102E3000FFF7D2F910481249803001604FF4E131B8
:102E4000C0E901140C21C460C0E904418461C4617B
:102E5000FEF7EDFFFFF750FAFFF724F9FFF756F9F9
:102E6000FFF76CF9FEE7000000740040100000203E
:102E70000028004000440140BC02002000480140FE
:102E80000010014000061016000610160000000099
:102E9000000000000102030406070809000000000A
:102EA00001020304C42E00080000002010000000EE
:102EB000802D0008D42E000810000020B80D00005E
:102EC000902D00080100000010000000000000002C
:042ED0000024F400E6
:04000005080001D915
:00000001FF
