:020000040800F2
:10000000C0100020ED010008C3230008592000089B
:10001000C1230008830800086530000800000000C4
:10002000000000000000000000000000B5240008EF
:100030000D09000800000000C5230008B7240008CF
:10004000070200080702000807020008070200086C
:10005000070200080702000807020008070200085C
:1000600007020008070200080702000885080008C8
:1000700007020008070200088708000807020008B6
:1000800007020008890800080702000807020008A4
:10009000070200080702000807020008070200081C
:1000A00007020008972500089525000807020008A8
:1000B00007020008992500089B2500080702000890
:1000C00007020008070200080702000807020008EC
:1000D00007020008070200080702000807020008DC
:1000E00007020008070200080702000807020008CC
:1000F000070200089D250008070200088B08000879
:1001000007020008070200080702000807020008AB
:10011000070200080702000807020008070200089B
:10012000070200080702000807020008070200088B
:10013000070200080702000807020008070200087B
:10014000070200080702000807020008070200086B
:100150008D080008070200080702000807020008CF
:10016000070200080702000807020008070200084B
:10017000070200080702000800000000000000005D
:10018000070200080702000807020008070200082B
:10019000070200080702000800000000070200082C
:1001A000070200080702000800000000000000002D
:1001B000070200080000000000000000070200081D
:1001C00007020008070200080702000807020008EB
:1001D0000702000807020008DFF80CD000F002FB5D
:1001E00000480047ED390008C0100020064880474D
:1001F00006480047FEE7FEE7FEE7FEE7FEE7FEE70C
:10020000FEE7FEE7FEE7FEE741250008D90100080A
:100210002DE9F05F0546002092469B46884606463B
:10022000814640241BE0284641464746224600F0CE
:1002300023FA53465A46C01A914110D31146184624
:10024000224600F00AFA2D1A67EB01084F462246B3
:100250000120002100F001FA17EB00094E41201E99
:10026000A4F10104DFDC484631462A464346BDE896
:10027000F09F40EA01039B0703D009E008C9121F61
:1002800008C0042AFAD203E011F8013B00F8013B50
:10029000521EF9D27047D2B201E000F8012B491E7C
:1002A000FBD270470022F6E710B513460A46044613
:1002B0001946FFF7F0FF204610BD2DE9FE4F80469E
:1002C00081EA0300C00F0C46009021F0004123F0AA
:1002D0000045B8EB0200A94105D2404621469046B0
:1002E0001C460B46024623F00040104347D0270D22
:1002F000C7F30A00C3F30A510290401A0190402844
:100300006BDAC3F3130040F4801B0098924620B1CF
:100310000023D2EB030A63EB0B0B01985946C0F1A3
:100320004002504600F099F906460D46504659469F
:10033000019A00F0B1F910EB08006141002487EA4E
:10034000115284EAE7731A4340D0009A62B3019ACB
:10035000012A4FEA075215DC001B61EB02014FF046
:10036000004202EA0752CDE90042001C41F580112B
:1003700032462B4600F0E8F903B0BDE8F08F404666
:100380002146F9E7001B61EB0201001C41F58013D7
:1003900000185B412018A2F5001747EB030140EA63
:1003A000D570B6196D4111E06D084FEA360645EA81
:1003B000C0754FEA0752001B61EB0201001C41F5BA
:1003C000801149084FEA30000019514132462B464E
:1003D00003B0BDE8F04F00F0A8B90098012240003A
:1003E0000023D0EB020263EBE073009821464FEA52
:1003F000E074B8EB000061EB0401E9E783F000432F
:100400005BE781F0004158E72DE9FE4F81EA0304E4
:1004100004F0004421F0004100944FF0000B23F061
:10042000004350EA01045ED052EA03045BD0C3F3F8
:100430000A54C1F30A552C44A4F2F3340194A0FBEE
:100440000254C1F3130141F48011C3F3130343F4C5
:10045000801301FB024400FB034E840A970A44EA1E
:10046000815447EA8357A4FB076802958D0A05FB70
:1004700007854FEA932C04FB0C542705029D4FEA95
:10048000065847EA1637B5EB08056EEB070C870EE2
:10049000920E47EA811742EA8312A7FB0201B6EBEC
:1004A0000B0164EB00042B0D43EA0C335E1844EBA4
:1004B0001C50DA465146E7FB0201C5F313044FEA2C
:1004C0000B3343EA14534FEA0432019C43EA060318
:1004D000A4F10C040294009CCDE900B400F034F9BE
:1004E00003B0BDE8F08F00200146F9E72DE9F04D9B
:1004F00081EA030404F0004B21F0004514464FF05C
:10050000000A23F0004150EA050220D054EA01021B
:100510001DD0C5F30A570246C5F31303C1F31300F8
:10052000C1F30A5640F4801543F48013A7EB060884
:10053000101BD64608F2FD3873EB050002D308F114
:10054000010801E092185B41B8F1000F03DA0020C6
:100550000146BDE8F08D00204FF480110646844628
:100560000EE0171B73EB050705D3121B63EB0503A6
:1005700006434CEA010C49084FEA300092185B41EF
:1005800050EA0107EDD152EA030012D082EA0400DA
:1005900083EA0501084305D0101BAB4106D20122B6
:1005A000002306E000224FF0004302E06FF001025A
:1005B00053101AEB06004CEB085110EB0A0041EB0C
:1005C0000B01BDE8F04D00F0B0B8C1F30A5210B510
:1005D000C1F3130140F2FF3341F480119A4201DA72
:1005E000002010BD40F233439A42A2F2334203DCB2
:1005F000524200F041F810BD904010BD00F00042A2
:1006000030F000400AD0C10D01F56071C0F3160052
:1006100042EA0151C20840071143704700200146D9
:10062000704701F0004330B421F0004150EA01026C
:1006300006D00A0DA2F56072C1F31301002A02DC94
:1006400030BC00207047440F44EAC104C100E018E8
:1006500030BC00EBC25000F031B8202A04DB203A55
:1006600000FA02F1002070479140C2F1200320FA05
:1006700003F3194390407047202A04DB203A21FA03
:1006800002F00021704721FA02F3D040C2F12002AB
:100690009140084319467047202A06DBCB17203AC1
:1006A00041FA02F043EAE07306E041FA02F3D04077
:1006B000C2F1200291400843194670470029A8BFA3
:1006C0007047401C490008BF20F00100704710B47B
:1006D000B0FA80FC00FA0CF050EA010404BF10BC30
:1006E000704749B1CCF1200421FA04F411FA0CF15D
:1006F00018BF012121430843A3EB0C01CB1D4FEA96
:1007000000614FEA102042BF002010BC704700EB90
:10071000C35010440029A4BF10BC7047401C4900BE
:1007200008BF20F0010010BC704710B5141E73F113
:10073000000408DA401C41F1000192185B411A43A1
:1007400001D120F0010010BD2DE9F04D92469B46ED
:1007500011B1B1FA81F202E0B0FA80F22032904693
:10076000FFF77BFF04460F4640EA0A0041EA0B010F
:1007700053465A46084313D0114653EA010019D094
:10078000C8F140025046FFF777FF05460E46504637
:1007900059464246FFF761FF084305D0012004E0B7
:1007A00020463946BDE8F08D0020054346EAE07654
:1007B0002C4337430A986305E40AA0EB08000022A3
:1007C000FD0A44EA47540A3002D500200146E9E711
:1007D000010510196941DDE9084500196941BDE8C5
:1007E000F04DA2E7064C074D06E0E06840F001033B
:1007F00094E8070098471034AC42F6D3FFF7F0FCBA
:10080000E83E0008083F00080EB5C10F80EAE0701E
:100810000844CA07002140F233438DE80E000A461F
:100820000B46FFF791FF03B000BD0EB540F2334118
:1008300002910021CDE900110A460B46FFF784FF23
:1008400003B000BD70B5C1F30A5201F000450024A9
:10085000C1F3130140F2FF3341F480119A4201DAEF
:10086000002070BD40F233439A42A2F2334203DCCF
:100870005242FFF701FF00E090402C43F1D040428C
:1008800070BDFEE7704770477047704770470000C3
:1008900001681823CAB2103AB2FBF3F2054B6FF3AA
:1008A0000901032A9B5CC36500D9091D81650846BF
:1008B00070470000A83D000810B5014600208B6974
:1008C0008A6A4FF0C07453B1B3F5005F15D072B1AE
:1008D000012A0CD0022A0AD0032A09D104E01AB155
:1008E000012A06D0022A03D1C96AC90100D5012014
:1008F00010BDC96AA142FAD010BD002AF7D0012A62
:10090000F2D0022AF3D0032AF3D010BD704770470B
:100910002DE9F041044600F04FF906465CB1002590
:1009200084F83450022084F835002068016821F0F2
:10093000010101600DE00120BDE8F08100F03CF90B
:10094000801B052805D920206065032084F8350028
:10095000F2E720680068C007F0D1226811682048DB
:100960000140D4E901031843D4E903363343184363
:1009700063691843A3691843E3691843236A18435A
:100980000843616A042903D1D4E90B1319430843CE
:10099000106020684069666A20F0070130460E4307
:1009A000012704280CD1A06A0643E06A40B1204622
:1009B000FFF782FF20B14020606584F83570BAE708
:1009C000206846612046FFF763FF94F85C203F21D2
:1009D00091408160656584F835700020ACE70000C7
:1009E0003F8010E070B5044600F0E6F80546601C54
:1009F00002D004480078044400F0DEF8401BA04216
:100A0000FAD370BD400000202DE9F84FDFF874B133
:100A100000224FF001084FF0030A4FF00F090BF1CD
:100A2000040E00BF0B6808FA02F42340A3426ED103
:100A30004D68022D01D0122D0ED1D50800EB850C8A
:100A4000DCF820505607F70E09FA07F6B5430E6991
:100A5000BE402E43CCF82060066855000F790AFA94
:100A600005FC07F0030726EA0C06AF403743076092
:100A70004E68012E05D0022E03D0112E01D0122E69
:100A80000ED18668CF6826EA0C06AF4037438760F0
:100A90004668A6430C79C4F3001494403443446080
:100AA000C4688E6824EA0C04AE402643C6604C68D5
:100AB000E40060D5344C256845F480452560246801
:100AC00022F0030504F480440094304C2E19D6F82B
:100AD000084895072F0F09FA07F5AC432C4DA8429B
:100AE00001D100251FE02B4DA84201D101251AE0BC
:100AF000294DA84201D1022515E0284DA84201D177
:100B0000032510E0264DA84202D104250BE032E077
:100B1000244DA84201D1052505E0234DA84201D16D
:100B2000062500E00725BD402543C6F80858DBF838
:100B300000405D464E689C43F60300D51C432C6084
:100B4000DEF8004075464E689C43B60300D51C4352
:100B50002C600C4D08352C684E689C43F60200D57D
:100B60001C432C60074D0C352C684E689C43B60224
:100B700000D51C432C60521C102AFFF453AFBDE873
:100B8000F88F0000003C0140443802400030014032
:100B9000000002400004024000080240000C024035
:100BA0000010024000140240001802400AB18161A6
:100BB00070470904FBE700000148806870470000A7
:100BC000400000200248816802781144816070472B
:100BD00040000020094810B5016841F4007101602F
:100BE000016841F480610160032000F06FF800208B
:100BF00000F006F800F024F8002010BD003C024090
:100C000070B50D4D04464FF47A712878B1FBF0F0C1
:100C10000A490968B1FBF0F000F0A2FC48B9102CB9
:100C200007D200222146501E00F030F800206C60F0
:100C300070BD012070BD0000400000204C0000206D
:100C40000A4808B5016841F480410160006800F479
:100C5000804000900548001F016841F0805101600C
:100C6000006800F08050009008BD00004438024049
:100C7000002809DB00F01F0201219140400980009B
:100C800000F1E020C0F8001170470000F0B40E4BF6
:100C90001B680C46C3F30223C3F10705042D00D9DA
:100CA0000425191D072901D2002300E0DB1E0126BF
:100CB00006FA05F1491E214099409E40761E1640D5
:100CC0003143F0BC02F0E7B90CED00E0064900F05A
:100CD000070208684FF6FF03184040EA0220034A63
:100CE00010430860704700000CED00E00000FA05BA
:100CF0002DE9F0470E46050065D0DFF81481D8F8DD
:100D00000000F7B200F00F00B04207D288F8007080
:100D1000D8F8000000F00F00B04254D128683D4CD4
:100D2000810712D5400703D5206840F4E0502060C9
:100D30002878000703D5206840F4604020602068D0
:100D4000A96820F0F000084320602878C0072DD063
:100D5000304968680839012812D0022813D00328C6
:100D600011D00968890700292DDA216821F00301D3
:100D700001432160FFF720FF814641F2883A0EE0EF
:100D800009688903EFE709688901ECE7FFF714FFB9
:100D9000A0EB0901514502D90320BDE8F087206886
:100DA000696800F00C00B0EB810FEFD1D8F80010AB
:100DB000404601F00F01B14207D90770006800F00A
:100DC0000F00B04201D00120E7E72878400705D5A1
:100DD0002068E96820F4E050084320602878000784
:100DE00006D52068296920F4604040EAC1002060EF
:100DF00000F036F82168084AC1F30311515CC8407D
:100E0000064908600020FFF7FBFE0020C5E7000050
:100E1000003C024008380240B03D00084C00002071
:100E20000448054900680968044AC1F38221515CFD
:100E3000C84070474C00002008380240C03D000800
:100E40000448054900680968044AC1F34231515C0D
:100E5000C84070474C00002008380240C03D0008E0
:100E6000154810B5006810F00C02144813D014494E
:100E7000042A0FD0082A0ED10F4C241F22682368A1
:100E800002F03F025B0207D52068C0F38810A0FB88
:100E9000010106E0084610BD2168C1F38811A1FBDD
:100EA00000010023FFF7B4F92168C1F30141491C97
:100EB0004900B0FBF1F010BD083802400024F400F6
:100EC00000366E012DE9F84F05460078DFF800B3D3
:100ED000C04CC0074AD0DBF800105846C1F381016E
:100EE000012908D00068C0F3810002280AD1201D22
:100EF0000068400206D52068800337D5686800285E
:100F000072D033E06868B0F5803F10D0B0F5A02F04
:100F1000206810D020F480302060206820F48020E9
:100F200020606868A8B1FFF747FE06460DE020681C
:100F300040F48030F4E740F480202060F7E700BF01
:100F4000FFF73AFE801B64286FD820688003F7D52E
:100F50000CE0FFF731FE064605E000BFFFF72CFE70
:100F6000801B6428F0D820688003F7D42878DFF845
:100F7000688280074FF0000940D5DBF80010584622
:100F800011F00C0F09D00068C0F3810002280BD1CA
:100F90008F48001F0068400206D42068800715D5DE
:100FA000E868012820D111E0E868B8B10120C8F84C
:100FB0000000FFF701FE064605E000BFFFF7FCFD5D
:100FC000801B0228C0D820688007F7D520682969CF
:100FD00020F0F80040EAC10020600FE0C8F800905F
:100FE000FFF7EAFD064606E0EFE000BFFFF7E4FD8D
:100FF000801B022819D820688007F7D428780007BA
:1010000022D5734E754869696C3679B1012101604A
:10101000FFF7D2FD074604E0FFF7CEFDC01B022814
:1010200003D830688007F7D50EE089E0C0F800905B
:10103000FFF7C2FD074604E0FFF7BEFDC01B022814
:101040007ED830688007F7D42878400768D5DFF865
:1010500080A100270AF1380ADAF80000C0000BD49A
:10106000DAF8001041F08051CAF80010DAF80000F8
:10107000012700F080500090594E3068C00510D410
:10108000306840F480703060FFF796FD009005E016
:10109000FFF792FD0099401A022851D83068C00528
:1010A000F6D54B4EA868683601280FD00528306861
:1010B00010D020F001003060306820F00400306073
:1010C000A868B8B1FFF778FD00900FE0306840F0F5
:1010D0000100F4E740F004003060F7E7FFF76CFD33
:1010E0000099411A41F28830814266D83068800701
:1010F000F4D50EE0FFF760FD009007E0FFF75CFD20
:101100000099411A41F28830814256D830688007F0
:10111000F4D42FB1DAF8001021F08051CAF8001091
:10112000A869D0B3DBF80010C1F3810102294CD0CB
:101130000228484607D0C8F86000FFF73DFD00E0F0
:101140003BE005463CE04746C8F86000FFF734FD49
:10115000064604E0FFF730FD801B02282DD82068EA
:101160008001F7D4F5E907010843E9681D4A4908F9
:1011700002EB0141AA6841EA82110843297C40EA56
:101180000160297D40EA01711148001F01600120C2
:101190003866FFF711FD054605E014E0FFF70CFD8A
:1011A000401B022809D820688001F7D50BE000BF5A
:1011B000FFF702FD401B022802D90320BDE8F88F8B
:1011C00020688001F4D40020F8E70120F6E7000051
:1011D000083802400038024000004742800E474273
:1011E000007000400000FFFF70B5040005D000252E
:1011F000A56294F8510010B106E0012070BD84F89A
:101200005050204600F030F8022084F85100206849
:10121000016821F040010160D4E901010843D4E9EB
:1012200003121143084361690843218B01F40071E3
:101230000843E1690843216A0843A16A0843216819
:101240000860A069042101EA1040616A084321682E
:1012500048602068C16921F40061C16165650120B1
:1012600084F85100002070BD2DE9F04786B0054696
:1012700014216846FFF716F85A48594B2A6800248B
:1012800058491038584F4FF002084FF003094FF0FB
:10129000050C9A4219D10A6842F480420A60096832
:1012A00001F480410591016841F00201016000688C
:1012B00002AA00F0020005904FF40440CDE90008B6
:1012C00082E81012694638466AE0484B06264FF419
:1012D000005A9A4234D10A6842F400420A6009680E
:1012E00001F400410591016841F0020101600068CC
:1012F000CDE9024800F0020005903820CDE9000851
:10130000694638460496FFF77FFB3A4E3848C6E9EF
:1013100000040015B460C6E903404000C6E9050AB0
:10132000C010F0614002C6E908043046FFF7F0FA49
:1013300008B1FFF7ECFAEE64B56306B0BDE8F087DC
:1013400028492D4B091D9A422DD10A6842F40052BA
:101350000A60096801F400510591016841F001013A
:101360000160016801F001010591016841F002018D
:1013700001600068CDF8008000F00200CDE904C0F3
:10138000CDF80C90CDE9018469461C48FFF73CFB81
:10139000CDF800A0CDE90184CDE903966946384631
:1013A000FFF732FBC9E7164B9A42C6D10A6842F4EE
:1013B00080120A60096801F480110591016841F00A
:1013C000020101600068CDE9024900F002000590C9
:1013D00040F20110CDE90008694604963846DFE77F
:1013E000003800404038024000040240003C004009
:1013F00010600240BC0700200034014000000240A1
:10140000005001402DE9F84F044690F850000027A5
:101410001D461646894601280DD04FF0010B84F871
:1014200050B0FFF7C9FB804694F85100BA46012836
:1014300004D002278EE00220BDE8F88FB9F1000F3A
:101440007DD0002E7BD0032084F85100C4F854A036
:10145000C4F83090A686E686C4F838A0A4F83CA06C
:10146000A4F83EA0C4F844A0C4F840A0A068B0F519
:10147000004F04D12068016841F480410160206878
:101480000168490603D4016841F040010160E06849
:10149000B0F5006F606803D030B3012E24D040E077
:1014A00008B1012E1CD1206B21680088C86006E0BD
:1014B00020688168890709D5216B0988C160206B84
:1014C000801C2063E08E401EE08609E0FFF774FB7D
:1014D000A0EB0800A84202D3681C01D031E07DB324
:1014E000E08E0028E4D11FE0206B216800780873AB
:1014F00006E020688168890709D5216B09780173A6
:10150000206B401C2063E08E401EE08609E0FFF760
:1015100053FBA0EB0800A84202D3681C01D010E0E6
:1015200075B1E08E0028E4D142462946204600F0FD
:101530004BFF08B120206065A06820B107E008E0FB
:10154000FFE7032706E02068C16880680090606DAF
:1015500000B1012784F851B084F850A038466BE7F9
:1015600010B5401EB0F1807F01D3012010BD4FF0B7
:10157000E02460610F21601701F08DFD0020A06163
:1015800007202061002010BD70B590F83C20012A92
:1015900019D0012400F83C4F0222427050F83C3C24
:1015A0005A689D6822F070060A684968324325F03F
:1015B000800529435A6050F83C2C9160447000210A
:1015C0000170084670BD022070BD10B5040003D044
:1015D00094F83D0010B107E0012010BD002084F810
:1015E0003C00204600F00CF8022084F83D00211D4C
:1015F000206801F019FA012084F83D00002010BD98
:1016000038B505460068294A0021904236D128485D
:10161000026842F0010202600068274C00F00100FD
:101620000090244820604FF0406060604020C4E992
:1016300002010001C4E904010001C4E906014FF4FC
:10164000403020620420C4E90901E16220462163A0
:10165000FFF75EF908B1FFF75AF92C620022022168
:101660001920A563FFF712FB1920FFF701FB0022E9
:1016700003211A20FFF70AFB1A2012E00F498842C3
:1016800013D10B48001F016841F4807101600068AC
:10169000002200F48070009011462D20FFF7F6FA2A
:1016A0002D20BDE83840FFF7E3BA38BD0000014007
:1016B00044380240886402401C080020002000409A
:1016C0000168CA6842F00102CA600068816801F0DE
:1016D0000701062903D0016841F0010101600020E3
:1016E0007047022180F83D1001680A6A41F2111327
:1016F0001A4207D10A6A9B101A4203D10A6822F0E3
:1017000001020A60012180F83D100020704770B589
:10171000044690F83C000D4601280DD0012684F8BF
:101720003C60022084F83D0042B1042A18D0082A07
:101730002AD00C2A4DD139E0022070BD206801F07A
:10174000E1F92068816941F00801816120688169BF
:1017500021F004018161206881692A69114311E047
:10176000206801F0FFF92068816941F4006181611E
:101770002068816921F480618161206881692A691A
:1017800041EA0221816124E0206801F021FA206809
:10179000C16941F00801C1612068C16921F00401FB
:1017A000C1612068C1692A69114311E0206801F014
:1017B00043FA2068C16941F40061C1612068C169D0
:1017C00021F48061C1612068C1692A6941EA02216E
:1017D000C16184F83D60002084F83C0070BD10B504
:1017E000040003D094F83D0010B107E0012010BDC3
:1017F000002084F83C00204600F00CF8022084F819
:101800003D00211D206801F00FF9012084F83D0002
:10181000002010BD2DE9F84F0646444A01684448AF
:10182000002591420ED1016841F00201016000687B
:10183000002200F00200009011461D20FFF726FA5A
:101840001D206CE03B4A91426DD1016841F00401DA
:1018500001600068394C00F0040000903648D7035E
:101860004FF0400884E881014FF4006B1014C4E984
:1018700005B08011E0614FF44030206204206062C6
:101880004FF4806AC4E9035A0120C4E90A052046DE
:101890002563FFF73DF808B1FFF739F83462A66316
:1018A000274C2548B946C4F810A0C4E90285183071
:1018B000C4E900094FF48040C4E905B08011E0613B
:1018C0004FF440302062042060620120C4E90A0520
:1018D0005746D84620462563FFF71AF808B1FFF7A8
:1018E00016F8F462A6631448164C483801C44FF445
:1018F0000050E4E80295A4E8A00164E80605114858
:1019000025626562FFF704F808B1FFF700F8B462DA
:10191000002201211E20A663FFF7B8F91E20BDE8B2
:10192000F84FFFF7A5B9BDE8F88F000000040040AC
:101930004038024000080040A06002407C080020BF
:10194000DC0800203C09002070B5044690F83C00FB
:10195000012812D0012584F83C50022084F83D0073
:10196000204601F091F901004FF0000007D084F803
:101970003D5084F83C00012070BD022070BD2168FC
:10198000CA6822F04002CA602168CA6822F4804214
:10199000CA6084F83D5084F83C00002070BD70B5EA
:1019A000040004D094F83900002510B106E00120AD
:1019B00070BD84F83850204600F022F8242084F8C6
:1019C00039002068C16821F40051C160204601F04F
:1019D000C1F92068016921F49041016120684169E1
:1019E00021F02A0141612068C16841F40051C160C1
:1019F000E563202084F8390084F83A00002070BDA7
:101A000010B586B0044614216846FEF74BFC144915
:101A10002068884221D11348016841F0100101601B
:101A2000006800F0100005900E481438016841F07D
:101A3000010101600068694600F0010005904FF463
:101A4000C0600090022001900120029003200390CA
:101A5000072004900448FEF7D7FF06B010BD000031
:101A60000010014044380240000002402DE9F843D4
:101A7000044690F83A00994616460D4620284FD164
:101A800095B18EB194F83800012849D0012084F82E
:101A900038000027E763222084F83A00FFF78CF82B
:101AA000A6858046E68531E00120BDE8F883E08D1B
:101AB000401EE085A0684346B0F5805F4FF000020D
:101AC0004FF020012046CDF8009004D001F098FAA4
:101AD00098B10320E9E701F093FA0028F9D12069D1
:101AE00000282068406803D0C1B225F8011B0DE032
:101AF000C0F3080125F8021B08E0206900282068CF
:101B0000406801D000F07F0005F8010BE08D00284F
:101B1000CDD1202084F83A0084F838700020C4E742
:101B20000220C2E72DE9F843044690F839001F4629
:101B300016460D46202850D1A5B19EB194F8380024
:101B400001284AD0012084F838004FF00008C4F87A
:101B50003C80212084F83900FFF72EF8A6848146C6
:101B6000E68426E00120BDE8F883E08C401EE08496
:101B7000A0684B46B0F5805F4FF000024FF0800147
:101B80002046009703D001F03BFAE8B90DE001F0E0
:101B900037FAC8B928882168C0F30800486020696E
:101BA00008B16D1C05E0AD1C03E0216815F8010BC0
:101BB0004860E08C0028D8D14B46002240212046C6
:101BC000009701F01DFA08B10320CCE7202084F82B
:101BD000390084F838800020C5E70220C3E72DE9EA
:101BE000F843804616460F464FF4AA40ADF8000071
:101BF000002231463846FEF7D9FF0120FEF7F2FEFB
:101C00004FF47A752B46022269464046FFF7FAFBED
:101C10000020ADF80000012231463846FEF7C6FF2D
:101C20000024002231463846FEF7C0FF2B46022230
:101C300069464046FFF7E6FB012231463846FEF78B
:101C4000B5FF641CE4B2092CEBD3BDE8F8830000B7
:101C50002DE9FF4FC9B040204FF00108569DCDE956
:101C600025088B4600200221CDE9270129909946BD
:101C7000924625A93448FEF7C7FE182233A12BA8A7
:101C8000FEF7F7FA182237A131A8FEF7F2FA182268
:101C90003AA137A8FEF7EDFA18223EA13DA8FEF7BB
:101CA000E8FA182241A143A8FEF7E3FA002401AEA6
:101CB00013AF2AAB22465146584600F0E9F89DF88A
:101CC000A80030559DF8A9003855641CE4B2462C94
:101CD000EFD3162000902BAB52465946499800F09E
:101CE00047F90024234652465946499800F06AF8BD
:101CF0008DF8A80030559DF8A9003855641CE4B251
:101D0000462CEFD3A5F804909DF84400012802D09A
:101D1000042803D004E0C5F8008001E00320286017
:101D20009DF88C00012802D0042802D003E0042092
:101D300000E00C202860524659464998FFF74FFFB3
:101D40004DB00020BDE8F08F00040240DE202802E4
:101D5000CC000000010217020D00FFFFFFFFFFFF94
:101D6000FFFF0000DE030702CC0000001600170092
:101D7000107CFFFFFFFFFFFFFFFF0000DE041202E9
:101D8000CC00000016001700107CFFFFFFFFFFFFD4
:101D9000FFFF0000DE082802CC000000160017003C
:101DA000107CFFFFFFFFFFFFFFFF0000DE20280287
:101DB000CC00000016001700107CFFFFFFFFFFFFA4
:101DC000FFFF00002DE9F0411746884643F0C000B0
:101DD0000502002239464046FEF7E8FE0120FEF7E4
:101DE00001FE294E3560341F2068000603D402200E
:101DF000401C0A28FCDB20680006FCD4012239467E
:101E00004046FEF7D3FE0120FEF7ECFD00223946E6
:101E10004046FEF7CBFE0120FEF7E4FD356020686A
:101E2000000603D40220401C0A28FCDB20680006C0
:101E3000FCD4012239464046FEF7B8FE0120FEF7E9
:101E4000D1FD002239464046FEF7B0FE0120FEF7E4
:101E5000C9FD35602068000603D40220401C0A2812
:101E6000FCDB20680006FCD4084804680120FEF76B
:101E7000B9FD012239464046FEF798FE0120FEF7E3
:101E8000B1FDE0B2BDE8F0810C3C00400C380040F0
:101E90002DE9F047814642F0C00006021D46884603
:101EA00000224846FEF782FE0120FEF79BFD2D4FE3
:101EB0003E603C1F2068000603D40220401C0A2814
:101EC000FCDB20680006FCD4012241464846FEF7B0
:101ED0006DFE0120FEF786FD002241464846FEF7D2
:101EE00065FE0120FEF77EFD3E602068000603D4FB
:101EF0000220401C0A28FCDB20680006FCD40122DA
:101F000041464846FEF752FE0120FEF76BFD0022D7
:101F100041464846FEF74AFE0120FEF763FD3E605B
:101F20002068000603D40220401C0A28FCDB20683D
:101F30000006FCD40C48006828700C48C068687023
:101F40000120FEF74FFD012241464846FEF72EFED6
:101F50000120FEF747FD2878287068786870BDE892
:101F6000F08700000C3C00400C380040005001405D
:101F70002DE9F8431D461746884681460024089EF1
:101F800009E0285D009023463A464146484600F065
:101F900007F8641CE4B2B442F3D30020BDE8F88330
:101FA0002DE9F041884603F0BF00069940F080001B
:101FB000174641EA0025002239464046FEF7F6FD65
:101FC000234E3560341F2068000603D40220401CD5
:101FD0000A28FCDB20680006FCD401223946404672
:101FE000FEF7E4FD0120FEF7FDFC002239464046E5
:101FF000FEF7DCFD35602068000603D40220401C9B
:102000000A28FCDB20680006FCD401223946404641
:10201000FEF7CCFD0120FEF7E5FC002239464046E4
:10202000FEF7C4FD35602068000603D40220401C82
:102030000A28FCDB20680006FCD40648046801225C
:1020400039464046FEF7B2FDE0B2BDE8F08100003F
:102050000C3C00400C380040FEE700001D4808B56D
:10206000016841F400110160016801F40011009160
:10207000016841F4800101600068002200F48000E2
:10208000009004210B20FEF701FE0B20FEF7F0FD6F
:10209000002211460E20FEF7F9FD0E20FEF7E8FDA6
:1020A000002206211120FEF7F1FD1120FEF7E0FDD0
:1020B000002211462F20FEF7E9FD2F20FEF7D8FD64
:1020C000002206214420FEF7E1FDBDE8084044203F
:1020D000FEF7CEBD303802402DE9F04387B0142121
:1020E0006846FEF7DFF835480024016841F0040136
:1020F0000160016801F004010591016841F080016F
:102100000160016801F080010591016841F0010161
:102110000160016801F001010591016841F00201CF
:1021200001600068264E00F002004FF46045059003
:10213000002229463046FEF739FDDFF8889000225C
:1021400048F204114846FEF731FDDFF87C8045F285
:102150004007002239464046FEF728FD009501253C
:10216000CDE90154694630460394FEF74DFC042046
:10217000CDE900050326CDE9025669464846FEF73B
:1021800043FC1020CDE90006694602944846FEF75C
:102190003BFC0097CDE90154694640460394FEF7A5
:1021A00033FC4FF401400090CDE9015469464846A4
:1021B0000394FEF729FC07B0BDE8F08330380240F5
:1021C0000008024000000240000402400B480A4997
:1021D0004FF4806201600021C0E901125200C0E9A1
:1021E00003210122426101625202416282618162E5
:1021F0000A21C162FEF7F8BF0038004054000020F9
:102200000C480B494FF4006201604FF48271416049
:102210000021C0E9021292100161C0E905121022EA
:10222000C0E90721416281620A21C162FEF7DCBF79
:10223000003C0040AC0000200B480A494FF480628B
:1022400001600021C0E901125200C0E9032192108F
:10225000C0E905120162416281620A21C162FEF792
:10226000C3BF000000340140040100200B480A49AC
:102270004FF4806201600021C0E901125200C0E900
:102280000321012242610162520241628261816244
:102290000A21C162FEF7A8BF005001405C01002086
:1022A00010B588B014216846FDF7FCFF00211048E6
:1022B00005910E4A0691C0E900211422C0E90212DC
:1022C000016141618161FFF780F905202024CDE99A
:1022D000000469460648FFF737FB8020CDE905403A
:1022E00005A90348FFF750F908B010BD00000140F0
:1022F000B401002010B58AB0002407941C21684660
:102300000894FDF7CFFF1348114901604FF4FA61BB
:10231000C0E9011441F2BF21C0E903148461FFF751
:102320005EFA402007908020089007A90948FFF72F
:102330002BF9702000904FF47A70CDE9010400224F
:10234000694604480494FFF7E2F90AB010BD0000A2
:1023500000040040F401002030B589B00024079447
:102360001C2168460894FDF79DFF14481249C0E9F6
:1023700000149521C0E9024104618461FFF72FFA3E
:1023800050258020CDE9075007A90C48FFF7FCF83D
:102390007020CDE9000502200290042269460494D1
:1023A0000648FFF7B4F90820024601906946034841
:1023B000FFF7ADF909B030BD00080040340200203D
:1023C000FEE770477047000038B504461248134BCB
:1023D0000068B0FBF3F04FF47A73584300906068E4
:1023E000B0F5827F0DD10B4600920022802120465D
:1023F00000F016F870B1606D40F0200060650320B9
:1024000038BD009830B1401E009020688068C043FD
:102410000006F6D5002038BD4C00002000366E01C5
:102420002DE9F0411D4617460E460446DDF818809A
:1024300008E0681C06D0FEF7BFFBA0EB0800A8422E
:102440000BD255B12068806836EA000030D00020F9
:10245000B842EED10020BDE8F0812068416821F04B
:10246000E00141606068B0F5827F0BD1A068B0F5F3
:10247000004F02D0B0F5806F04D12068016821F0D0
:1024800040010160A06AB0F5005F09D120680168D1
:1024900021F4005101602068016841F4005101609D
:1024A000012084F85100002084F850000320D2E776
:1024B0000120CDE77047FEF785BB000030B593B033
:1024C00034216846FDF7EEFE14210DA8FDF7EAFE63
:1024D00019480025016841F080510160006800F052
:1024E000805012901548016841F440410160006835
:1024F000022400F44040129001200090000401905A
:102500008001CDE9064018200890A020CDE90904FB
:102510000420CDE90B046846FEF7D4FC0DA90F207A
:1025200081E83100E002CDE9100503210DA8FEF796
:10253000DFFB13B030BD00004038024000700040A7
:102540001048016841F4700101600F48016841F0D2
:10255000010101600C4A00210832116002680B4B36
:102560001A400260031D0A4A1A60026822F480229F
:10257000026005480C300160024958068039086045
:102580007047000088ED00E000380240FFFFF6FED3
:102590001030002470477047704770472DE9F04FA6
:1025A000DFF804B42DED0C8B81B0DBF8101021F0B6
:1025B0000301CBF81010FD48FE4CFD4A0368FE48AD
:1025C000251F0168FD48006803B3136843F48003C6
:1025D0001360B0FBF1F301FB1303F94E36F813302F
:1025E00023602B681B0603D402235B1C0A2BFCDB35
:1025F0002B681B06FCD4136843F04003136000BF34
:1026000000BF022300BF5B1C052BFBDB2B68DB0735
:10261000FCD0DFF8B0E3DEF80030ADF8003023681E
:10262000A1462746ADF80030E74B1B68ADF80030F7
:10263000E64BDC68ADF80040146844F48004146094
:10264000E34E4FF0010A346804F01F080AEB082C2F
:10265000C7F800C02F683F0603D402277F1C0A2F4B
:10266000FCDB2F683F06FCD4176847F04007176073
:1026700000BF00BF022700BF7F1C052FFBDB1768D0
:1026800047F4800717602A68D207FCD0D14AD24E9F
:10269000D24F1268A40624D4DEF80040ADF8004002
:1026A000B0FBF1F401FB140406EB8404D4ED000A42
:1026B000BDF8004024B200EE104AB0FBF1F4B8EED1
:1026C000C01A00EE102A01FB1404B8EEC00A06EB93
:1026D0008404C1EE001A30EEA10A84ED000ADB6822
:1026E0002AE0D9F800404FF6FF7303EA4404ADF83E
:1026F0000040B0FBF1F401FB140406EB8404D4EDBC
:10270000000ABDF8004024B200EE104AB0FBF1F41C
:10271000B8EEC01A00EE102A01FB1404B8EEC00A8D
:1027200006EB8404C1EE001A30EEA10A84ED000A23
:10273000A54C246803EA4403ADF80030B0FBF1F384
:1027400001FB130307EB8303D3ED000ABDF8003050
:102750009A4C1BB200EE103AB0FBF1F3B8EEC01A7F
:1027600000EE102A01FB1303B8EEC00A07EB830347
:10277000401CDFF84482C1EE001A4A43824230EE28
:10278000A10A83ED000A20607ED8DBF8001021F05A
:102790000101CBF800109248FEF7A3FF0020D8F803
:1027A000001044E068B106EB8002D4ED010A92ED1E
:1027B000000AB4EEE00AF1EE10FA0DDD84ED010A34
:1027C00013E096ED000A84ED030A84ED010A97ED0B
:1027D000000A84ED040A13E0D4ED030AB4EEE00A23
:1027E000F1EE10FA01D284ED030A07EB8002D4ED7A
:1027F000020A92ED000AB4EEE00AF1EE10FA02DDF0
:1028000084ED020A08E0D4ED040AB4EEE00AF1EE29
:1028100010FA01D284ED040A9FED720A06EB8002E1
:1028200082ED000A07EB8002401C82ED000A88421C
:10283000B8DB9FED6D8B94ED010AD4ED030A30EE09
:10284000600A10EE100AFDF7D9FE9FED69AB53EC5C
:102850001A2BFDF7D9FD9FED68BB53EC1B2BFDF741
:10286000D3FD53EC182BFDF741FE9FED65CB53ECE8
:102870001C2BFDF7C9FD9FED64DB53EC1D2BFDF711
:10288000C3FDFDF7CEFE00E08DE0514F09EE100ACA
:102890005F483E6800EB86085E4888ED009A006855
:1028A000032821D994ED020AD4ED040A30EE600A1F
:1028B00010EE100AFDF7A2FE53EC1A2BFDF7A4FD53
:1028C00053EC1B2BFDF7A0FD53EC182BFDF70EFE70
:1028D00053EC1C2BFDF798FD53EC1D2BFDF794FDDD
:1028E000FDF79FFEC8F80001BDEEC90A10EE100A00
:1028F00000B2642801DA012200E00022B5EEC09A9D
:10290000F1EE10FA01DD012000E000200242424811
:102910004FF0000102D040F826A001E040F8261058
:1029200098ED400AFDEEC00A10EE902A12B2642A19
:1029300001DA012200E00022B5EEC00AF1EE10FA41
:1029400001DD012300E000231A4200EB860002D0E3
:10295000C0F800A101E0C0F800112160761C144C01
:1029600006F03F00183C3860002240212046FEF768
:102970001DF9386840F40741C9F8001028680006BE
:1029800003D40220401C0A28FCDB28680006FCD483
:10299000012240212046FEF709F9DBF8001041F042
:1029A0000101CBF8001039E00020004010000020A9
:1029B000180402400C3C00401C0000202C000020A9
:1029C000F40600200C3800400C3401400050014057
:1029D0000C000020080000209C0900202C0B002087
:1029E0007402002000000000000000E02452303E8D
:1029F000F6285C8FC2F5C83F8DEDB5A0F7C6B03E96
:102A0000FCA9F1D24D62503F000000000000E03F01
:102A1000F402002024000020F404002001B0BDECEA
:102A20000C8BBDE8F08F0000F0B50268254C264DF8
:102A3000264E274F274B4FF0804CA04209D06045CF
:102A400007D0A84205D0B04203D0B84201D0984286
:102A500004D122F0700E4A6842EA0E02A0421BD056
:102A6000604519D0A84217D0B04215D0B84213D053
:102A7000984211D0184DA8420ED0184DA8420BD044
:102A8000174DA84208D0174DA84205D0164DA842B0
:102A900002D0164DA84203D122F44075CA682A43D9
:102AA0004D6922F080022A4302608A68C2620A6885
:102AB0008262A04201D0984201D1096901630121DB
:102AC0004161F0BD000001400004004000080040EA
:102AD000000C00400004014000400140004401405F
:102AE0000048014000180040001C00400020004049
:102AF00010B5846842EA032224F47F440A43224347
:102B0000826010BDF0B5026A22F001020262036A1F
:102B100042688469124E24F073050C682C4323F03C
:102B200002058B682B430D4DA84201D0B04205D160
:102B300023F00807CB683B4323F00403A84201D0ED
:102B4000B04205D14D6922F4407215438A692A4387
:102B500042608461496841630362F0BD0000014046
:102B600000040140F0B5026A22F010020262026A1B
:102B7000436884690D6824F4E64444EA05248D68BA
:102B800022F0200242EA05120F4D104EA84201D059
:102B9000B04206D1CF6822F0800242EA071222F04A
:102BA0004002A84201D0B04207D14D6923F44063EE
:102BB00043EA85038D6943EA85034360846149687C
:102BC00081630262F0BD000000000140000401408A
:102BD000F0B5026A22F480720262026A4368C46934
:102BE00022F4007224F073050C68124E2C438D6899
:102BF00042EA05220E4DA84201D0B04206D1CF686C
:102C000022F4006242EA072222F48062A84201D044
:102C1000B04207D14D6923F4405343EA05138D694F
:102C200043EA05134360C4614968C1630262F0BDB1
:102C3000000001400004014030B5026A22F48052D5
:102C40000262046A4268C3690D6823F4E64343EAFA
:102C500005238D6824F4005444EA0534084DA84245
:102C600002D0084DA84204D14D6922F4804242EAC4
:102C700085124260C36149680164046230BD00008E
:102C8000000001400004014010B503689A6822F07A
:102C900070044A68224322F007040A6822439A60BB
:102CA0004A6812F00F0F30D11211082A2DD2DFE836
:102CB00002F02C2C2C2C0B2127040B69D1E90221CA
:102CC0000068FFF715FF20E00A68052A10D00268A7
:102CD000136A146A24F00104146202689469096991
:102CE00024F0F00444EA01119161006803620CE0F1
:102CF000012010BD0A698968006800F008F804E046
:102D00000A698968006800F013F8002010BD10B54A
:102D1000036A046A24F001040462846924F0F00464
:102D200044EA021423F00A020A438461026210BDDD
:102D300010B5036A23F0100303628369046A23F465
:102D4000704343EA023224F0A00343EA0111826196
:102D5000016210BD2DE9F041044600680169E26896
:102D600021F44051114301612169A068E2690843DF
:102D70006169114322680843D16849F20C639943A1
:102D80000143D16020684169A26921F44071114377
:102D90004161E2696425B2F5004F9748974922687E
:102DA0004FF032083FD08A4201D082427CD1FEF7F8
:102DB00047F800EBC00101EB001061688900B0FB2F
:102DC000F1F6FEF73DF800EBC00101EB0010616881
:102DD0008900B0FBF1F0B0FBF5F06FF0180148434B
:102DE00006EB800108EB0110B0FBF5F000F0F006F7
:102DF000FEF726F800EBC00101EB001061688900C6
:102E0000B0FBF1F0B0FBF5F006EB0016FEF718F89A
:102E100000EBC00101EB001061688900B0FBF1F725
:102E2000FEF70EF8D2E08A4201D082423DD1FEF791
:102E300007F800EBC00101EB001061684900B0FB2E
:102E4000F1F0B0FBF5F00601FDF7FAFF00EBC00171
:102E500001EB001061684900B0FBF1F7FDF7F0FFEE
:102E600000EBC00101EB001061684900B0FBF1F01C
:102E7000B0FBF5F06FF01801484307EB800108EB59
:102E8000C100B0FBF5F000F0F80006EB4006FDF7DE
:102E9000D7FF00EBC00101EB001061684900B0FBF7
:102EA000F1F7FDF7CDFF3CE055E0FDF7B9FF00EB92
:102EB000C00101EB001061684900B0FBF1F0B0FB0C
:102EC000F5F00601FDF7ACFF00EBC00101EB0010CF
:102ED00061684900B0FBF1F7FDF7A2FF00EBC0010C
:102EE00001EB001061684900B0FBF1F0B0FBF5F0B8
:102EF0006FF01801484307EB800108EBC100B0FBFD
:102F0000F5F000F0F80006EB4006FDF789FF00EB56
:102F1000C00101EB001061684900B0FBF1F7FDF75B
:102F20007FFF00EBC00101EB001061684900B0FBBE
:102F3000F1F0B0FBF5F06FF01801484307EB8001AA
:102F400008EBC100B0FBF5F000F007002168304449
:102F50008860BDE8F081FDF763FF00EBC00101EB85
:102F6000001061688900B0FBF1F6FDF759FF00EB36
:102F7000C00101EB001061688900B0FBF1F0B0FB0B
:102F8000F5F06FF01801484306EB800108EB0110E3
:102F9000B0FBF5F000F0F006FDF742FF00EBC001DA
:102FA00001EB001061688900B0FBF1F0B0FBF5F0B7
:102FB00006EB0016FDF734FF00EBC00101EB00103B
:102FC00061688900B0FBF1F7FDF72AFF00EBC00153
:102FD00001EB001061688900B0FBF1F0B0FBF5F087
:102FE0006FF01801484307EB800108EB0110B0FBBC
:102FF000F5F000F00F00A9E70014014000100140B7
:103000002DE9F041984617460E460446069D1DE000
:10301000681C1BD02DB1FDF7CFFDA0EB0800A84226
:1030200014D92068C16821F4D071C1602068416959
:1030300021F001014161202084F8390084F83A0030
:10304000002084F838000320BDE8F0812068006883
:1030500036EA000004D00020B842D9D00020F3E7BF
:103060000120F9E7FEE703B401984100009850EA17
:10307000C12018BF04204A0D18BF40F0010040F2E3
:10308000FF72B2EB515F08BF40F00200012808BF99
:10309000052002B070470907090E002804DB00F183
:1030A000E02080F80014704700F00F0000F1E020ED
:1030B00080F8141D7047000010B52F499FED2C1BA0
:1030C0002DED020B84B0059820F000408842DCBF53
:1030D00000209DED040B32DD2849884209D1049877
:1030E00040B94FF0010000F06FFC00F03DFC06B06D
:1030F00010BD05DB9DED040B00F02AFC06B010BDF1
:1031000068469DED040B00F03BF810F0030011D071
:10311000012818D09DED021B9DED000B02281AD04E
:1031200000F04AFA51EC100B81F0004106B041EC7E
:10313000100B10BD9DED021B9DED000B012000F05A
:103140006FFB06B010BD9DED021B9DED000B00F066
:1031500033FA06B010BD012000F062FB51EC100BF9
:1031600081F0004106B041EC100B10BD00000000E2
:103170000000000000000000FB21E93F0000F07F9C
:103180002DE9F14F04462DED020B2DED088B8AB091
:103190009FEDE70B80ED020B139EE74826F00045FC
:1031A00085420ADC9DED120B002084ED000B0AB075
:1031B000BDEC088B03B0BDE8F08FE0489FEDE0ABBD
:1031C0009FEDE1BBA84247DDE14F9FEDE39B9FED03
:1031D000E48B9DED120B53EC1A2B51EC100B002ECF
:1031E0001CDDFDF70BF941EC100BBD4208D053EC90
:1031F0001B2B51EC100BFDF701F9C4E900010BE0AA
:1032000053EC192B51EC100BFDF7F8F853EC182B7D
:10321000FDF7F4F8C4E900010120C8E7FDF74DF817
:1032200041EC100BBD4208D053EC1B2B51EC100BA2
:10323000FDF743F8C4E900010BE053EC192B51EC06
:10324000100BFDF73AF853EC182BFDF736F8C4E9EC
:1032500000014FF0FF30AAE7C348A84279DB9DED9B
:10326000120B51EC100B00F0B5FB41EC180B9FED6D
:10327000C00B53EC102BFDF7C7F89FEDBF1B53ECB1
:10328000112BFDF71AF8FDF7DDFA0746FDF7BCFA3A
:1032900041EC190B53EC1A2BFDF7B6F853EC182B35
:1032A000FDF7AFF841EC180B53EC1B2B51EC190B4D
:1032B000FDF7AAF8DFF8C8A241EC100B4FEA155849
:1032C0000125FA4453EC102B51EC180BFDF796F83E
:1032D000032DC4E900013DD0C1F30A5005EB4511AF
:1032E000A8EB00001139814234DA0AEB051BB0EE7D
:1032F00048AA9BED000BF0EE68AA53EC102B51ECA2
:10330000190BFDF781F841EC1B0B51EC1A0B53EC38
:103310001B2BFDF773F841EC180B51EC1A0B53EC17
:10332000182BFDF76BF853EC1B2BFDF767F89BEDA3
:10333000020B41EC1A0B53EC102B51EC190BFDF75F
:1033400063F853EC1A2BFDF759F841EC100B6D1C88
:10335000B8E70EE0002EA8BF3846BFF628AF94EDC0
:10336000000B51EC100B81F00041C4E900017842E0
:103370001DE7C6F3130040F4801EC6F30A50A0F206
:10338000F530471100F01F05C5F12000DDF848B009
:1033900008900020069007900520EC467949002D02
:1033A00007EB0002794408BF51F8221009D051F808
:1033B000223001EB8201AB404A68089922FA01F100
:1033C0001943A1FB0E26A1FB0B131A449A4234BFEA
:1033D0000123002303EB06080CEB8003D3E901A6CD
:1033E0000E448E4234BF0121002192448A4411B11F
:1033F000924502D903E0924501D2012100E000216B
:10340000C3E901A641444CF82010011EA0F10100BF
:10341000C4DC029800F10050850F0298DDE90367D3
:103420008000DDF81480FDF7EFF941EC1A0B30460F
:10343000FDF7FBF99FED541B53EC112BFCF7E4FF58
:1034400041EC1B0B3846FDF7F0F99FED511B53EC97
:10345000112BFCF7D9FF41EC180B4046FDF7E5F9BD
:103460009FED4D1B53EC112BFCF7CEFF41EC190BDC
:1034700051EC180B53EC192BFCF71FFF53EC1B2BD3
:10348000FCF71BFF53EC1A2BFCF717FFCDE90801E3
:10349000002008909DED080B53EC1A2B51EC100BFB
:1034A000FCF7ACFF53EC1B2BFCF7A8FF53EC182BDD
:1034B000FCF7A4FF53EC192BFCF7A3FF9FED381B7F
:1034C00053EC112BFCF7A0FF9FED370B41EC180BD1
:1034D00053EC102B9DED080B51EC100BFCF794FFF7
:1034E00053EC182BFCF7E9FE9FED310B41EC180B68
:1034F00053EC102B9DED080B51EC100BFCF784FFE7
:1035000053EC182BFCF7D9FE41EC100B139810F07C
:10351000004F06D06D4251EC100B81F0004141ECA0
:10352000100B284684ED000B41E60000000000006F
:103530000000000000000000FB21E93F7CD90240B0
:1035400000004054FB21F93F3163621A61B4D03D61
:10355000FB21F93F000000000000601A61B4D03D7B
:103560007370032E8A19A33BFB2139410000000030
:1035700083C8C96D305FE43F000000000000E03FF9
:10358000320B0000800A0000000000000000103E26
:10359000000000000000103C000000000000103A95
:1035A000182D4454FB21F93D3326A611460B113C3E
:1035B00000000054FB21F93D10B52DED040B2DED5D
:1035C000088B82B0B0EE419AF0EE619A0B9820F031
:1035D00000449FED4BABB4F1795F11DA9DED0A0B1E
:1035E00051EC100BFDF72EF9002801BFB0EE4A0A8E
:1035F000F0EE6A0A02B0BDEC088B04BF04B010BD47
:103600009DED0A0B53EC102B51EC100BFCF7FCFE5C
:1036100041EC180B3C480621B0EE480AF0EE680A6F
:10362000784400F081F853EC182B51EC100BFCF7A8
:10363000EBFE9DED0A0B41EC1B0B53EC192B51ECEF
:10364000100BFCF7E1FE41EC190B53EC1B2B51EC7A
:10365000180BFCF7D9FE53EC192BFCF7CFFE9FEDAE
:103660002C0B41EC190B53EC102B51EC180BFCF705
:10367000CBFE41EC100B2848844210DA53EC192B96
:1036800051EC100BFCF7BAFE53EC1A2BFCF7B9FE09
:1036900041EC100B02B0BDEC088B04B010BD1F480C
:1036A000A042BCBF9FED1E1B8DED001B06DBA4F5E9
:1036B00000100190002000909DED001B51EC100BBC
:1036C00053EC112BFCF79AFE9DED000B41EC180B0F
:1036D00053EC102B51EC1A0BFCF790FE41EC1A0B3B
:1036E00053EC192B51EC180BFCF788FE53EC1A2BFA
:1036F000FCF787FE41EC100BCCE700000000000057
:10370000000000000000F03FA407000000000000DF
:10371000000000000000E03F3333D33F0000E93FEA
:10372000000000000000D23F70B504462DED028B72
:103730004D1E00EBC500B0EE408AF0EE608A90EDC1
:10374000000B35F0060017D053EC182B51EC100B82
:10375000FCF75AFE41EC100B6D1E04EBC50090ED1A
:10376000001B51EC100B53EC112BFCF7A6FD41ECA8
:10377000100B35F00600E7D1022D36D0042D1CD0F9
:10378000062D1CBFBDEC028B70BD53EC182B51EC09
:10379000100BFCF739FE94ED0A1B53EC112BFCF7D0
:1037A0008CFD53EC182BFCF72FFE94ED081B53EC0B
:1037B000112BFCF782FD41EC100B53EC182B51EC54
:1037C000100BFCF721FE94ED061B53EC112BFCF7BC
:1037D00074FD53EC182BFCF717FE94ED040B53EC1F
:1037E000102BFCF76AFD41EC100B53EC182B51EC3D
:1037F000100BFCF709FE94ED021B53EC112BFCF7A8
:103800005CFD53EC182BFCF7FFFD94ED001B53EC13
:10381000112BFCF752FDBDEC028B41EC100B70BD7F
:1038200031B504462DED040B2DED0A8BB0EE41BAF7
:10383000F0EE61BA0B989DED0A0B20F00040B0F15C
:10384000795F0DDA51EC100BFFF70DFC042808BF6F
:1038500000F09AF89DED0A0BBDEC0A8B05B030BD67
:1038600053EC102B51EC100BFCF7CEFD41EC180B78
:103870009DED0A0B53EC182B51EC100BFCF7C4FD1B
:1038800041EC190B2C48B0EE480AF0EE680A05210D
:103890007844FFF749FF9FED2ACBB0EE40AAF0EE47
:1038A00060AA9CB353EC1C2B51EC190BFCF7ACFD3C
:1038B00041EC1C0B53EC1A2B51EC190BFCF7A4FD3B
:1038C0009FED210B41EC190B53EC102B51EC1B0B12
:1038D000FCF79AFD53EC192BFCF790FD53EC182BD9
:1038E000FCF792FD53EC1B2BFCF788FD53EC1C2BD3
:1038F000FCF784FD9DED0A1B53EC112BFCF781FDB9
:10390000BDEC0A8B05B041EC100B30BDFFE753EC6A
:103910001A2B51EC180BFCF777FD53EC1C2BFCF722
:10392000CCFC53EC192BFCF76FFD9DED0A1B53ECFF
:10393000112BFCF7C2FCE3E72C060000000000009E
:10394000495555555555C5BF000000000000E03FE2
:1039500010B553EC102B51EC100BFCF7AEFC41EC06
:10396000100B10BD000000009FED050B10B553ECCF
:10397000102B51EC100BFCF7B9FD41EC100B10BDF6
:1039800000000000000000009FED050B10B553EC97
:10399000102B51EC100BFCF737FD41EC100B10BD58
:1039A000000000000000001002E008C8121F08C15B
:1039B000002AFAD170477047002001E001C1121FB0
:1039C000002AFBD1704700000149086070470000E1
:1039D0005000002082B0CDE9000121F000400190AC
:1039E0009DED000B02B051EC100B70472DED068BD6
:1039F000A2B0FDF7EFF8FEF761FDFEF76DFBFEF7F5
:103A00002DFBFEF7FDFBFEF7A7FCFEF749FCFEF7DA
:103A100071FCCA48C849002401604FF49641C0E9CE
:103A200001140C21C460C0E904418461C461FDF744
:103A3000B6FFFEF7CBFBFEF7FFFBFEF717FCBF4917
:103A4000BF484039086008464460846040F2E7306F
:103A5000C86008460461802088610846FDF7B5FD0E
:103A6000B8480068B74940F040000860B6480068B0
:103A7000B54940F040000860B4480068B34940F0E0
:103A800040000860B248006840F04001B048016062
:103A9000DFF8C0A28114B8225046FDF787F84FF432
:103AA0008049002249465046FDF780F80426AAA125
:103AB00033460C22A148FEF735F8AA4D33460C22B6
:103AC0009E48296AFDF7D2FFA7A133460C229B48E6
:103AD000FEF728F8A7A133460C229848FEF722F8F3
:103AE000A1A133460C229548FEF71CF8B82249469E
:103AF0005046FDF75BF80122A14F56033146384688
:103B0000FDF754F8012249463846FDF74FF84FF4C7
:103B10000048012241463846FDF748F84FF47A7BC9
:103B20005846FCF75FFF002231463846FDF73EF865
:103B3000002249463846FDF739F80022414638460A
:103B4000FDF734F86C61AC6100208E4C4FEA000642
:103B500044F82060401C8028FADB502000279FEDAD
:103B60008A9B9FED8B8B9FED8CABDFF83482E861F5
:103B700000EE107AF8EEC00A00EE100AB8EEC01A95
:103B800080EE810A10EE100AFCF738FD53EC192B79
:103B9000FCF73AFC41EC100BFFF78EFA53EC182BB4
:103BA00051EC100BFCF730FC53EC182BFCF785FBA9
:103BB00053EC1A2BFCF728FCFCF707FD40F40641F8
:103BC00028F81710E8697F1C8742D1DB654F44F65F
:103BD000206324374022D146514672480097FEF7B1
:103BE00037F8402249466F48FDF7F9FF4FF0490882
:103BF0000523402249466B48CDF80080FEF7D0F9F6
:103C0000002240214846FCF7D1FF6420C5E90206A6
:103C10004D494FF407400C31B2460860091F08684F
:103C2000000603D40220401C0A28FCDB08680006BA
:103C3000FCD4012240214846FCF7B8FF4049012648
:103C400040F2E7302E61C8623C484038FDF738FD4D
:103C5000012251034A48FCF7A9FF5446AA462046D0
:103C6000CAF80040474B554600220146CAF80440B6
:103C700053F822C0604403EB820C521CDCF800C1F4
:103C8000402A6144F4DBC5E900010F2802DD01226E
:103C90006E6101E000226C614FF480413848FCF70E
:103CA00085FF68680F2802DD0122AE6101E0002275
:103CB000AC614FF400413248FCF778FFE868012816
:103CC000CDD11E4B022001AA13F1400303EB80016A
:103CD00091ED000ABCEEC00A10EE101A1154401CFF
:103CE0008228F3DBAA208DF8040055208DF805000A
:103CF000AD208DF88600DA208DF8870011468422E9
:103D00005B460E48FDF70EFF44F6206340224D4609
:103D1000494624480097FDF79BFF40222946214849
:103D2000FDF75DFF0523402229461E48CDF800809F
:103D3000FEF736F993E7000000100140B4020020BE
:103D40000020004000380040003C004000340140AA
:103D500000500140000402403C4241554433383495
:103D600030303E00000000203C434F4D424155445E
:103D70003E0000003C4241554431393230303E0073
:103D800000080240F40400204AD8124DFB211940DB
:103D9000000000000000E03F0000000000E06F4075
:103DA000F4060020AC0000200006101600061016D5
:103DB00000000000000000000102030406070809DB
:103DC00000000000010203044C5555555555A53F10
:103DD0007751C1166CC156BF9015CB19A001FA3EA0
:103DE000AD529C804F7E92BEC4B1B4BD9EEE213ECA
:103DF000D43888BEE9FAA8BD00004054FB21F93F41
:103E00003163621A61B4D03D0000601A61B4D03DE4
:103E10007370032E8A19A33B0000002E8A19A33B5E
:103E2000C14920259A837B39000000000000000072
:103E30006E83F9A22915444ED15727FCC0DD34F515
:103E4000999562DB4190433CAB6351FE61C5BBDE9B
:103E50003A6E24B7E0D24D42EA2E49061C92D109AF
:103E60001CEB1DFE3EA729B1F53582E88444BB2E2C
:103E700026709CE9417E5FB439D69139F439538379
:103E80008B5F849C3B28F9BDFF97F81F0F9805DED8
:103E90008B112FEF1F6D0A5ACF7E366DB709CB27D6
:103EA000663F464F2DEA5F9EC7BA27757BF1E5EB6B
:103EB000F739073DEA92528AB15FFB6B085D8D1FAF
:103EC000A6F810111111813FD561C119A0012ABFB7
:103ED0007DFEB157E31DC73EEB9C2B8AE6E55ABE3B
:103EE0007CD5CF5A3AD9E53D083F000800000020B4
:103EF00054000000A83900085C3F0008540000206E
:103F00006C100000B839000800000000000000003C
:103F100000000000000000000000000000000000A1
:103F20000000000000000000000000000000000091
:103F30000000000000000000000000000000000081
:103F40000000000000000000010000001000000060
:0C3F5000000000000024F400000000004D
:04000005080001D915
:00000001FF
