:020000040800F2
:10000000E8460120ED010008072C0008A32700089E
:10001000052C00089B0800081B3A0008000000009F
:10002000000000000000000000000000352D000866
:100030002509000800000000092C0008372D0008E1
:10004000070200080702000807020008070200086C
:10005000070200080702000807020008070200085C
:100060000702000807020008070200089D080008B0
:1000700007020008070200089F080008070200089E
:1000800007020008A108000807020008070200088C
:10009000070200080702000807020008070200081C
:1000A00007020008332E0008312E0008070200085E
:1000B000352E0008372E0008392E000807020008E8
:1000C00007020008070200080702000807020008EC
:1000D00007020008070200080702000807020008DC
:1000E00007020008070200080702000807020008CC
:1000F000070200083D2E000807020008A3080008B8
:1001000007020008070200080702000807020008AB
:10011000070200080702000807020008070200089B
:100120000702000807020008A508000807020008E7
:10013000070200080702000807020008070200087B
:10014000070200080702000807020008070200086B
:10015000A7080008070200080702000807020008B5
:10016000070200080702000807020008070200084B
:10017000070200080702000800000000000000005D
:10018000070200080702000807020008070200082B
:10019000070200080702000800000000070200082C
:1001A000070200080702000800000000000000002D
:1001B000070200080000000000000000070200081D
:1001C00007020008070200080702000807020008EB
:1001D0000702000807020008DFF80CD000F00EFB51
:1001E00000480047A5430008E8460120064880472C
:1001F00006480047FEE7FEE7FEE7FEE7FEE7FEE70C
:10020000FEE7FEE7FEE7FEE7DD2D0008D901000866
:100210002DE9F05F0546002092469B46884606463B
:10022000814640241BE0284641464746224600F0CE
:100230002FFA53465A46C01A914110D31146184618
:10024000224600F016FA2D1A67EB01084F462246A7
:100250000120002100F00DFA17EB00094E41201E8D
:10026000A4F10104DFDC484631462A464346BDE896
:10027000F09F40EA01039B0703D009E008C9121F61
:1002800008C0042AFAD203E011F8013B00F8013B50
:10029000521EF9D27047D2B201E000F8012B491E7C
:1002A000FBD270470022F6E710B513460A46044613
:1002B0001946FFF7F0FF204610BD2DE9FE4F80469E
:1002C00081EA0300C00F0C46009021F0004123F0AA
:1002D0000045B8EB0200A94105D2404621469046B0
:1002E0001C460B46024623F00040104347D0270D22
:1002F000C7F30A00C3F30A510290401A0190402844
:100300006BDAC3F3130040F4801B0098924620B1CF
:100310000023D2EB030A63EB0B0B01985946C0F1A3
:100320004002504600F0A5F906460D465046594693
:10033000019A00F0BDF910EB08006141002487EA42
:10034000115284EAE7731A4340D0009A62B3019ACB
:10035000012A4FEA075215DC001B61EB02014FF046
:10036000004202EA0752CDE90042001C41F580112B
:1003700032462B4600F0F4F903B0BDE8F08F40465A
:100380002146F9E7001B61EB0201001C41F58013D7
:1003900000185B412018A2F5001747EB030140EA63
:1003A000D570B6196D4111E06D084FEA360645EA81
:1003B000C0754FEA0752001B61EB0201001C41F5BA
:1003C000801149084FEA30000019514132462B464E
:1003D00003B0BDE8F04F00F0B4B90098012240002E
:1003E0000023D0EB020263EBE073009821464FEA52
:1003F000E074B8EB000061EB0401E9E783F000432F
:100400005BE781F0004158E72DE9FE4F81EA0304E4
:1004100004F0004421F0004100944FF0000B23F061
:10042000004350EA01045ED052EA03045BD0C3F3F8
:100430000A54C1F30A552C44A4F2F3340194A0FBEE
:100440000254C1F3130141F48011C3F3130343F4C5
:10045000801301FB024400FB034E840A970A44EA1E
:10046000815447EA8357A4FB076802958D0A05FB70
:1004700007854FEA932C04FB0C542705029D4FEA95
:10048000065847EA1637B5EB08056EEB070C870EE2
:10049000920E47EA811742EA8312A7FB0201B6EBEC
:1004A0000B0164EB00042B0D43EA0C335E1844EBA4
:1004B0001C50DA465146E7FB0201C5F313044FEA2C
:1004C0000B3343EA14534FEA0432019C43EA060318
:1004D000A4F10C040294009CCDE900B400F040F9B2
:1004E00003B0BDE8F08F00200146F9E72DE9F04D9B
:1004F00081EA030404F0004B21F0004514464FF05C
:10050000000A23F0004150EA050220D054EA01021B
:100510001DD0C5F30A570246C5F31303C1F31300F8
:10052000C1F30A5640F4801543F48013A7EB060884
:10053000101BD64608F2FD3873EB050002D308F114
:10054000010801E092185B41B8F1000F03DA0020C6
:100550000146BDE8F08D00204FF480110646844628
:100560000EE0171B73EB050705D3121B63EB0503A6
:1005700006434CEA010C49084FEA300092185B41EF
:1005800050EA0107EDD152EA030012D082EA0400DA
:1005900083EA0501084305D0101BAB4106D20122B6
:1005A000002306E000224FF0004302E06FF001025A
:1005B00053101AEB06004CEB085110EB0A0041EB0C
:1005C0000B01BDE8F04D00F0BCB80EB540F233426F
:1005D00002920022CDE90022134600F0C1F803B0D8
:1005E00000BDC1F30A5210B5C1F3130140F2FF334D
:1005F00041F480119A4201DA002010BD40F23343E9
:100600009A42A2F2334203DC524200F041F810BD9C
:10061000904010BD00F0004230F000400AD0C10D03
:1006200001F56071C0F3160042EA0151C2084007AB
:100630001143704700200146704701F0004330B479
:1006400021F0004150EA010206D00A0DA2F56072C5
:10065000C1F31301002A02DC30BC00207047440FB4
:1006600044EAC104C100E01830BC00EBC25000F005
:1006700031B8202A04DB203A00FA02F1002070474A
:100680009140C2F1200320FA03F3194390407047D0
:10069000202A04DB203A21FA02F00021704721FAD7
:1006A00002F3D040C2F1200291400843194670473E
:1006B000202A06DBCB17203A41FA02F043EAE07326
:1006C00006E041FA02F3D040C2F120029140084313
:1006D000194670470029A8BF7047401C490008BF51
:1006E00020F00100704710B4B0FA80FC00FA0CF062
:1006F00050EA010404BF10BC704749B1CCF120049A
:1007000021FA04F411FA0CF118BF01212143084326
:10071000A3EB0C01CB1D4FEA00614FEA102042BF52
:10072000002010BC704700EBC35010440029A4BF48
:1007300010BC7047401C490008BF20F0010010BCED
:10074000704710B5141E73F1000408DA401C41F123
:10075000000192185B411A4301D120F0010010BD45
:100760002DE9F04D92469B4611B1B1FA81F202E0BB
:10077000B0FA80F220329046FFF77BFF04460F4626
:1007800040EA0A0041EA0B0153465A46084313D097
:10079000114653EA010019D0C8F140025046FFF754
:1007A00077FF05460E46504659464246FFF761FF21
:1007B000084305D0012004E020463946BDE8F08D0D
:1007C0000020054346EAE0762C4337430A98630548
:1007D000E40AA0EB08000022FD0A44EA47540A306C
:1007E00002D500200146E9E7010510196941DDE95C
:1007F000084500196941BDE8F04DA2E7064C074DD8
:1008000006E0E06840F0010394E8070098471034E0
:10081000AC42F6D3FFF7E4FC5846000878460008DF
:100820000EB5C10F80EAE0700844CA07002140F20B
:1008300033438DE80E000A460B46FFF791FF03B0E5
:1008400000BD0EB540F2334102910021CDE9001107
:100850000A460B46FFF784FF03B000BD70B5C1F335
:100860000A5201F000450024C1F3130140F2FF33A6
:1008700041F480119A4201DA002070BD40F2334306
:100880009A42A2F2334203DC5242FFF701FF00E03A
:1008900090402C43F1D0404270BDFEE77047704756
:1008A000704770477047704701681823CAB2103A02
:1008B000B2FBF3F2054B6FF30901032A9B5CC3659E
:1008C00000D9091D816508467047000018450008D9
:1008D00010B5014600208B698A6A4FF0C07453B18D
:1008E000B3F5005F15D072B1012A0CD0022A0AD0EC
:1008F000032A09D104E01AB1012A06D0022A03D141
:10090000C96AC90100D5012010BDC96AA142FAD047
:1009100010BD002AF7D0012AF2D0022AF3D0032A10
:10092000F3D010BD7047704770B54379012B1AD0D2
:10093000012646710223037105682C6840F6FE7398
:1009400093409C43D1E900310B43934023432B60F8
:1009500001680B68C0249440A3430B60067100211A
:100960004171084670BD022070BD70B5040003D00F
:100970002079002510B105E0012070BD6571204689
:1009800000F008F80220207125610120207100206C
:1009900070BD000010B586B0044614216846FFF70C
:1009A00081FC1149206888421CD11048002102684E
:1009B00042F000520260006800F0005005900B48C1
:1009C0001038026842F001020260006800F0010085
:1009D0000590102000900320CDE9010169460448EC
:1009E00000F084F806B010BD0074004040380240AA
:1009F000000002402DE9F041044600F04FF90646A0
:100A00005CB1002584F83450022084F83500206859
:100A1000016821F0010101600DE00120BDE8F081D5
:100A200000F03CF9801B052805D9202060650320D3
:100A300084F83500F2E720680068C007F0D122682A
:100A4000116820480140D4E901031843D4E9033672
:100A50003343184363691843A3691843E369184390
:100A6000236A18430843616A042903D1D4E90B13AC
:100A700019430843106020684069666A20F0070146
:100A800030460E43012704280CD1A06A0643E06AD1
:100A900040B12046FFF71CFF20B14020606584F87C
:100AA0003570BAE7206846612046FFF7FDFE94F8EE
:100AB0005C203F2191408160656584F8357000209D
:100AC000ACE700003F8010E070B5044600F0E6F8A7
:100AD0000546601C02D004480078044400F0DEF8AB
:100AE000401BA042FAD370BD200000202DE9F84F32
:100AF000DFF874B100224FF001084FF0030A4FF005
:100B00000F090BF1040E00BF0B6808FA02F4234032
:100B1000A3426ED14D68022D01D0122D0ED1D50801
:100B200000EB850CDCF820505607F70E09FA07F6A3
:100B3000B5430E69BE402E43CCF8206006685500D0
:100B40000F790AFA05FC07F0030726EA0C06AF4006
:100B5000374307604E68012E05D0022E03D0112EB8
:100B600001D0122E0ED18668CF6826EA0C06AF405F
:100B7000374387604668A6430C79C4F30014944059
:100B800034434460C4688E6824EA0C04AE402643B3
:100B9000C6604C68E40060D5344C256845F4804557
:100BA0002560246822F0030504F480440094304C4E
:100BB0002E19D6F8084895072F0F09FA07F5AC4308
:100BC0002C4DA84201D100251FE02B4DA84201D198
:100BD00001251AE0294DA84201D1022515E0284D32
:100BE000A84201D1032510E0264DA84202D10425D8
:100BF0000BE032E0244DA84201D1052505E0234D4C
:100C0000A84201D1062500E00725BD402543C6F8CE
:100C10000858DBF800405D464E689C43F60300D55B
:100C20001C432C60DEF8004075464E689C43B603BA
:100C300000D51C432C600C4D08352C684E689C4335
:100C4000F60200D51C432C60074D0C352C684E680D
:100C50009C43B60200D51C432C60521C102AFFF4A2
:100C600053AFBDE8F88F0000003C0140443802401B
:100C70000030014000000240000402400008024031
:100C8000000C024000100240001402400018024014
:100C90000AB1816170470904FBE7000001488068E0
:100CA000704700002000002002488168027811444B
:100CB0008160704720000020094810B5016841F4A8
:100CC00000710160016841F480610160032000F05F
:100CD0006FF8002000F006F800F024F8002010BDA6
:100CE000003C024070B50D4D04464FF47A712878EF
:100CF000B1FBF0F00A490968B1FBF0F001F0C1F86E
:100D000048B9102C07D200222146501E00F030F8BE
:100D100000206C6070BD012070BD0000200000202C
:100D20002C0000200A4808B5016841F480410160A8
:100D3000006800F4804000900548001F016841F001
:100D400080510160006800F08050009008BD0000F4
:100D500044380240002809DB00F01F0201219140C5
:100D60004009800000F1E020C0F800117047000049
:100D7000F0B40E4B1B680C46C3F30223C3F1070506
:100D8000042D00D90425191D072901D2002300E0F4
:100D9000DB1E012606FA05F1491E214099409E40BE
:100DA000761E16403143F0BC02F050BE0CED00E060
:100DB000064900F0070208684FF6FF03184040EAB2
:100DC0000220034A10430860704700000CED00E069
:100DD0000000FA0501220168C0F8FC23002280F817
:100DE000F423886940F000608861486D024A10432E
:100DF0004865002070470000030000102DE9F04115
:100E00008AB0040005D094F8BD032668002520B1FF
:100E100008E001200AB0BDE8F08184F8BC53204608
:100E200000F064F8032084F8BD03F06BC00500D423
:100E30002561206802F0B2FD04F1100128228846E5
:100E40006846FFF716FA94E80F0002F083FC0226CA
:100E5000C8BB0021206802F0C9FD002001270EE078
:100E6000C0EBC00104EB810181F83D7001F83C0F3B
:100E7000C880CD708D60CD60401CC0B24D6161688E
:100E80008142EDD8002011E0C0EBC00104EB8101EC
:100E900081F8FD5181F8FC0181F8FF51C1F804523D
:100EA000C1F80852401CC0B2C1F8105261688142BA
:100EB000EAD8282241466846FFF7DBF994E80F009C
:100EC00002F0AAFC10B184F8BD63A2E784F83850A0
:100ED00084F8BD73606A012802D12046FFF77AFFCB
:100EE000206802F08DFC002094E7000010B586B069
:100EF000044614216846FFF7D5F92068B0F1A04FE9
:100F000027D115480021026842F001020260006802
:100F100000F0010005904FF4C05000900220CDE990
:100F20000101032003900A20049069460B48FFF753
:100F3000DDFD0948001D016841F08001016006489F
:100F40001430016841F480410160006800F4804081
:100F5000059006B010BD000030380240000002408D
:100F60002DE9F84F044600780027C34DC00708D08C
:100F70002868E16920F0C06008432860E06900B992
:100F800001272078800708D52868216A20F0C05002
:100F900008432860206A00B90127208881046FF087
:100FA000FF0015D52968A26C21F440111143296076
:100FB000A16C19B1B1F5001F02D009E0012707E0CB
:100FC0002968626921F4F85100EB0222114329607B
:100FD0002188490415D52968E26C21F440011143A8
:100FE0002960E16C19B1B1F5000F02D009E00127C9
:100FF00007E02968626921F4F85100EB02200143FF
:10100000296020784FF00009000755D59A484C38E0
:10101000016841F0805101600068DFF8608200F0F3
:1010200080500090D8F8001041F48071C8F800108A
:10103000FFF734FE064604E0FFF730FE801B02286F
:101040006FD8D8F80000C005F6D58B4E1C3E30682E
:1010500010F440701FD0A18C01F4407181421AD06D
:101060003068012220F4407185480260C0F8009089
:1010700031603068C0070ED0FFF710FE804641F2A5
:10108000883A05E0FFF70AFEA0EB0801514548D871
:1010900030688007F6D5616A7748C1F30122843849
:1010A000032A36D0016821F4F81101603068A18C60
:1010B000C1F30B01084330602078DFF8C8A1400776
:1010C00003D594F85410CAF8E01120786E4EC0068B
:1010D00005D53068E16A20F440000843306020788C
:1010E0004FF00068800609D53068216B20F0006061
:1010F00008433060206B404500D10127207840062E
:1011000005D53068A16A20F080500843306067B987
:1011100008E002685D4B22F4F81219400A430260AD
:10112000C4E773E02068802877D1DFF864B1CBF89A
:101130006890FFF7B3FD504F81468C3F06E000BF3B
:10114000FFF7ACFDA0EB090002285FD8386800016A
:10115000F6D4216DCAF8D81020684E49C20701D0D4
:10116000E2697AB1820701D5226A5AB1820602D5B4
:10117000226B424506D040060FD5A06A68B9206BA5
:1011800040450AD1D4E9010240EA8210227B237C47
:10119000120642EA0372104308602068820401D5F7
:1011A000A26C1AB1400415D5E06C98B90868D4E96E
:1011B000012342EA8312C0F30360237C000640EA65
:1011C000037002430A602868A26920F01F00521EC3
:1011D00010432860207800060AD5D4E9010240EACD
:1011E0008210227B237C120642EA037210430860BD
:1011F0000120CBF86800FFF751FD80460AE000BFF0
:10120000FFF74CFDA0EB0800022803D90320BDE83E
:10121000F88F02E038680001F2D52088C00505D5B6
:101220002868616B20F00040084328602088800512
:1012300005D52868A16B20F4004008432860208869
:10124000400505D52868E16B20F000400843286080
:101250002088000505D52868216C20F480400843CB
:1012600028602088C00405D53068616C20F04040BB
:10127000084330600020CAE78C380240007000400C
:10128000400E47420010474294380240FFFCFF0FD7
:1012900000004742843802402DE9F0470E46050021
:1012A00065D0DFF81481D8F80000F7B200F00F0025
:1012B000B04207D288F80070D8F8000000F00F00A4
:1012C000B04254D128683D4C810712D5400703D560
:1012D000206840F4E05020602878000703D520689B
:1012E00040F4604020602068A96820F0F0000843C6
:1012F00020602878C0072DD0304968680839012857
:1013000012D0022813D0032811D0096889070029B8
:101310002DDA216821F0030101432160FFF7BEFCB3
:10132000814641F2883A0EE009688903EFE70968CF
:101330008901ECE7FFF7B2FCA0EB0901514502D9A6
:101340000320BDE8F0872068696800F00C00B0EB6E
:10135000810FEFD1D8F80010404601F00F01B142E3
:1013600007D90770006800F00F00B04201D00120DB
:10137000E7E72878400705D52068E96820F4E050C1
:10138000084320602878000706D52068296920F4E2
:10139000604040EAC100206000F036F82168084A49
:1013A000C1F30311515CC840064908600020FFF7F3
:1013B00099FC0020C5E70000003C024008380240CC
:1013C000204500082C0000200448054900680968F1
:1013D000044AC1F38221515CC84070472C000020B0
:1013E000083802403045000804480549006809688B
:1013F000044AC1F34231515CC84070472C000020C0
:101400000838024030450008154810B5006810F053
:101410000C02144813D01449042A0FD0082A0ED104
:101420000F4C241F2268236802F03F025B0207D59D
:101430002068C0F38810A0FB010106E0084610BD3B
:101440002168C1F38811A1FB00010023FEF7E0FE33
:101450002168C1F30141491C4900B0FBF1F010BD06
:10146000083802400024F40000366E012DE9F84FE0
:1014700005460078DFF800B3C04CC0074AD0DBF85F
:1014800000105846C1F38101012908D00068C0F35B
:10149000810002280AD1201D0068400206D520687C
:1014A000800337D56868002872D033E06868B0F5EB
:1014B000803F10D0B0F5A02F206810D020F48030ED
:1014C0002060206820F4802020606868A8B1FFF7C1
:1014D000E5FB06460DE0206840F48030F4E740F478
:1014E00080202060F7E700BFFFF7D8FB801B64284F
:1014F0006FD820688003F7D50CE0FFF7CFFB0646D6
:1015000005E000BFFFF7CAFB801B6428F0D8206805
:101510008003F7D42878DFF8688280074FF000094D
:1015200040D5DBF80010584611F00C0F09D00068C8
:10153000C0F3810002280BD18F48001F00684002D1
:1015400006D42068800715D5E868012820D111E06D
:10155000E868B8B10120C8F80000FFF79FFB064615
:1015600005E000BFFFF79AFB801B0228C0D8206867
:101570008007F7D52068296920F0F80040EAC1000B
:1015800020600FE0C8F80090FFF788FB064606E0F1
:10159000EFE000BFFFF782FB801B022819D820680C
:1015A0008007F7D42878000722D5734E75486969FB
:1015B0006C3679B101210160FFF770FB074604E04A
:1015C000FFF76CFBC01B022803D830688007F7D5F3
:1015D0000EE089E0C0F80090FFF760FB074604E0EA
:1015E000FFF75CFBC01B02287ED830688007F7D469
:1015F0002878400768D5DFF880A100270AF1380A6B
:10160000DAF80000C0000BD4DAF8001041F0805185
:10161000CAF80010DAF80000012700F080500090AE
:10162000594E3068C00510D4306840F48070306086
:10163000FFF734FB009005E0FFF730FB0099401AFC
:10164000022851D83068C005F6D54B4EA8686836D8
:1016500001280FD00528306810D020F0010030603C
:10166000306820F004003060A868B8B1FFF716FBBE
:1016700000900FE0306840F00100F4E740F0040013
:101680003060F7E7FFF70AFB0099411A41F2883012
:10169000814266D830688007F4D50EE0FFF7FEFA85
:1016A000009007E0FFF7FAFA0099411A41F28830FA
:1016B000814256D830688007F4D42FB1DAF8001090
:1016C00021F08051CAF80010A869D0B3DBF80010EF
:1016D000C1F3810102294CD00228484607D0C8F83E
:1016E0006000FFF7DBFA00E03BE005463CE04746E0
:1016F000C8F86000FFF7D2FA064604E0FFF7CEFA1A
:10170000801B02282DD820688001F7D4F5E9070155
:101710000843E9681D4A490802EB0141AA6841EA09
:1017200082110843297C40EA0160297D40EA017169
:101730001148001F016001203866FFF7AFFA054627
:1017400005E014E0FFF7AAFA401B022809D8206838
:101750008001F7D50BE000BFFFF7A0FA401B02287D
:1017600002D90320BDE8F88F20688001F4D400205E
:10177000F8E70120F6E70000083802400038024090
:1017800000004742800E4742007000400000FFFF0B
:1017900070B5040002D0607F10B106E0012070BD7A
:1017A00000202077204600F049F802206077216869
:1017B000CA204862216853204862204601F026FA78
:1017C000FF25042618BB206881681B4A11408160F0
:1017D0002168886862681043D4E904231A431043DF
:1017E00088602168E068086120680169228941EA0F
:1017F000024101612068C16821F08001C160206858
:101800008068800607D4204600F024F818B12068CC
:1018100045626677C2E72068016C21F4802101648B
:101820002068016CA26911430164206845620120AF
:101830006077002070BD0000BFFF8FFF0068034984
:10184000884202D102490120086070470028004008
:101850003C0E474270B504460068C16821F0A00103
:10186000C160FFF71BFA05464FF47A7607E000BF28
:10187000FFF714FA401BB04201D9032070BD206865
:10188000C0688006F4D5002070BD70B5040005D096
:101890000025A56294F8510010B106E0012070BD4A
:1018A00084F85050204600F031F8022084F85100AE
:1018B0002068016821F040010160D4E9010108437A
:1018C000D4E903121143084361690843218B01F4F1
:1018D00000710843E1690843216A0843A16A08438B
:1018E00021680860A069042101EA1040616A084388
:1018F000216848602068C16921F40061C1616565A3
:10190000012084F85100002070BD00002DE9F04F47
:1019100087B0064614216846FEF7C4FC7E487D4B1E
:10192000326800247C4914380225DFF8F0B14FF00A
:1019300003084FF005099A4241D10A6842F48052E7
:101940000A60096801F480510591016841F00101C4
:101950000160006802AA00F001000590A020CDE916
:10196000000582E8100369465846FFF7BFF802AA4F
:10197000012082E801034027CDE9007569465846F9
:10198000FFF7B4F8674D664828603805C5E90107D8
:101990000014C5E903400001C5E905404FF440309B
:1019A000C5E9074004206862C5E90A8428462C631B
:1019B000FFF720F808B1FEF7B6FFB5645EE05A4BBA
:1019C000DFF854C1DFF864A1ACF1040C9A421CD1D9
:1019D000DCF8002042F48042CCF80020DCF8001053
:1019E00001F480410591016841F002010160006845
:1019F00002AA00F0020005904FF40440CDE9000572
:101A000082E810036946504664E0494B06279A4233
:101A100038D1DCF8002042F40042CCF80020DCF899
:101A2000001001F400410591016841F002010160DC
:101A3000006802AA00F0020005903820CDE90005F8
:101A400082E8B00069465046FFF750F83A4D3948F1
:101A5000C5E900040015AC60C5E9034040006861B9
:101A60008000A8614011E8614002C5E908042846E9
:101A7000FEF7C0FF08B1FEF756FFF564AE6307B08E
:101A8000BDE8F08F2D4B9A4227D10A6842F40052EC
:101A90000A60096801F400510591016841F00101F3
:101AA0000160016801F001010591016841F0020146
:101AB00001600068009500F00200CDE90490CDF8C7
:101AC0000C80CDE9015469465846FFF70FF84FF4F2
:101AD000005017E0FFF70AF8D1E7194B9A42CED130
:101AE0000A6842F480120A60096801F480110591C5
:101AF000016841F002010160006800F002000590F9
:101B000040F20110CDE90005CDE90248694604978D
:101B10005046DFE7003001404438024000000240F8
:101B200040640240280800200038004000040240C1
:101B3000003C004010600240880800200034014052
:101B4000005001402DE9F84F044690F8500000275E
:101B50001D461646894601280DD04FF0010B84F82A
:101B600050B0FFF79BF8804694F85100BA46012820
:101B700004D002278EE00220BDE8F88FB9F1000FF3
:101B80007DD0002E7BD0032084F85100C4F854A0EF
:101B9000C4F83090A686E686C4F838A0A4F83CA025
:101BA000A4F83EA0C4F844A0C4F840A0A068B0F5D2
:101BB000004F04D12068016841F480410160206831
:101BC0000168490603D4016841F040010160E06802
:101BD000B0F5006F606803D030B3012E24D040E030
:101BE00008B1012E1CD1206B21680088C86006E076
:101BF00020688168890709D5216B0988C160206B3D
:101C0000801C2063E08E401EE08609E0FFF746F866
:101C1000A0EB0800A84202D3681C01D031E07DB3DC
:101C2000E08E0028E4D11FE0206B21680078087363
:101C300006E020688168890709D5216B097801735E
:101C4000206B401C2063E08E401EE08609E0FFF719
:101C500025F8A0EB0800A84202D3681C01D010E0D0
:101C600075B1E08E0028E4D142462946204600F0B6
:101C7000EBFF08B120206065A06820B107E008E014
:101C8000FFE7032706E02068C16880680090606D68
:101C900000B1012784F851B084F850A038466BE7B2
:101CA0002DE9F84F044690F8500000270A9E1D4683
:101CB00092468B464FF0010901280ED0012084F88E
:101CC0005000FEF7EBFF804694F851006168012850
:101CD0000CD0B1F5827F07D102E00220BDE8F88F79
:101CE000A16809B9042801D00227C2E0BBF1000FA6
:101CF00027D0BAF1000F24D01DB394F85100042866
:101D000002D0052084F8510000206065C4F838A096
:101D1000E587A587C4F830B0E586A58620646064B1
:101D200020680168490603D4016841F04001016060
:101D3000E068B0F5006F606805D0E8B3012D46D0CB
:101D40007FE0012795E008B1012D39D1206B216892
:101D50000088C860206B801C2063E08E401EE086F7
:101D60002EE02068816889070FD5E18E69B1B9F14D
:101D7000010F0AD1216B0988C160206B801C206390
:101D8000E08E401EE0864FF0000920688168C90798
:101D90000CD0E18F51B1C068A16B0880A06B801C92
:101DA000A063E08F401EE0874FF00109FEF776FF49
:101DB000A0EB0800B04200E009E001D3701C50D154
:101DC000E08E0028CDD1E08F0028CAD13FE0206B03
:101DD000216800780873206B401C2063E08E401E51
:101DE000E0862EE02068816889070FD5E18E69B111
:101DF000B9F1010F0AD1216B09780173206B401CE6
:101E00002063E08E401EE0864FF000092068816864
:101E1000C9070CD0E18F51B1C068A16B0870A06BED
:101E2000401CA063E08F401EE0874FF00109FEF7E1
:101E300035FFA0EB0800B04202D3701C01D010E0C7
:101E40007EB1E08E0028CDD1E08F0028CAD1424675
:101E50003146204600F0F8FE28B1012720206065B9
:101E600007E0032705E0A06818B92068C16880680A
:101E70000090012084F85100002084F8500038467A
:101E80002CE710B5401EB0F1807F01D3012010BDBA
:101E90004FF0E02460610F21601701F0D7FD0020B2
:101EA000A06107202061002010BD70B590F83C2093
:101EB000012A19D0012400F83C4F0222427050F848
:101EC0003C3C5A689D6822F070060A6849683243B3
:101ED00025F0800529435A6050F83C2C91604470ED
:101EE00000210170084670BD022070BD10B50400CD
:101EF00003D094F83D0010B107E0012010BD002090
:101F000084F83C00204600F00DF8022084F83D00E3
:101F1000211D206801F02AF9012084F83D000020ED
:101F200010BD00002DE9F84F0446D0F800C07F48EE
:101F300040277F4E3902002503154FF440324FF001
:101F4000040A844528D1306840F0010030603068D0
:101F5000794E00F00100009076483060C6E90353E6
:101F6000C6E90551C6E90752C6E909A5F56290021E
:101F70003563C6E901073046FEF73CFD08B1FEF7C0
:101F8000D2FC2662002202211920B463FEF7F0FE83
:101F90001920FEF7DFFEAAE06548001FBCF1804F64
:101FA00012D0DFF89881C4451DD1016841F00201CB
:101FB00001600068002200F00200009011461D2020
:101FC000FEF7D6FE1D20AAE0016841F00101016084
:101FD0000068002200F00100009011461C20FEF76E
:101FE000C7FE1C209BE0DFF85881C44562D106681B
:101FF00046F0040606600068534E00F004000090AE
:1020000050484FF08068C6E90008C014C6E90430A3
:10201000C010C6E906104FF44030C6E9080AC6E908
:1020200002750120C6E90A0599468B46304635639C
:10203000FEF7E0FC08B1FEF776FC2662B463434E7F
:102040004048C6E902751830C6E90008C714801573
:10205000C6E906B04FF44030C6E9080A0120C6E9D7
:102060000A053563C6E904973046FEF7C3FC08B19C
:10207000FEF759FCE662B4633248354E48383060AA
:10208000C6E901857761C6E903594FF40050C6E9F6
:102090000605356230467562FEF7ACFC08B1FEF706
:1020A00042FCA662002201211E20B463FEF760FEFE
:1020B0001E2034E027498C450ED1306840F40030B2
:1020C00030603068002200F40030009002211920B6
:1020D000FEF74EFE192022E01F498C450ED13068D4
:1020E00040F480203060306800F4802000900022AE
:1020F00003211A20FEF73CFE1A2010E017498C45F8
:1021000011D1016841F4807101600068002200F47F
:102110008070009011462D20FEF72AFE2D20BDE88C
:10212000F84FFEF717BEBDE8F88F00000000014031
:102130004438024088640240E8080020000400405F
:1021400000080040A060024048090020A8090020C3
:10215000080A0020004401400048014000200040DF
:102160000168CA6842F00102CA600068816801F033
:102170000701062903D0016841F001010160002038
:102180007047022180F83D1001680A6A41F211137C
:102190001A4207D10A6A9B101A4203D10A6822F038
:1021A00001020A60012180F83D100020704770B5DF
:1021B000044690F83C00012817D0012584F83C50D3
:1021C000022084F83D002068826822F0770222F421
:1021D0007F4282600868502830D00DDC20284DD026
:1021E00005DC98B310283BD148E0022070BD3028B0
:1021F00044D0402834D139E0602828D0702806D057
:10220000B0F5805F2CD0B0F5005F29D10AE0CB6833
:10221000D1E90121206801F00DF82068816841F0C2
:10222000770109E0CB68D1E90121206801F002F8CB
:102230002068816841F48041816011E0CA68496882
:10224000206801F00EF95021206807E016E0CA6806
:102250004968206801F016F96021206800F0F4FF59
:1022600084F83D50002084F83C0070BDCA6849687D
:10227000206801F0F6F840212068EFE72268014667
:102280001046EBE770B5044690F83C000D46012877
:102290000DD0012684F83C60022084F83D0042B154
:1022A000042A18D0082A2AD00C2A4DD139E002205D
:1022B00070BD206800F0D0FF2068816941F00801FE
:1022C00081612068816921F0040181612068816950
:1022D0002A69114311E0206800F0EEFF206881694F
:1022E00041F4006181612068816921F4806181612C
:1022F000206881692A6941EA0221816124E020681D
:1023000001F010F82068C16941F00801C16120683E
:10231000C16921F00401C1612068C1692A691143C2
:1023200011E0206801F032F82068C16941F40061D1
:10233000C1612068C16921F48061C1612068C169FF
:102340002A6941EA0221C16184F83D60002084F8D5
:102350003C0070BD10B5040003D094F83D0010B1EE
:1023600007E0012010BD002084F83C00204600F06A
:102370000CF8022084F83D00211D206800F0F6FED4
:10238000012084F83D00002010BD704770B5044660
:1023900090F83C00012812D0012584F83C5002201E
:1023A00084F83D00204601F019F801004FF00000CC
:1023B00007D084F83D5084F83C00012070BD022015
:1023C00070BD2168CA6822F04002CA602168CA68EC
:1023D00022F48042CA6084F83D5084F83C0000201A
:1023E00070BD70B5040004D094F83900002510B118
:1023F00006E0012070BD84F83850204600F022F835
:10240000242084F839002068C16821F40051C1609B
:10241000204601F049F82068016921F490410161EA
:102420002068416921F02A0141612068C16841F4B6
:102430000051C160E563202084F8390084F83A0037
:10244000002070BD10B586B0044614216846FDF723
:1024500029FF14492068884221D11348016841F0BE
:1024600010010160006800F0100005900E4814385B
:10247000016841F0010101600068694600F0010057
:1024800005904FF4C060009002200190012002905E
:1024900003200390072004900448FEF727FB06B0B2
:1024A00010BD00000010014044380240000002400E
:1024B0002DE9F843804616460F464FF4AA40ADF882
:1024C0000000002231463846FEF7E2FB0120FEF70D
:1024D000FBFA4FF47A752B46022269464046FFF715
:1024E00031FB0020ADF80000012231463846FEF7EE
:1024F000CFFB0024002231463846FEF7C9FB2B46AD
:10250000022269464046FFF71DFB0122314638464C
:10251000FEF7BEFB641CE4B2092CEBD3BDE8F883E4
:102520002DE9F047AEB08246402011900120894647
:102530001290369F00200221CDE9130115901E460E
:10254000904611A92248FEF7D1FA182221A116A817
:10255000FDF78FFE182225A11CA8FDF78AFE182280
:1025600028A122A8FDF785FE18222CA128A8FDF796
:1025700080FE002401AD234642464946504600F005
:1025800059F82855641CE4B2402CF4D3162000906E
:1025900016AB42464946504600F0A4F800242346B4
:1025A00042464946504600F045F82855641CE4B2BE
:1025B000402CF4D39DF8420038707E804246494654
:1025C0005046FFF775FF2EB00020BDE8F0870000F1
:1025D00000040240DE030702CC00000016001700D2
:1025E000107CFFFFFFFF000000000000DE0412026D
:1025F000CC00000016001700107CFFFFFFFF00005A
:1026000000000000DE082802CC00000016001700C1
:10261000107CFFFFFFFF000000000000DE2028020A
:10262000CC00000016001700107CFFFFFFFF000029
:1026300000000000FEB505460020ADF8080043F09C
:10264000C00016460F460002ADF8040000223146D5
:102650003846FEF71DFB0120FEF736FA4FF47A7478
:102660002346012201A92846FFF76CFA01223146D0
:102670003846FEF70DFB0120FEF726FA0022314610
:102680003846FEF705FB0120FEF71EFA234601221D
:1026900001A92846FFF756FA012231463846FEF7CF
:1026A000F7FA0120FEF710FA002231463846FEF70D
:1026B000EFFA0120FEF708FA012302AA01A9284631
:1026C0000094FFF7EDFA0120FEF7FEF901223146F2
:1026D0003846FEF7DDFA0120FEF7F6F9BDF80800EE
:1026E000C0B2FEBD2DE9F8431D4617468846814617
:1026F0000024089E09E0285D009023463A464146A2
:10270000484600F007F8641CE4B2B442F3D300205A
:10271000BDE8F883FEB5054600200F46ADF8080079
:10272000089903F0BF0040F0800041EA00201646FF
:10273000ADF80400002231463846FEF7A9FA4FF4FE
:102740007A742346012201A92846FFF7FBF90122EA
:1027500031463846FEF79CFA002231463846FEF7ED
:1027600097FA2346012201A92846FFF7EBF9012237
:1027700031463846FEF78CFA002231463846FEF7DD
:1027800087FA012302AA01A928460094FFF788FAD4
:10279000012231463846FEF77BFABDF80800C0B288
:1027A000FEBDFEE7214808B5016841F480010160E3
:1027B000016801F480010091016841F40011016099
:1027C0000068002200F40010009004210B20FEF7A6
:1027D000CFFA0B20FEF7BEFA002211460E20FEF7BC
:1027E000C7FA0E20FEF7B6FA002206211120FEF7E6
:1027F000BFFA1120FEF7AEFA002211462F20FEF795
:10280000B7FA2F20FEF7A6FA002202213A20FEF79F
:10281000AFFA3A20FEF79EFA002206214420FEF786
:10282000A7FABDE808404420FEF794BA30380240C9
:102830002DE9F04387B014216846FDF733FD314898
:102840000024016841F004010160016801F0040105
:102850000591016841F080010160016801F080018B
:102860000591016841F001010160016801F0010179
:102870000591016841F0020101600068224F00F0FB
:1028800002004FF460450590002229463846FEF7C5
:10289000FFF9DFF8789000224FF482714846FEF786
:1028A000F7F9DFF86C8045F24006002231464046D9
:1028B000FEF7EEF900950125CDE901546946384649
:1028C0000394FEF713F90420CDE900050320CDE9B8
:1028D000025069464846FEF709F90096CDE90154D1
:1028E000694640460394FEF701F928020090CDE9BD
:1028F0000154694648460394FEF7F8F807B0BDE86E
:10290000F08300003038024000080240000002401E
:10291000000402400B480A494FF4007201604FF472
:102920008271416000218160C1600161C0E90512CE
:10293000C1610162416281620A21C162FEF7A5BFE5
:1029400000300140680000200B480A494FF48062C3
:1029500001600021C0E901125200C0E90321921078
:10296000C0E905120162416281620A21C162FEF77B
:102970008CBF000000380040C00000200C480B490C
:102980004FF4006201604FF4827141600021C0E9A0
:10299000021292100161C0E905120822C0E9072164
:1029A000416281620A21C162FEF76FBF003C0040B4
:1029B000180100200B480A494FF480620160002191
:1029C000C0E901125200C0E903219210C0E90512CA
:1029D0000162416281620A21C162FEF756BF0000B6
:1029E00000340140700100200B480A494FF4806216
:1029F00001600021C0E901125200C0E903219210D8
:102A0000C0E905120162416281620A21C162FEF7DA
:102A10003CBF000000500140C801002010B58CB040
:102A20000024059406940794142168460894FDF741
:102A300039FC1448099412490A94C0E9001414217D
:102A4000C0E90241046144618461FFF74FFA4FF429
:102A50008050059005A90B48FFF7A9FB052020240D
:102A6000CDE9000469460748FFF790FC8020CDE9D6
:102A7000094009A90348FFF718FA0CB010BD00007F
:102A8000000001402002002010B586B0002410484C
:102A9000009401940294039404944FF080410594AF
:102AA000C0E900148460C46004618461FFF71EFA09
:102AB0004FF48050009069460548FFF778FB049476
:102AC00004A903480594FFF7F0F906B010BD000013
:102AD0006002002010B58EB0002407940894099479
:102AE0000A940B941C2168460C94FDF7DBFB1848F4
:102AF000164901604FF4FA61C0E9011441F2BF21A7
:102B0000C0E903148461FFF7F1F94FF48050079096
:102B100007A90F48FFF74BFB0D48FFF71BFC4020B0
:102B20000B9080200C900BA90948FFF7BEF970208C
:102B300000904FF47A70CDE9010400226946044800
:102B40000494FFF79FFB0EB010BD0000000400408E
:102B5000A002002030B58DB0002407940894099499
:102B60000A940B941C2168460C94FDF79BFB1948B2
:102B70001749C0E900149521C0E90241046184614C
:102B8000FFF7B4F94FF48050079007A91148FFF7F9
:102B90000EFB1048FFF7DEFB50258020CDE90B50DF
:102BA0000BA90C48FFF781F97020CDE90005022040
:102BB00002900422694604940648FFF763FB08204C
:102BC0000246019069460348FFF75CFB0DB030BD3B
:102BD00000080040E002002009484FF0A041022216
:102BE0000160062141600021C0E90321C0E90621FE
:102BF000016241628162C1620163FEF7FFB80000B9
:102C000020040020FEE770477047000070B50446BE
:102C10000068C168490614D44FF0FF31C160FEF767
:102C20003DF805464FF47A7607E000BFFEF736F828
:102C3000401BB04201D9032070BD2068C068400627
:102C4000F4D5002070BD000038B504461248134B7F
:102C50000068B0FBF3F04FF47A735843009060685B
:102C6000B0F5827F0DD10B460092002280212046D4
:102C700000F016F870B1606D40F020006065032030
:102C800038BD009830B1401E009020688068C04375
:102C90000006F6D5002038BD2C00002000366E015D
:102CA0002DE9F0411D4617460E460446DDF8188012
:102CB00008E0681C06D0FDF7F1FFA0EB0800A84271
:102CC0000BD255B12068806836EA000030D0002071
:102CD000B842EED10020BDE8F0812068416821F0C3
:102CE000E00141606068B0F5827F0BD1A068B0F56B
:102CF000004F02D0B0F5806F04D12068016821F048
:102D000040010160A06AB0F5005F09D12068016848
:102D100021F4005101602068016841F40051016014
:102D2000012084F85100002084F850000320D2E7ED
:102D30000120CDE77047FDF7B7BF000030B5A9B05F
:102D4000342116A8FDF7AEFA142123A8FDF7AAFA3C
:102D500058216846FDF7A6FA1E480025016841F093
:102D600080510160006800F0805028901A48016886
:102D700041F4404101600068022400F44040289082
:102D8000092016904FF4803017900120CDE91B04E4
:102D900080051D9018201E90C020CDE91F0404203E
:102DA000CDE9210416A8FEF761FB23A90F2081E8D5
:102DB0003100E002CDE92605032123A8FEF76CFAD5
:102DC00028200090200209900C956846FEF7C8F86C
:102DD00029B030BD40380240007000401048016802
:102DE00041F4700101600F48016841F00101016088
:102DF0000C4A00210832116002680B4B1A40026035
:102E0000031D0A4A1A60026822F480220260054803
:102E10000C30016002495806803908607047000094
:102E200088ED00E000380240FFFFF6FE103000247D
:102E30007047704770477047704700002DE9F04FAA
:102E4000B2482DED048B81B0016921F001010161CF
:102E5000AF4C10204FF47A7120604BF6803090FB1D
:102E6000F1F5AC4F48F210703860DFF8AC82002208
:102E700040214046FDF70CFF9FEDA88B9FEDA99BDD
:102E8000D4E90401FDF7A1FB9FEDA81B53EC112B26
:102E9000FDF7BAFA53EC192BFDF728FB53EC182B6E
:102EA000FDF7B2FA41EC100B00F0E2FD9FEDA18BB3
:102EB00051EC100B53EC182BFDF7A6FA53EC182B22
:102EC000FDF7FBF99FED9D1B53EC112BFDF79CFAD1
:102ED000FDF787FBC0B240F4064038603E1F306803
:102EE0000006FCD4012240214046FDF7D1FE00BF80
:102EF00000BF022000BF401C3228FBDBD4E90401E4
:102F0000401C41F10001C4E9040100224021824833
:102F1000FDF7BEFE2078B946C106CA0C3A60DFF85C
:102F200024A2DFF8248280062ED4D4E904012A46A4
:102F3000EB17FDF76DF9104608EB8002D2ED000AA1
:102F4000D9F8002008EB800100EE102AB8EE401AF4
:102F50009AED000AF8EEC01A81EE212A70EE820A7C
:102F6000C1ED000A794901EB800292ED001A784A1E
:102F70001268B8EEC00A00EE902AF8EE600AC0EEC1
:102F8000801A31EE210A3DE0DAF80070D4E904013C
:102F900005FB07F2D31783460091FDF739F9104678
:102FA00008EB8002D2ED000A6A4A126808EB800042
:102FB000520000EE102A2A46EB17B8EE401A00EE37
:102FC000107AB8EEC00AC1EE001A30EEA10A80ED08
:102FD000000A58460099FDF71BF95C49104601EBC1
:102FE0008002D2ED000A5C4AD268520000EE102A3C
:102FF000B8EE401A00EE107AB8EEC00AC1EE001A20
:1030000030EEA10A01EB800080ED000A3068000676
:10301000FCD4414F012240213846FDF739FEDAF851
:103020000000D4E904216843C317101A994168D3FA
:10303000364D286820F0010028604848FFF7A1F8C5
:1030400000204146DFED460A42F2107201E0431CC7
:1030500006D001EB800393ED000A84ED020A09E03B
:10306000394B94ED011A13ED010AB4EEC10AF1EEE9
:1030700010FA02DD84ED010A08E094ED021AB4EEC4
:10308000C10AF1EE10FA01D284ED020A01EB8003CD
:10309000401CC3ED000A9042D9D36068FDF7BAFA2C
:1030A0009FED308B53EC182BFDF720FAFDF7C5FA96
:1030B0006060A068FDF7AEFA53EC182BFDF716FA26
:1030C000FDF7BBFAA0600020C4E9040020780022CC
:1030D000401C00F03F00206040213846FDF7D8FD3D
:1030E000206840F40741C9F8001030680006FCD49D
:1030F000012240213846FDF7CBFD286840F0010051
:10310000286001B0BDEC048BBDE8F08F00200040CA
:10311000080000200C3C00400004024000000000B9
:1031200000408F40000000000070E7404AD8124D78
:10313000FB211940000000000000E03F00000000FB
:1031400000E06F4000000020680A0020A8A60020D0
:103150000C3401400C38004000500140A003002016
:103160000000000052B81E85EB51D83FF0B5026850
:10317000254C264D264E274F274B4FF0804CA04222
:1031800009D0604507D0A84205D0B04203D0B8426C
:1031900001D0984204D122F0700E4A6842EA0E0231
:1031A000A0421BD0604519D0A84217D0B04215D01C
:1031B000B84213D0984211D0184DA8420ED0184DE5
:1031C000A8420BD0174DA84208D0174DA84205D0F1
:1031D000164DA84202D0164DA84203D122F44075E4
:1031E000CA682A434D6922F080022A4302608A6835
:1031F000C2620A688262A04201D0984201D1096984
:10320000016301214161F0BD000001400004004064
:1032100000080040000C0040000401400040014054
:10322000004401400048014000180040001C0040DC
:103230000020004010B5846842EA032224F47F4451
:103240000A432243826010BD826822F070020A4362
:1032500042F0070181607047F0B5026A22F0010276
:103260000262036A42688469124E24F073050C6896
:103270002C4323F002058B682B430D4DA84201D04F
:10328000B04205D123F00807CB683B4323F0040389
:10329000A84201D0B04205D14D6922F440721543D5
:1032A0008A692A4342608461496841630362F0BDD0
:1032B0000000014000040140F0B5026A22F0100253
:1032C0000262026A436884690D6824F4E64444EAB1
:1032D00005248D6822F0200242EA05120F4D104E9F
:1032E000A84201D0B04206D1CF6822F0800242EA63
:1032F000071222F04002A84201D0B04207D14D6926
:1033000023F4406343EA85038D6943EA8503436000
:103310008461496881630262F0BD000000000140E1
:1033200000040140F0B5026A22F480720262026A6F
:103330004368C46922F4007224F073050C68124ECD
:103340002C438D6842EA05220E4DA84201D0B042BE
:1033500006D1CF6822F4006242EA072222F480629A
:10336000A84201D0B04207D14D6923F4405343EA4B
:1033700005138D6943EA05134360C4614968C1635D
:103380000262F0BD000001400004014030B5026A55
:1033900022F480520262046A4268C3690D6823F411
:1033A000E64343EA05238D6824F4005444EA0534D7
:1033B000084DA84202D0084DA84204D14D6922F41C
:1033C000804242EA85124260C36149680164046236
:1033D00030BD0000000001400004014010B503684A
:1033E0009A6822F070044A68224322F007040A68AF
:1033F00022439A604A6812F00F0F30D11211082A46
:103400002DD2DFE802F02C2C2C2C0B2127040B6989
:10341000D1E902210068FFF70DFF20E00A68052AC4
:1034200010D00268136A146A24F00104146202685E
:103430009469096924F0F00444EA0111916100687B
:1034400003620CE0012010BD0A698968006800F081
:1034500008F804E00A698968006800F013F80020A1
:1034600010BD10B5036A046A24F001040462846983
:1034700024F0F00444EA021423F00A020A438461AF
:10348000026210BD10B5036A23F010030362836962
:10349000046A23F4704343EA023224F0A00343EAAF
:1034A00001118261016210BD2DE9F04104460068FE
:1034B0000169E26821F44051114301612169A0686A
:1034C000E26908436169114322680843D16849F2FF
:1034D0000C6399430143D16020684169A26921F4DA
:1034E000407111434161E2696425B2F5004F97488C
:1034F000974922684FF032083FD08A4201D0824279
:103500007CD1FDF771FF00EBC00101EB0010616899
:103510008900B0FBF1F6FDF767FF00EBC00101EB9E
:10352000001061688900B0FBF1F0B0FBF5F06FF0BE
:103530001801484306EB800108EB0110B0FBF5F0E1
:1035400000F0F006FDF750FF00EBC00101EB0010AA
:1035500061688900B0FBF1F0B0FBF5F006EB0016F6
:10356000FDF742FF00EBC00101EB0010616889002C
:10357000B0FBF1F7FDF738FFD2E08A4201D082427A
:103580003DD1FDF731FF00EBC00101EB0010616898
:103590004900B0FBF1F0B0FBF5F00601FDF724FFA8
:1035A00000EBC00101EB001061684900B0FBF1F7CE
:1035B000FDF71AFF00EBC00101EB00106168490044
:1035C000B0FBF1F0B0FBF5F06FF01801484307EBEA
:1035D000800108EBC100B0FBF5F000F0F80006EB4D
:1035E0004006FDF701FF00EBC00101EB0010616830
:1035F0004900B0FBF1F7FDF7F7FE3CE055E0FDF7C1
:10360000E3FE00EBC00101EB001061684900B0FB74
:10361000F1F0B0FBF5F00601FDF7D6FE00EBC001BE
:1036200001EB001061684900B0FBF1F7FDF7CCFE3B
:1036300000EBC00101EB001061684900B0FBF1F044
:10364000B0FBF5F06FF01801484307EB800108EB81
:10365000C100B0FBF5F000F0F80006EB4006FDF706
:10366000B3FE00EBC00101EB001061684900B0FB44
:10367000F1F7FDF7A9FE00EBC00101EB0010616856
:103680004900B0FBF1F0B0FBF5F06FF018014843D2
:1036900007EB800108EBC100B0FBF5F000F007007C
:1036A000216830448860BDE8F081FDF78DFE00EBB5
:1036B000C00101EB001061688900B0FBF1F6FDF775
:1036C00083FE00EBC00101EB001061688900B0FBD4
:1036D000F1F0B0FBF5F06FF01801484306EB800104
:1036E00008EB0110B0FBF5F000F0F006FDF76CFE02
:1036F00000EBC00101EB001061688900B0FBF1F044
:10370000B0FBF5F006EB0016FDF75EFE00EBC00126
:1037100001EB001061688900B0FBF1F7FDF754FE82
:1037200000EBC00101EB001061688900B0FBF1F013
:10373000B0FBF5F06FF01801484307EB800108EB90
:103740000110B0FBF5F000F00F00A9E700140140F4
:103750000010014070B5044606990A9E049D0D981C
:10376000012916D0E06840F04000E060204600F0FB
:103770002BF8A16B1EB321F48031A163012D07D179
:10378000A16841F00601A160A16841F02001A1609B
:1037900070BDA16B21F48031A163E168094A114039
:1037A000E160E16821F44011E160012803D1E068A3
:1037B00040F48010E060204600F006F8DEE741F4B7
:1037C0008031DAE7BFFFBDFF01220C4902E0521C45
:1037D0008A420BD80369002BF9DA026942F0010230
:1037E0000261012204E0521C8A4201D90320704781
:1037F0000369DB07F7D1002070470000400D03008C
:1038000010B5D0F8041841F00201C0F804180320E4
:10381000FDF75AF9002010BD2DE9F04F0025DDE934
:103820000BCB0E460446DDF84090099F28462946FA
:1038300004EB8002C2F80411401C0F28F8D3A06BDF
:10384000B9F1000F13D040F40012A2630846884675
:10385000C4F8000ED4F800182046C4F80018BCF1D3
:10386000010F10D0D0F8001841F0030110E020F44F
:103870000012A263206840F040022260206840F0FD
:1038800080022260E2E7D0F800180BB141F001019C
:10389000C0F80018102100F097F800B1012520466B
:1038A00000F082F800B101254046C4F81088C4F841
:1038B0001488C4F81C8800214FF000634FF0904832
:1038C0004FF67F3A15E000BF04EB4112D2F800C971
:1038D000BCF1000F06DA11B1C2F8008904E0C4F8A7
:1038E000003901E0C2F80009C2F81009C2F808A9BD
:1038F000491C8E42E8D8002115E000BF04EB4112BC
:10390000D2F800CBBCF1000F06DA11B1C2F8008B7F
:1039100004E0C4F8003B01E0C2F8000BC2F8100B51
:10392000C2F808AB491C8E42E8D8D4F8101821F42C
:1039300080722146C4F81028012F08D1134AC1F81B
:103940003028D1F83018124A1143C4F83018A06159
:103950006FF0804060611FB9A06940F01000A06165
:10396000A0690C490843A061BBF1000F03D0A06916
:1039700040F00800A061B9F1010F03D1A069064928
:103980000843A0612846BDE8F08F000000018000D8
:103990000300010000383C8004000040816821F0F1
:1039A0000101816000207047002110220261054A58
:1039B000491C914201D9032070470369DB06F7D403
:1039C00000207047400D03000022202343EA8111AC
:1039D00001610549521C8A4201D9032070470369DD
:1039E0009B06F7D400207047400D030010B5C26855
:1039F00022F0C042C260012902D029B1012010BDCD
:103A0000C16841F0005102E0C16841F08041C160ED
:103A10003220FDF759F8002010BDFEE703B40198ED
:103A20004100009850EAC12018BF04204A0D18BF79
:103A300040F0010040F2FF72B2EB515F08BF40F06E
:103A40000200012808BF052002B070470907090ECF
:103A5000002804DB00F1E02080F80014704700F03B
:103A60000F0000F1E02080F8141D704700000000F6
:103A700010B52F499FED2C1B2DED020B84B005983E
:103A800020F000408842DCBF00209DED040B32DDB9
:103A90002849884209D1049840B94FF0010000F04C
:103AA0006FFC00F03DFC06B010BD05DB9DED040B86
:103AB00000F02AFC06B010BD68469DED040B00F036
:103AC0003BF810F0030011D0012818D09DED021B27
:103AD0009DED000B02281AD000F04AFA51EC100BB1
:103AE00081F0004106B041EC100B10BD9DED021BB2
:103AF0009DED000B012000F06FFB06B010BD9DEDA9
:103B0000021B9DED000B00F033FA06B010BD012042
:103B100000F062FB51EC100B81F0004106B041EC6B
:103B2000100B10BD000000000000000000000000AD
:103B3000FB21E93F0000F07F2DE9F14F04462DED18
:103B4000020B2DED088B8AB09FEDE70B80ED020B89
:103B5000139EE74826F0004585420ADC9DED120BD6
:103B6000002084ED000B0AB0BDEC088B03B0BDE86B
:103B7000F08FE0489FEDE0AB9FEDE1BBA84247DD51
:103B8000E14F9FEDE39B9FEDE48B9DED120B53EC1A
:103B90001A2B51EC100B002E1CDDFCF72FFC41EC16
:103BA000100BBD4208D053EC1B2B51EC100BFCF753
:103BB00025FCC4E900010BE053EC192B51EC100B70
:103BC000FCF71CFC53EC182BFCF718FCC4E90001B3
:103BD0000120C8E7FCF771FB41EC100BBD4208D097
:103BE00053EC1B2B51EC100BFCF767FBC4E90001F5
:103BF0000BE053EC192B51EC100BFCF75EFB53EC74
:103C0000182BFCF75AFBC4E900014FF0FF30AAE77C
:103C1000C348A84279DB9DED120B51EC100B00F06C
:103C2000B5FB41EC180B9FEDC00B53EC102BFCF7D0
:103C3000EBFB9FEDBF1B53EC112BFCF73EFBFCF79E
:103C40000DFE0746FCF7ECFD41EC190B53EC1A2B6B
:103C5000FCF7DAFB53EC182BFCF7D3FB41EC180B09
:103C600053EC1B2B51EC190BFCF7CEFBDFF8C8A271
:103C700041EC100B4FEA15580125FA4453EC102B78
:103C800051EC180BFCF7BAFB032DC4E900013DD041
:103C9000C1F30A5005EB4511A8EB00001139814230
:103CA00034DA0AEB051BB0EE48AA9BED000BF0EEF0
:103CB00068AA53EC102B51EC190BFCF7A5FB41EC57
:103CC0001B0B51EC1A0B53EC1B2BFCF797FB41EC35
:103CD000180B51EC1A0B53EC182BFCF78FFB53EC21
:103CE0001B2BFCF78BFB9BED020B41EC1A0B53ECEF
:103CF000102B51EC190BFCF787FB53EC1A2BFCF73C
:103D00007DFB41EC100B6D1CB8E70EE0002EA8BF48
:103D10003846BFF628AF94ED000B51EC100B81F044
:103D20000041C4E9000178421DE7C6F3130040F4E6
:103D3000801EC6F30A50A0F2F530471100F01F05AF
:103D4000C5F12000DDF848B00890002006900790EB
:103D50000520EC467949002D07EB0002794408BFA5
:103D600051F8221009D051F8223001EB8201AB400A
:103D70004A68089922FA01F11943A1FB0E26A1FB1A
:103D80000B131A449A4234BF0123002303EB0608A5
:103D90000CEB8003D3E901A60E448E4234BF01210F
:103DA000002192448A4411B1924502D903E0924520
:103DB00001D2012100E00021C3E901A641444CF8F1
:103DC0002010011EA0F10100C4DC029800F1005097
:103DD000850F0298DDE903678000DDF81480FCF7A9
:103DE0001FFD41EC1A0B3046FCF72BFD9FED541BD9
:103DF00053EC112BFCF708FB41EC1B0B3846FCF78E
:103E000020FD9FED511B53EC112BFCF7FDFA41EC0B
:103E1000180B4046FCF715FD9FED4D1B53EC112B85
:103E2000FCF7F2FA41EC190B51EC180B53EC192B7F
:103E3000FCF743FA53EC1B2BFCF73FFA53EC1A2B1D
:103E4000FCF73BFACDE90801002008909DED080B36
:103E500053EC1A2B51EC100BFCF7D0FA53EC1B2B44
:103E6000FCF7CCFA53EC182BFCF7C8FA53EC192BDF
:103E7000FCF7C7FA9FED381B53EC112BFCF7C4FA83
:103E80009FED370B41EC180B53EC102B9DED080BFD
:103E900051EC100BFCF7B8FA53EC182BFCF70DFAA9
:103EA0009FED310B41EC180B53EC102B9DED080BE3
:103EB00051EC100BFCF7A8FA53EC182BFCF7FDF9AA
:103EC00041EC100B139810F0004F06D06D4251ECEE
:103ED000100B81F0004141EC100B284684ED000BE3
:103EE00041E60000000000000000000000000000AB
:103EF000FB21E93F7CD9024000004054FB21F93FFF
:103F00003163621A61B4D03DFB21F93F000000002B
:103F10000000601A61B4D03D7370032E8A19A33B70
:103F2000FB2139410000000083C8C96D305FE43FC8
:103F3000000000000000E03FEA0800003808000030
:103F4000000000000000103E000000000000103CD7
:103F5000000000000000103A182D4454FB21F93DE8
:103F60003326A611460B113C00000054FB21F93DFD
:103F700010B52DED040B2DED088B82B0B0EE419AFB
:103F8000F0EE619A0B9820F000449FED4BABB4F13A
:103F9000795F11DA9DED0A0B51EC100BFCF75EFC1A
:103FA000002801BFB0EE4A0AF0EE6A0A02B0BDEC8A
:103FB000088B04BF04B010BD9DED0A0B53EC102B11
:103FC00051EC100BFCF720FA41EC180B3C48062191
:103FD000B0EE480AF0EE680A784400F081F853EC3D
:103FE000182B51EC100BFCF70FFA9DED0A0B41EC6E
:103FF0001B0B53EC192B51EC100BFCF705FA41ECA1
:10400000190B53EC1B2B51EC180BFCF7FDF953EC7F
:10401000192BFCF7F3F99FED2C0B41EC190B53EC2A
:10402000102B51EC180BFCF7EFF941EC100B284862
:10403000844210DA53EC192B51EC100BFCF7DEF92B
:1040400053EC1A2BFCF7DDF941EC100B02B0BDEC80
:10405000088B04B010BD1F48A042BCBF9FED1E1BC3
:104060008DED001B06DBA4F50010019000200090F0
:104070009DED001B51EC100B53EC112BFCF7BEF91E
:104080009DED000B41EC180B53EC102B51EC1A0B6F
:10409000FCF7B4F941EC1A0B53EC192B51EC180B4B
:1040A000FCF7ACF953EC1A2BFCF7ABF941EC100B15
:1040B000CCE7000000000000000000000000F03F1E
:1040C0005C05000000000000000000000000E03F70
:1040D0003333D33F0000E93F000000000000D23F2F
:1040E00070B504462DED028B4D1E00EBC500B0EE01
:1040F000408AF0EE608A90ED000B35F0060017D094
:1041000053EC182B51EC100BFCF77EF941EC100B23
:104110006D1E04EBC50090ED001B51EC100B53EC31
:10412000112BFCF7CAF841EC100B35F00600E7D173
:10413000022D36D0042D1CD0062D1CBFBDEC028BE9
:1041400070BD53EC182B51EC100BFCF75DF994ED9E
:104150000A1B53EC112BFCF7B0F853EC182BFCF7AF
:1041600053F994ED081B53EC112BFCF7A6F841EC26
:10417000100B53EC182B51EC100BFCF745F994ED98
:10418000061B53EC112BFCF798F853EC182BFCF79B
:104190003BF994ED040B53EC102BFCF78EF841EC3B
:1041A000100B53EC182B51EC100BFCF72DF994ED80
:1041B000021B53EC112BFCF780F853EC182BFCF787
:1041C00023F994ED001B53EC112BFCF776F8BDECB2
:1041D000028B41EC100B70BD31B504462DED040B84
:1041E0002DED0A8BB0EE41BAF0EE61BA0B989DED61
:1041F0000A0B20F00040B0F1795F0DDA51EC100BA2
:10420000FFF70CFC042808BF00F09AF89DED0A0B9C
:10421000BDEC0A8B05B030BD53EC102B51EC100BEC
:10422000FCF7F2F841EC180B9DED0A0B53EC182B40
:1042300051EC100BFCF7E8F841EC190B2C48B0EEF0
:10424000480AF0EE680A05217844FFF749FF9FED20
:104250002ACBB0EE40AAF0EE60AA9CB353EC1C2B24
:1042600051EC190BFCF7D0F841EC1C0B53EC1A2B5A
:1042700051EC190BFCF7C8F89FED210B41EC190B21
:1042800053EC102B51EC1B0BFCF7BEF853EC192B25
:10429000FCF7B4F853EC182BFCF7B6F853EC1B2BD7
:1042A000FCF7ACF853EC1C2BFCF7A8F89DED0A1BAF
:1042B00053EC112BFCF7A5F8BDEC0A8B05B041ECD3
:1042C000100B30BDFFE753EC1A2B51EC180BFCF729
:1042D0009BF853EC1C2BFBF7F0FF53EC192BFCF76E
:1042E00093F89DED0A1B53EC112BFBF7E6FFE3E778
:1042F000E403000000000000495555555555C5BF61
:10430000000000000000E03F10B553EC102B51EC12
:10431000100BFBF7D2FF41EC100B10BD00000000AA
:104320009FED050B10B553EC102B51EC100BFCF767
:10433000DDF841EC100B10BD000000000000000093
:104340009FED050B10B553EC102B51EC100BFCF747
:104350005BF841EC100B10BD0000000000000010E5
:1043600002E008C8121F08C1002AFAD1704770473E
:10437000002001E001C1121F002AFBD1704700009C
:1043800001490860704700003000002082B0CDE98C
:10439000000121F0004001909DED000B02B051ECB6
:1043A000100B70471CB5FCF787FCFEF7C7FCFEF747
:1043B0003FFAFEF7F7F900244B490094494801946D
:1043C00008600846FCF7D1FA009400226946464886
:1043D0000194FCF7A9FA444844491430C0E9001498
:1043E0007F218160F921C0E9031444618461FDF7F4
:1043F000CFF9FEF78FFAFEF7C1FAFEF7ABFB3D48A7
:104400003B4941F2BF25C0E90014C0E902450461FF
:104410008461FDF76BFD37483749403002C00F21FA
:1044200032C040F81049846132484030FDF75EFDEB
:10443000FEF7F4FAFEF74EFB2E483049C03001601B
:104440004FF4E131C0E901140C21C460C0E904411A
:104450008461C461FDF7C5FFFEF7BEFBFEF774FA89
:10446000FEF7A8FAFEF7C0FAFEF70EFB2148244932
:104470008030C0E9001440F2CF71C0E902418021D0
:1044800004618161FDF732FD1E4800901E4C164804
:1044900044F6206340222146E430FEF741F81248FA
:1044A00040222146E430FEF703F8412000900E48F8
:1044B000052340222146E430FEF72CF91348016819
:1044C00041F0400101601248016841F04001016083
:1044D0001048016841F04001016006488030FDF756
:1044E0003FFEFEE70074004034000020002800403A
:1044F000004401402003002000480140001001401A
:104500000020004004000020000402400038004069
:10451000003401400050014000061016000610163D
:104520000000000000000000010203040607080963
:1045300000000000010203044C5555555555A53F98
:104540007751C1166CC156BF9015CB19A001FA3E28
:10455000AD529C804F7E92BEC4B1B4BD9EEE213E52
:10456000D43888BEE9FAA8BD00004054FB21F93FC9
:104570003163621A61B4D03D0000601A61B4D03D6D
:104580007370032E8A19A33B0000002E8A19A33BE7
:10459000C14920259A837B390000000000000000FB
:1045A0006E83F9A22915444ED15727FCC0DD34F59E
:1045B000999562DB4190433CAB6351FE61C5BBDE24
:1045C0003A6E24B7E0D24D42EA2E49061C92D10938
:1045D0001CEB1DFE3EA729B1F53582E88444BB2EB5
:1045E00026709CE9417E5FB439D69139F439538302
:1045F0008B5F849C3B28F9BDFF97F81F0F9805DE61
:104600008B112FEF1F6D0A5ACF7E366DB709CB275E
:10461000663F464F2DEA5F9EC7BA27757BF1E5EBF3
:10462000F739073DEA92528AB15FFB6B085D8D1F37
:10463000A6F810111111813FD561C119A0012ABF3F
:104640007DFEB157E31DC73EEB9C2B8AE6E55ABEC3
:104650007CD5CF5A3AD9E53D7846000800000020C5
:104660003400000060430008AC460008340000201D
:10467000B446010070430008320000000000000052
:10468000000000000000000000000000000000002A
:104690000000000000000000010000001000000009
:0C46A000000000000024F40000000000F6
:04000005080001D915
:00000001FF
